{
  "contractName": "ApplicationContract",
  "abi": [
    {
      "inputs": [],
      "stateMutability": "nonpayable",
      "type": "constructor"
    },
    {
      "inputs": [],
      "name": "applicationCount",
      "outputs": [
        {
          "internalType": "uint256",
          "name": "",
          "type": "uint256"
        }
      ],
      "stateMutability": "view",
      "type": "function"
    },
    {
      "inputs": [
        {
          "internalType": "uint256",
          "name": "",
          "type": "uint256"
        }
      ],
      "name": "applications",
      "outputs": [
        {
          "internalType": "uint256",
          "name": "id",
          "type": "uint256"
        },
        {
          "internalType": "address",
          "name": "applicant",
          "type": "address"
        },
        {
          "internalType": "uint256",
          "name": "requestedAmount",
          "type": "uint256"
        },
        {
          "internalType": "string",
          "name": "mongoDbHash",
          "type": "string"
        },
        {
          "internalType": "string",
          "name": "status",
          "type": "string"
        }
      ],
      "stateMutability": "view",
      "type": "function"
    },
    {
      "inputs": [],
      "name": "owner",
      "outputs": [
        {
          "internalType": "address",
          "name": "",
          "type": "address"
        }
      ],
      "stateMutability": "view",
      "type": "function"
    },
    {
      "inputs": [
        {
          "internalType": "uint256",
          "name": "_requestedAmount",
          "type": "uint256"
        },
        {
          "internalType": "string",
          "name": "_mongoDbHash",
          "type": "string"
        }
      ],
      "name": "submitApplication",
      "outputs": [
        {
          "internalType": "uint256",
          "name": "",
          "type": "uint256"
        }
      ],
      "stateMutability": "nonpayable",
      "type": "function"
    },
    {
      "inputs": [
        {
          "internalType": "uint256",
          "name": "_id",
          "type": "uint256"
        },
        {
          "internalType": "string",
          "name": "_status",
          "type": "string"
        }
      ],
      "name": "updateApplicationStatus",
      "outputs": [],
      "stateMutability": "nonpayable",
      "type": "function"
    }
  ],
  "bytecode": "0x608060405234801561001057600080fd5b50336000806101000a81548173ffffffffffffffffffffffffffffffffffffffff021916908373ffffffffffffffffffffffffffffffffffffffff160217905550610ac2806100606000396000f3fe608060405234801561001057600080fd5b50600436106100575760003560e01c806309fd8d301461005c5780638ad9cbd11461008c5780638da5cb5b146100a8578063dfefadff146100c6578063e2aad4a0146100fa575b600080fd5b61007660048036038101906100719190610639565b610118565b60405161008391906107e5565b60405180910390f35b6100a660048036038101906100a19190610639565b61025e565b005b6100b0610360565b6040516100bd919061078a565b60405180910390f35b6100e060048036038101906100db9190610610565b610384565b6040516100f1959493929190610800565b60405180910390f35b6101026104ea565b60405161010f91906107e5565b60405180910390f35b60006001600081548092919061012d9061098e565b91905055506040518060a0016040528060015481526020013373ffffffffffffffffffffffffffffffffffffffff1681526020018481526020018381526020016040518060400160405280600781526020017f50656e64696e67000000000000000000000000000000000000000000000000008152508152506002600060015481526020019081526020016000206000820151816000015560208201518160010160006101000a81548173ffffffffffffffffffffffffffffffffffffffff021916908373ffffffffffffffffffffffffffffffffffffffff1602179055506040820151816002015560608201518160030190805190602001906102329291906104f0565b50608082015181600401908051906020019061024f9291906104f0565b50905050600154905092915050565b60008054906101000a900473ffffffffffffffffffffffffffffffffffffffff1673ffffffffffffffffffffffffffffffffffffffff163373ffffffffffffffffffffffffffffffffffffffff16146102ec576040517f08c379a00000000000000000000000000000000000000000000000000000000081526004016102e3906107c5565b60405180910390fd5b600154821115610331576040517f08c379a0000000000000000000000000000000000000000000000000000000008152600401610328906107a5565b60405180910390fd5b8060026000848152602001908152602001600020600401908051906020019061035b9291906104f0565b505050565b60008054906101000a900473ffffffffffffffffffffffffffffffffffffffff1681565b60026020528060005260406000206000915090508060000154908060010160009054906101000a900473ffffffffffffffffffffffffffffffffffffffff16908060020154908060030180546103d99061095c565b80601f01602080910402602001604051908101604052809291908181526020018280546104059061095c565b80156104525780601f1061042757610100808354040283529160200191610452565b820191906000526020600020905b81548152906001019060200180831161043557829003601f168201915b5050505050908060040180546104679061095c565b80601f01602080910402602001604051908101604052809291908181526020018280546104939061095c565b80156104e05780601f106104b5576101008083540402835291602001916104e0565b820191906000526020600020905b8154815290600101906020018083116104c357829003601f168201915b5050505050905085565b60015481565b8280546104fc9061095c565b90600052602060002090601f01602090048101928261051e5760008555610565565b82601f1061053757805160ff1916838001178555610565565b82800160010185558215610565579182015b82811115610564578251825591602001919060010190610549565b5b5090506105729190610576565b5090565b5b8082111561058f576000816000905550600101610577565b5090565b60006105a66105a184610892565b610861565b9050828152602081018484840111156105be57600080fd5b6105c984828561091a565b509392505050565b600082601f8301126105e257600080fd5b81356105f2848260208601610593565b91505092915050565b60008135905061060a81610a75565b92915050565b60006020828403121561062257600080fd5b6000610630848285016105fb565b91505092915050565b6000806040838503121561064c57600080fd5b600061065a858286016105fb565b925050602083013567ffffffffffffffff81111561067757600080fd5b610683858286016105d1565b9150509250929050565b610696816108de565b82525050565b60006106a7826108c2565b6106b181856108cd565b93506106c1818560208601610929565b6106ca81610a64565b840191505092915050565b60006106e2601a836108cd565b91507f4170706c69636174696f6e20646f6573206e6f742065786973740000000000006000830152602082019050919050565b60006107226022836108cd565b91507f4f6e6c79206f776e65722063616e20706572666f726d2074686973206163746960008301527f6f6e0000000000000000000000000000000000000000000000000000000000006020830152604082019050919050565b61078481610910565b82525050565b600060208201905061079f600083018461068d565b92915050565b600060208201905081810360008301526107be816106d5565b9050919050565b600060208201905081810360008301526107de81610715565b9050919050565b60006020820190506107fa600083018461077b565b92915050565b600060a082019050610815600083018861077b565b610822602083018761068d565b61082f604083018661077b565b8181036060830152610841818561069c565b90508181036080830152610855818461069c565b90509695505050505050565b6000604051905081810181811067ffffffffffffffff8211171561088857610887610a35565b5b8060405250919050565b600067ffffffffffffffff8211156108ad576108ac610a35565b5b601f19601f8301169050602081019050919050565b600081519050919050565b600082825260208201905092915050565b60006108e9826108f0565b9050919050565b600073ffffffffffffffffffffffffffffffffffffffff82169050919050565b6000819050919050565b82818337600083830152505050565b60005b8381101561094757808201518184015260208101905061092c565b83811115610956576000848401525b50505050565b6000600282049050600182168061097457607f821691505b6020821081141561098857610987610a06565b5b50919050565b600061099982610910565b91507fffffffffffffffffffffffffffffffffffffffffffffffffffffffffffffffff8214156109cc576109cb6109d7565b5b600182019050919050565b7f4e487b7100000000000000000000000000000000000000000000000000000000600052601160045260246000fd5b7f4e487b7100000000000000000000000000000000000000000000000000000000600052602260045260246000fd5b7f4e487b7100000000000000000000000000000000000000000000000000000000600052604160045260246000fd5b6000601f19601f8301169050919050565b610a7e81610910565b8114610a8957600080fd5b5056fea26469706673582212201407ce9087520a069bc94f6bbe70016dfffeb8779ec8ca601ee4449884b8659c64736f6c63430008000033",
  "immutableReferences": {},
  "source": "// SPDX-License-Identifier: MIT\r\npragma solidity ^0.8.0;\r\n\r\ncontract ApplicationContract {\r\n    address public owner;\r\n    uint256 public applicationCount;\r\n\r\n    struct Application {\r\n        uint256 id;\r\n        address applicant;\r\n        uint256 requestedAmount;\r\n        string mongoDbHash;\r\n        string status;\r\n    }\r\n\r\n    mapping(uint256 => Application) public applications;\r\n\r\n    modifier onlyOwner() {\r\n        require(msg.sender == owner, \"Only owner can perform this action\");\r\n        _;\r\n    }\r\n\r\n    constructor() {\r\n        owner = msg.sender;\r\n    }\r\n\r\n    function submitApplication(uint256 _requestedAmount, string memory _mongoDbHash) external returns (uint256){\r\n        applicationCount++;\r\n        applications[applicationCount] = Application(applicationCount, msg.sender, _requestedAmount, _mongoDbHash, \"Pending\");\r\n        return applicationCount;\r\n    }\r\n\r\n    function updateApplicationStatus(uint256 _id, string memory _status) external onlyOwner {\r\n        require(_id <= applicationCount, \"Application does not exist\");\r\n        applications[_id].status = _status;\r\n    }\r\n\r\n\r\n}\r\n",
  "sourcePath": "C:\\Users\\saritajoshi\\Documents\\559_Blockchain\\scholarship-proj\\contracts\\ApplicationContract.sol",
  "compiler": {
    "name": "solc",
    "version": "0.8.0+commit.c7dfd78e.Emscripten.clang"
  },
  "schemaVersion": "3.4.16",
  "updatedAt": "2024-11-14T20:20:17.257Z",
  "devdoc": {
    "kind": "dev",
    "methods": {},
    "version": 1
  },
  "userdoc": {
    "kind": "user",
    "methods": {},
    "version": 1
  }
}