{
  "contractName": "ApplicationContract",
  "abi": [
    {
      "inputs": [],
      "stateMutability": "nonpayable",
      "type": "constructor"
    },
    {
      "anonymous": false,
      "inputs": [
        {
          "indexed": false,
          "internalType": "address",
          "name": "applicant",
          "type": "address"
        },
        {
          "indexed": false,
          "internalType": "string",
          "name": "status",
          "type": "string"
        }
      ],
      "name": "ApplicationStatusUpdated",
      "type": "event"
    },
    {
      "anonymous": false,
      "inputs": [
        {
          "indexed": false,
          "internalType": "address",
          "name": "applicant",
          "type": "address"
        },
        {
          "indexed": false,
          "internalType": "uint256",
          "name": "amount",
          "type": "uint256"
        },
        {
          "indexed": false,
          "internalType": "string",
          "name": "mongoDbHash",
          "type": "string"
        }
      ],
      "name": "ApplicationSubmitted",
      "type": "event"
    },
    {
      "inputs": [],
      "name": "applicationCount",
      "outputs": [
        {
          "internalType": "uint256",
          "name": "",
          "type": "uint256"
        }
      ],
      "stateMutability": "view",
      "type": "function"
    },
    {
      "inputs": [
        {
          "internalType": "address",
          "name": "",
          "type": "address"
        }
      ],
      "name": "applications",
      "outputs": [
        {
          "internalType": "uint256",
          "name": "id",
          "type": "uint256"
        },
        {
          "internalType": "address",
          "name": "applicant",
          "type": "address"
        },
        {
          "internalType": "uint256",
          "name": "requestedAmount",
          "type": "uint256"
        },
        {
          "internalType": "string",
          "name": "mongoDbHash",
          "type": "string"
        },
        {
          "internalType": "string",
          "name": "status",
          "type": "string"
        }
      ],
      "stateMutability": "view",
      "type": "function"
    },
    {
      "inputs": [],
      "name": "owner",
      "outputs": [
        {
          "internalType": "address",
          "name": "",
          "type": "address"
        }
      ],
      "stateMutability": "view",
      "type": "function"
    },
    {
      "inputs": [
        {
          "internalType": "uint256",
          "name": "_requestedAmount",
          "type": "uint256"
        },
        {
          "internalType": "string",
          "name": "_mongoDbHash",
          "type": "string"
        }
      ],
      "name": "submitApplication",
      "outputs": [],
      "stateMutability": "nonpayable",
      "type": "function"
    },
    {
      "inputs": [
        {
          "internalType": "address",
          "name": "applicantAddress",
          "type": "address"
        },
        {
          "internalType": "string",
          "name": "_status",
          "type": "string"
        }
      ],
      "name": "updateApplicationStatus",
      "outputs": [],
      "stateMutability": "nonpayable",
      "type": "function"
    }
  ],
  "bytecode": "0x608060405234801561001057600080fd5b50336000806101000a81548173ffffffffffffffffffffffffffffffffffffffff021916908373ffffffffffffffffffffffffffffffffffffffff160217905550610ca9806100606000396000f3fe608060405234801561001057600080fd5b50600436106100575760003560e01c806309fd8d301461005c57806359e92f0d146100785780637c3bf42d146100945780638da5cb5b146100c8578063e2aad4a0146100e6575b600080fd5b6100766004803603810190610071919061079b565b610104565b005b610092600480360381019061008d9190610747565b6102a6565b005b6100ae60048036038101906100a9919061071e565b610459565b6040516100bf9594939291906109d0565b60405180910390f35b6100d06105bf565b6040516100dd91906108ec565b60405180910390f35b6100ee6105e3565b6040516100fb91906109b5565b60405180910390f35b6001600081548092919061011790610b5e565b91905055506040518060a0016040528060015481526020013373ffffffffffffffffffffffffffffffffffffffff1681526020018381526020018281526020016040518060400160405280600781526020017f50656e64696e6700000000000000000000000000000000000000000000000000815250815250600260003373ffffffffffffffffffffffffffffffffffffffff1673ffffffffffffffffffffffffffffffffffffffff1681526020019081526020016000206000820151816000015560208201518160010160006101000a81548173ffffffffffffffffffffffffffffffffffffffff021916908373ffffffffffffffffffffffffffffffffffffffff1602179055506040820151816002015560608201518160030190805190602001906102469291906105e9565b5060808201518160040190805190602001906102639291906105e9565b509050507f762a11ff8c02270f00d88e69a5e1391fa00f4fc48ea25856ea5a5f767689781033838360405161029a93929190610937565b60405180910390a15050565b60008054906101000a900473ffffffffffffffffffffffffffffffffffffffff1673ffffffffffffffffffffffffffffffffffffffff163373ffffffffffffffffffffffffffffffffffffffff1614610334576040517f08c379a000000000000000000000000000000000000000000000000000000000815260040161032b90610995565b60405180910390fd5b6000600260008473ffffffffffffffffffffffffffffffffffffffff1673ffffffffffffffffffffffffffffffffffffffff168152602001908152602001600020600401805461038390610b2c565b9050116103c5576040517f08c379a00000000000000000000000000000000000000000000000000000000081526004016103bc90610975565b60405180910390fd5b80600260008473ffffffffffffffffffffffffffffffffffffffff1673ffffffffffffffffffffffffffffffffffffffff168152602001908152602001600020600401908051906020019061041b9291906105e9565b507f6b8370452803eaf1fa33918779e2bcd9861a6c64c0d83fe62b899dfa16cd58d1828260405161044d929190610907565b60405180910390a15050565b60026020528060005260406000206000915090508060000154908060010160009054906101000a900473ffffffffffffffffffffffffffffffffffffffff16908060020154908060030180546104ae90610b2c565b80601f01602080910402602001604051908101604052809291908181526020018280546104da90610b2c565b80156105275780601f106104fc57610100808354040283529160200191610527565b820191906000526020600020905b81548152906001019060200180831161050a57829003601f168201915b50505050509080600401805461053c90610b2c565b80601f016020809104026020016040519081016040528092919081815260200182805461056890610b2c565b80156105b55780601f1061058a576101008083540402835291602001916105b5565b820191906000526020600020905b81548152906001019060200180831161059857829003601f168201915b5050505050905085565b60008054906101000a900473ffffffffffffffffffffffffffffffffffffffff1681565b60015481565b8280546105f590610b2c565b90600052602060002090601f016020900481019282610617576000855561065e565b82601f1061063057805160ff191683800117855561065e565b8280016001018555821561065e579182015b8281111561065d578251825591602001919060010190610642565b5b50905061066b919061066f565b5090565b5b80821115610688576000816000905550600101610670565b5090565b600061069f61069a84610a62565b610a31565b9050828152602081018484840111156106b757600080fd5b6106c2848285610aea565b509392505050565b6000813590506106d981610c45565b92915050565b600082601f8301126106f057600080fd5b813561070084826020860161068c565b91505092915050565b60008135905061071881610c5c565b92915050565b60006020828403121561073057600080fd5b600061073e848285016106ca565b91505092915050565b6000806040838503121561075a57600080fd5b6000610768858286016106ca565b925050602083013567ffffffffffffffff81111561078557600080fd5b610791858286016106df565b9150509250929050565b600080604083850312156107ae57600080fd5b60006107bc85828601610709565b925050602083013567ffffffffffffffff8111156107d957600080fd5b6107e5858286016106df565b9150509250929050565b6107f881610aae565b82525050565b600061080982610a92565b6108138185610a9d565b9350610823818560208601610af9565b61082c81610c34565b840191505092915050565b6000610844601a83610a9d565b91507f4170706c69636174696f6e20646f6573206e6f742065786973740000000000006000830152602082019050919050565b6000610884602283610a9d565b91507f4f6e6c79206f776e65722063616e20706572666f726d2074686973206163746960008301527f6f6e0000000000000000000000000000000000000000000000000000000000006020830152604082019050919050565b6108e681610ae0565b82525050565b600060208201905061090160008301846107ef565b92915050565b600060408201905061091c60008301856107ef565b818103602083015261092e81846107fe565b90509392505050565b600060608201905061094c60008301866107ef565b61095960208301856108dd565b818103604083015261096b81846107fe565b9050949350505050565b6000602082019050818103600083015261098e81610837565b9050919050565b600060208201905081810360008301526109ae81610877565b9050919050565b60006020820190506109ca60008301846108dd565b92915050565b600060a0820190506109e560008301886108dd565b6109f260208301876107ef565b6109ff60408301866108dd565b8181036060830152610a1181856107fe565b90508181036080830152610a2581846107fe565b90509695505050505050565b6000604051905081810181811067ffffffffffffffff82111715610a5857610a57610c05565b5b8060405250919050565b600067ffffffffffffffff821115610a7d57610a7c610c05565b5b601f19601f8301169050602081019050919050565b600081519050919050565b600082825260208201905092915050565b6000610ab982610ac0565b9050919050565b600073ffffffffffffffffffffffffffffffffffffffff82169050919050565b6000819050919050565b82818337600083830152505050565b60005b83811015610b17578082015181840152602081019050610afc565b83811115610b26576000848401525b50505050565b60006002820490506001821680610b4457607f821691505b60208210811415610b5857610b57610bd6565b5b50919050565b6000610b6982610ae0565b91507fffffffffffffffffffffffffffffffffffffffffffffffffffffffffffffffff821415610b9c57610b9b610ba7565b5b600182019050919050565b7f4e487b7100000000000000000000000000000000000000000000000000000000600052601160045260246000fd5b7f4e487b7100000000000000000000000000000000000000000000000000000000600052602260045260246000fd5b7f4e487b7100000000000000000000000000000000000000000000000000000000600052604160045260246000fd5b6000601f19601f8301169050919050565b610c4e81610aae565b8114610c5957600080fd5b50565b610c6581610ae0565b8114610c7057600080fd5b5056fea264697066735822122026389804eb26b84cdbbb022689f03057e14db4b8d710ce7988072908bb17042564736f6c63430008000033",
  "immutableReferences": {},
  "source": "// SPDX-License-Identifier: MIT\r\npragma solidity ^0.8.0;\r\n\r\ncontract ApplicationContract {\r\n    address public owner;\r\n    uint256 public applicationCount;\r\n\r\n    struct Application {\r\n        uint256 id;\r\n        address applicant;\r\n        uint256 requestedAmount;\r\n        string mongoDbHash;\r\n        string status;\r\n    }\r\n\r\n    mapping(address => Application) public applications;\r\n\r\n    event ApplicationSubmitted(address applicant, uint256 amount, string mongoDbHash);\r\n    event ApplicationStatusUpdated(address applicant, string status);\r\n\r\n    modifier onlyOwner() {\r\n        require(msg.sender == owner, \"Only owner can perform this action\");\r\n        _;\r\n    }\r\n\r\n    constructor() {\r\n        owner = msg.sender;\r\n    }\r\n\r\n    function submitApplication( uint256 _requestedAmount, string memory _mongoDbHash) external {\r\n        applicationCount++;\r\n        applications[msg.sender] = Application(applicationCount, msg.sender, _requestedAmount, _mongoDbHash, \"Pending\");\r\n        emit ApplicationSubmitted(msg.sender, _requestedAmount, _mongoDbHash);\r\n    }\r\n\r\n    function updateApplicationStatus(address applicantAddress, string memory _status) external onlyOwner {\r\n        require(bytes(applications[applicantAddress].status).length > 0, \"Application does not exist\");\r\n        applications[applicantAddress].status = _status;\r\n        emit ApplicationStatusUpdated(applicantAddress, _status);\r\n    }\r\n\r\n\r\n}\r\n",
  "sourcePath": "C:\\Users\\saritajoshi\\Documents\\559_Blockchain\\scholarship-proj\\contracts\\ApplicationContract.sol",
  "compiler": {
    "name": "solc",
    "version": "0.8.0+commit.c7dfd78e.Emscripten.clang"
  },
  "schemaVersion": "3.4.16",
  "updatedAt": "2024-11-14T10:07:29.935Z",
  "devdoc": {
    "kind": "dev",
    "methods": {},
    "version": 1
  },
  "userdoc": {
    "kind": "user",
    "methods": {},
    "version": 1
  }
}