{
  "contractName": "ApplicationContract",
  "abi": [
    {
      "inputs": [],
      "stateMutability": "nonpayable",
      "type": "constructor"
    },
    {
      "anonymous": false,
      "inputs": [
        {
          "indexed": false,
          "internalType": "uint256",
          "name": "id",
          "type": "uint256"
        },
        {
          "indexed": false,
          "internalType": "string",
          "name": "status",
          "type": "string"
        }
      ],
      "name": "ApplicationStatusUpdated",
      "type": "event"
    },
    {
      "anonymous": false,
      "inputs": [
        {
          "indexed": false,
          "internalType": "uint256",
          "name": "id",
          "type": "uint256"
        },
        {
          "indexed": false,
          "internalType": "address",
          "name": "applicant",
          "type": "address"
        },
        {
          "indexed": false,
          "internalType": "uint256",
          "name": "amount",
          "type": "uint256"
        },
        {
          "indexed": false,
          "internalType": "string",
          "name": "mongoDbHash",
          "type": "string"
        }
      ],
      "name": "ApplicationSubmitted",
      "type": "event"
    },
    {
      "inputs": [],
      "name": "applicationCount",
      "outputs": [
        {
          "internalType": "uint256",
          "name": "",
          "type": "uint256"
        }
      ],
      "stateMutability": "view",
      "type": "function"
    },
    {
      "inputs": [
        {
          "internalType": "uint256",
          "name": "",
          "type": "uint256"
        }
      ],
      "name": "applications",
      "outputs": [
        {
          "internalType": "uint256",
          "name": "id",
          "type": "uint256"
        },
        {
          "internalType": "address",
          "name": "applicant",
          "type": "address"
        },
        {
          "internalType": "uint256",
          "name": "requestedAmount",
          "type": "uint256"
        },
        {
          "internalType": "string",
          "name": "mongoDbHash",
          "type": "string"
        },
        {
          "internalType": "string",
          "name": "status",
          "type": "string"
        }
      ],
      "stateMutability": "view",
      "type": "function"
    },
    {
      "inputs": [],
      "name": "owner",
      "outputs": [
        {
          "internalType": "address",
          "name": "",
          "type": "address"
        }
      ],
      "stateMutability": "view",
      "type": "function"
    },
    {
      "inputs": [
        {
          "internalType": "uint256",
          "name": "_requestedAmount",
          "type": "uint256"
        },
        {
          "internalType": "string",
          "name": "_mongoDbHash",
          "type": "string"
        }
      ],
      "name": "submitApplication",
      "outputs": [],
      "stateMutability": "nonpayable",
      "type": "function"
    },
    {
      "inputs": [
        {
          "internalType": "uint256",
          "name": "_id",
          "type": "uint256"
        },
        {
          "internalType": "string",
          "name": "_status",
          "type": "string"
        }
      ],
      "name": "updateApplicationStatus",
      "outputs": [],
      "stateMutability": "nonpayable",
      "type": "function"
    }
  ],
  "bytecode": "0x608060405234801561001057600080fd5b50336000806101000a81548173ffffffffffffffffffffffffffffffffffffffff021916908373ffffffffffffffffffffffffffffffffffffffff160217905550610bb9806100606000396000f3fe608060405234801561001057600080fd5b50600436106100575760003560e01c806309fd8d301461005c5780638ad9cbd1146100785780638da5cb5b14610094578063dfefadff146100b2578063e2aad4a0146100e6575b600080fd5b610076600480360381019061007191906106b4565b610104565b005b610092600480360381019061008d91906106b4565b610280565b005b61009c6103db565b6040516100a99190610805565b60405180910390f35b6100cc60048036038101906100c7919061068b565b6103ff565b6040516100dd9594939291906108c7565b60405180910390f35b6100ee610565565b6040516100fb9190610860565b60405180910390f35b6001600081548092919061011790610a85565b91905055506040518060a0016040528060015481526020013373ffffffffffffffffffffffffffffffffffffffff1681526020018381526020018281526020016040518060400160405280600781526020017f50656e64696e67000000000000000000000000000000000000000000000000008152508152506002600060015481526020019081526020016000206000820151816000015560208201518160010160006101000a81548173ffffffffffffffffffffffffffffffffffffffff021916908373ffffffffffffffffffffffffffffffffffffffff16021790555060408201518160020155606082015181600301908051906020019061021c92919061056b565b50608082015181600401908051906020019061023992919061056b565b509050507fe4b8e969be7436f10cc5e8d346f485fe6b6438e59bc9c0a22c1606572ef3b009600154338484604051610274949392919061087b565b60405180910390a15050565b60008054906101000a900473ffffffffffffffffffffffffffffffffffffffff1673ffffffffffffffffffffffffffffffffffffffff163373ffffffffffffffffffffffffffffffffffffffff161461030e576040517f08c379a000000000000000000000000000000000000000000000000000000000815260040161030590610840565b60405180910390fd5b600060026000848152602001908152602001600020600401805461033190610a53565b905011610373576040517f08c379a000000000000000000000000000000000000000000000000000000000815260040161036a90610820565b60405180910390fd5b8060026000848152602001908152602001600020600401908051906020019061039d92919061056b565b507f982d2f50711b24245cf16c2aeb3f5f7b969553aa8d2b227e40edd3619f83fe5982826040516103cf929190610928565b60405180910390a15050565b60008054906101000a900473ffffffffffffffffffffffffffffffffffffffff1681565b60026020528060005260406000206000915090508060000154908060010160009054906101000a900473ffffffffffffffffffffffffffffffffffffffff169080600201549080600301805461045490610a53565b80601f016020809104026020016040519081016040528092919081815260200182805461048090610a53565b80156104cd5780601f106104a2576101008083540402835291602001916104cd565b820191906000526020600020905b8154815290600101906020018083116104b057829003601f168201915b5050505050908060040180546104e290610a53565b80601f016020809104026020016040519081016040528092919081815260200182805461050e90610a53565b801561055b5780601f106105305761010080835404028352916020019161055b565b820191906000526020600020905b81548152906001019060200180831161053e57829003601f168201915b5050505050905085565b60015481565b82805461057790610a53565b90600052602060002090601f01602090048101928261059957600085556105e0565b82601f106105b257805160ff19168380011785556105e0565b828001600101855582156105e0579182015b828111156105df5782518255916020019190600101906105c4565b5b5090506105ed91906105f1565b5090565b5b8082111561060a5760008160009055506001016105f2565b5090565b600061062161061c84610989565b610958565b90508281526020810184848401111561063957600080fd5b610644848285610a11565b509392505050565b600082601f83011261065d57600080fd5b813561066d84826020860161060e565b91505092915050565b60008135905061068581610b6c565b92915050565b60006020828403121561069d57600080fd5b60006106ab84828501610676565b91505092915050565b600080604083850312156106c757600080fd5b60006106d585828601610676565b925050602083013567ffffffffffffffff8111156106f257600080fd5b6106fe8582860161064c565b9150509250929050565b610711816109d5565b82525050565b6000610722826109b9565b61072c81856109c4565b935061073c818560208601610a20565b61074581610b5b565b840191505092915050565b600061075d601a836109c4565b91507f4170706c69636174696f6e20646f6573206e6f742065786973740000000000006000830152602082019050919050565b600061079d6022836109c4565b91507f4f6e6c79206f776e65722063616e20706572666f726d2074686973206163746960008301527f6f6e0000000000000000000000000000000000000000000000000000000000006020830152604082019050919050565b6107ff81610a07565b82525050565b600060208201905061081a6000830184610708565b92915050565b6000602082019050818103600083015261083981610750565b9050919050565b6000602082019050818103600083015261085981610790565b9050919050565b600060208201905061087560008301846107f6565b92915050565b600060808201905061089060008301876107f6565b61089d6020830186610708565b6108aa60408301856107f6565b81810360608301526108bc8184610717565b905095945050505050565b600060a0820190506108dc60008301886107f6565b6108e96020830187610708565b6108f660408301866107f6565b81810360608301526109088185610717565b9050818103608083015261091c8184610717565b90509695505050505050565b600060408201905061093d60008301856107f6565b818103602083015261094f8184610717565b90509392505050565b6000604051905081810181811067ffffffffffffffff8211171561097f5761097e610b2c565b5b8060405250919050565b600067ffffffffffffffff8211156109a4576109a3610b2c565b5b601f19601f8301169050602081019050919050565b600081519050919050565b600082825260208201905092915050565b60006109e0826109e7565b9050919050565b600073ffffffffffffffffffffffffffffffffffffffff82169050919050565b6000819050919050565b82818337600083830152505050565b60005b83811015610a3e578082015181840152602081019050610a23565b83811115610a4d576000848401525b50505050565b60006002820490506001821680610a6b57607f821691505b60208210811415610a7f57610a7e610afd565b5b50919050565b6000610a9082610a07565b91507fffffffffffffffffffffffffffffffffffffffffffffffffffffffffffffffff821415610ac357610ac2610ace565b5b600182019050919050565b7f4e487b7100000000000000000000000000000000000000000000000000000000600052601160045260246000fd5b7f4e487b7100000000000000000000000000000000000000000000000000000000600052602260045260246000fd5b7f4e487b7100000000000000000000000000000000000000000000000000000000600052604160045260246000fd5b6000601f19601f8301169050919050565b610b7581610a07565b8114610b8057600080fd5b5056fea2646970667358221220fc8e19d82d884d6bba19f9cdb5ce336df753dc08543d143c9a2b722e3c2b0ae664736f6c63430008000033",
  "immutableReferences": {},
  "source": "// SPDX-License-Identifier: MIT\r\npragma solidity ^0.8.0;\r\n\r\ncontract ApplicationContract {\r\n    address public owner;\r\n    uint256 public applicationCount;\r\n\r\n    struct Application {\r\n        uint256 id;\r\n        address applicant;\r\n        uint256 requestedAmount;\r\n        string mongoDbHash;\r\n        string status;\r\n    }\r\n\r\n    mapping(uint256 => Application) public applications;\r\n\r\n    event ApplicationSubmitted(uint256 id, address applicant, uint256 amount, string mongoDbHash);\r\n    event ApplicationStatusUpdated(uint256 id, string status);\r\n\r\n    modifier onlyOwner() {\r\n        require(msg.sender == owner, \"Only owner can perform this action\");\r\n        _;\r\n    }\r\n\r\n    constructor() {\r\n        owner = msg.sender;\r\n    }\r\n\r\n    function submitApplication(uint256 _requestedAmount, string memory _mongoDbHash) external {\r\n        applicationCount++;\r\n        applications[applicationCount] = Application(applicationCount, msg.sender, _requestedAmount, _mongoDbHash, \"Pending\");\r\n        emit ApplicationSubmitted(applicationCount, msg.sender, _requestedAmount, _mongoDbHash);\r\n    }\r\n\r\n    function updateApplicationStatus(uint256 _id, string memory _status) external onlyOwner {\r\n        require(bytes(applications[_id].status).length > 0, \"Application does not exist\");\r\n        applications[_id].status = _status;\r\n        emit ApplicationStatusUpdated(_id, _status);\r\n    }\r\n}\r\n",
  "sourcePath": "C:\\Users\\saritajoshi\\Documents\\559_Blockchain\\scholarship-proj\\contracts\\ApplicationContract.sol",
  "compiler": {
    "name": "solc",
    "version": "0.8.0+commit.c7dfd78e.Emscripten.clang"
  },
  "schemaVersion": "3.4.16",
  "updatedAt": "2024-11-13T01:58:31.606Z",
  "devdoc": {
    "kind": "dev",
    "methods": {},
    "version": 1
  },
  "userdoc": {
    "kind": "user",
    "methods": {},
    "version": 1
  }
}