{
  "contractName": "DisbursementContract",
  "abi": [
    {
      "inputs": [],
      "stateMutability": "nonpayable",
      "type": "constructor"
    },
    {
      "anonymous": false,
      "inputs": [
        {
          "indexed": false,
          "internalType": "address",
          "name": "applicantAddress",
          "type": "address"
        },
        {
          "indexed": false,
          "internalType": "address",
          "name": "recipient",
          "type": "address"
        },
        {
          "indexed": false,
          "internalType": "uint256",
          "name": "amount",
          "type": "uint256"
        }
      ],
      "name": "FundsDisbursed",
      "type": "event"
    },
    {
      "inputs": [],
      "name": "owner",
      "outputs": [
        {
          "internalType": "address",
          "name": "",
          "type": "address"
        }
      ],
      "stateMutability": "view",
      "type": "function"
    },
    {
      "stateMutability": "payable",
      "type": "receive"
    },
    {
      "inputs": [
        {
          "internalType": "address",
          "name": "applicantAddress",
          "type": "address"
        },
        {
          "internalType": "address payable",
          "name": "recipient",
          "type": "address"
        },
        {
          "internalType": "uint256",
          "name": "amount",
          "type": "uint256"
        }
      ],
      "name": "disburseFunds",
      "outputs": [],
      "stateMutability": "nonpayable",
      "type": "function"
    },
    {
      "inputs": [],
      "name": "getBalance",
      "outputs": [
        {
          "internalType": "uint256",
          "name": "",
          "type": "uint256"
        }
      ],
      "stateMutability": "view",
      "type": "function"
    }
  ],
  "bytecode": "0x608060405234801561001057600080fd5b50336000806101000a81548173ffffffffffffffffffffffffffffffffffffffff021916908373ffffffffffffffffffffffffffffffffffffffff16021790555061062e806100606000396000f3fe6080604052600436106100385760003560e01c806312065fe01461004457806363113d321461006f5780638da5cb5b146100985761003f565b3661003f57005b600080fd5b34801561005057600080fd5b506100596100c3565b6040516100669190610503565b60405180910390f35b34801561007b57600080fd5b50610096600480360381019061009191906102c9565b6100cb565b005b3480156100a457600080fd5b506100ad610266565b6040516100ba9190610451565b60405180910390f35b600047905090565b60008054906101000a900473ffffffffffffffffffffffffffffffffffffffff1673ffffffffffffffffffffffffffffffffffffffff163373ffffffffffffffffffffffffffffffffffffffff1614610159576040517f08c379a0000000000000000000000000000000000000000000000000000000008152600401610150906104e3565b60405180910390fd5b8047101561019c576040517f08c379a0000000000000000000000000000000000000000000000000000000008152600401610193906104c3565b60405180910390fd5b600081116101df576040517f08c379a00000000000000000000000000000000000000000000000000000000081526004016101d6906104a3565b60405180910390fd5b8173ffffffffffffffffffffffffffffffffffffffff166108fc829081150290604051600060405180830381858888f19350505050158015610225573d6000803e3d6000fd5b507f6cc5d9bba018eadc87833eb74f2df7224b84c3e6fe79dc66d3699ecf10e134f08383836040516102599392919061046c565b60405180910390a1505050565b60008054906101000a900473ffffffffffffffffffffffffffffffffffffffff1681565b600081359050610299816105b3565b92915050565b6000813590506102ae816105ca565b92915050565b6000813590506102c3816105e1565b92915050565b6000806000606084860312156102de57600080fd5b60006102ec8682870161028a565b93505060206102fd8682870161029f565b925050604061030e868287016102b4565b9150509250925092565b6103218161057d565b82525050565b6103308161052f565b82525050565b600061034360208361051e565b91507f416d6f756e74206d7573742062652067726561746572207468616e207a65726f6000830152602082019050919050565b600061038360258361051e565b91507f496e73756666696369656e742062616c616e636520666f72206469736275727360008301527f656d656e740000000000000000000000000000000000000000000000000000006020830152604082019050919050565b60006103e960228361051e565b91507f4f6e6c79206f776e65722063616e20706572666f726d2074686973206163746960008301527f6f6e0000000000000000000000000000000000000000000000000000000000006020830152604082019050919050565b61044b81610573565b82525050565b60006020820190506104666000830184610327565b92915050565b60006060820190506104816000830186610327565b61048e6020830185610318565b61049b6040830184610442565b949350505050565b600060208201905081810360008301526104bc81610336565b9050919050565b600060208201905081810360008301526104dc81610376565b9050919050565b600060208201905081810360008301526104fc816103dc565b9050919050565b60006020820190506105186000830184610442565b92915050565b600082825260208201905092915050565b600061053a82610553565b9050919050565b600061054c82610553565b9050919050565b600073ffffffffffffffffffffffffffffffffffffffff82169050919050565b6000819050919050565b60006105888261058f565b9050919050565b600061059a826105a1565b9050919050565b60006105ac82610553565b9050919050565b6105bc8161052f565b81146105c757600080fd5b50565b6105d381610541565b81146105de57600080fd5b50565b6105ea81610573565b81146105f557600080fd5b5056fea2646970667358221220cac7a5293edc1c60f6110e0f9513541fb5312745e4a1d73a0be2252fe159b25064736f6c63430008000033",
  "immutableReferences": {},
  "source": "// SPDX-License-Identifier: MIT\r\npragma solidity ^0.8.0;\r\n\r\ncontract DisbursementContract {\r\n    address public owner;\r\n\r\n    // Events\r\n    event FundsDisbursed(address applicantAddress, address recipient, uint256 amount);\r\n\r\n    modifier onlyOwner() {\r\n        require(msg.sender == owner, \"Only owner can perform this action\");\r\n        _;\r\n    }\r\n\r\n    constructor() {\r\n        owner = msg.sender;\r\n    }\r\n\r\n    // Function to disburse funds to approved applicants\r\n    function disburseFunds(address applicantAddress, address payable recipient, uint256 amount) external onlyOwner {\r\n        require(address(this).balance >= amount, \"Insufficient balance for disbursement\");\r\n        require(amount > 0, \"Amount must be greater than zero\");\r\n\r\n        recipient.transfer(amount);\r\n        emit FundsDisbursed(applicantAddress, recipient, amount);\r\n    }\r\n\r\n    // Function to allow the controller contract to deposit funds\r\n    receive() external payable {}\r\n\r\n    // Function to get the balance of the disbursement contract\r\n    function getBalance() external view returns (uint256) {\r\n        return address(this).balance;\r\n    }\r\n}\r\n",
  "sourcePath": "C:\\Users\\saritajoshi\\Documents\\559_Blockchain\\scholarship-proj\\contracts\\DisbursementContract.sol",
  "compiler": {
    "name": "solc",
    "version": "0.8.0+commit.c7dfd78e.Emscripten.clang"
  },
  "schemaVersion": "3.4.16",
  "updatedAt": "2024-11-14T10:07:29.949Z",
  "devdoc": {
    "kind": "dev",
    "methods": {},
    "version": 1
  },
  "userdoc": {
    "kind": "user",
    "methods": {},
    "version": 1
  }
}