{
  "contractName": "DisbursementContract",
  "abi": [
    {
      "inputs": [],
      "stateMutability": "nonpayable",
      "type": "constructor"
    },
    {
      "anonymous": false,
      "inputs": [
        {
          "indexed": false,
          "internalType": "uint256",
          "name": "applicationId",
          "type": "uint256"
        },
        {
          "indexed": false,
          "internalType": "address",
          "name": "recipient",
          "type": "address"
        },
        {
          "indexed": false,
          "internalType": "uint256",
          "name": "amount",
          "type": "uint256"
        }
      ],
      "name": "FundsDisbursed",
      "type": "event"
    },
    {
      "inputs": [],
      "name": "owner",
      "outputs": [
        {
          "internalType": "address",
          "name": "",
          "type": "address"
        }
      ],
      "stateMutability": "view",
      "type": "function"
    },
    {
      "stateMutability": "payable",
      "type": "receive"
    },
    {
      "inputs": [
        {
          "internalType": "uint256",
          "name": "applicationId",
          "type": "uint256"
        },
        {
          "internalType": "address payable",
          "name": "recipient",
          "type": "address"
        },
        {
          "internalType": "uint256",
          "name": "amount",
          "type": "uint256"
        }
      ],
      "name": "disburseFunds",
      "outputs": [],
      "stateMutability": "nonpayable",
      "type": "function"
    },
    {
      "inputs": [],
      "name": "getBalance",
      "outputs": [
        {
          "internalType": "uint256",
          "name": "",
          "type": "uint256"
        }
      ],
      "stateMutability": "view",
      "type": "function"
    }
  ],
  "bytecode": "0x608060405234801561001057600080fd5b50336000806101000a81548173ffffffffffffffffffffffffffffffffffffffff021916908373ffffffffffffffffffffffffffffffffffffffff160217905550610602806100606000396000f3fe6080604052600436106100385760003560e01c806312065fe0146100445780638da5cb5b1461006f578063acf2c6111461009a5761003f565b3661003f57005b600080fd5b34801561005057600080fd5b506100596100c3565b60405161006691906104b7565b60405180910390f35b34801561007b57600080fd5b506100846100cb565b604051610091919061043c565b60405180910390f35b3480156100a657600080fd5b506100c160048036038101906100bc91906102b4565b6100ef565b005b600047905090565b60008054906101000a900473ffffffffffffffffffffffffffffffffffffffff1681565b60008054906101000a900473ffffffffffffffffffffffffffffffffffffffff1673ffffffffffffffffffffffffffffffffffffffff163373ffffffffffffffffffffffffffffffffffffffff161461017d576040517f08c379a000000000000000000000000000000000000000000000000000000000815260040161017490610497565b60405180910390fd5b804710156101c0576040517f08c379a00000000000000000000000000000000000000000000000000000000081526004016101b790610477565b60405180910390fd5b60008111610203576040517f08c379a00000000000000000000000000000000000000000000000000000000081526004016101fa90610457565b60405180910390fd5b8173ffffffffffffffffffffffffffffffffffffffff166108fc829081150290604051600060405180830381858888f19350505050158015610249573d6000803e3d6000fd5b507feb2cd132972ac2f1b1b2806265483bfbe1a6c39df51e7a855c258ecd12fd1c4483838360405161027d939291906104d2565b60405180910390a1505050565b6000813590506102998161059e565b92915050565b6000813590506102ae816105b5565b92915050565b6000806000606084860312156102c957600080fd5b60006102d78682870161029f565b93505060206102e88682870161028a565b92505060406102f98682870161029f565b9150509250925092565b61030c81610568565b82525050565b61031b8161051a565b82525050565b600061032e602083610509565b91507f416d6f756e74206d7573742062652067726561746572207468616e207a65726f6000830152602082019050919050565b600061036e602583610509565b91507f496e73756666696369656e742062616c616e636520666f72206469736275727360008301527f656d656e740000000000000000000000000000000000000000000000000000006020830152604082019050919050565b60006103d4602283610509565b91507f4f6e6c79206f776e65722063616e20706572666f726d2074686973206163746960008301527f6f6e0000000000000000000000000000000000000000000000000000000000006020830152604082019050919050565b6104368161055e565b82525050565b60006020820190506104516000830184610312565b92915050565b6000602082019050818103600083015261047081610321565b9050919050565b6000602082019050818103600083015261049081610361565b9050919050565b600060208201905081810360008301526104b0816103c7565b9050919050565b60006020820190506104cc600083018461042d565b92915050565b60006060820190506104e7600083018661042d565b6104f46020830185610303565b610501604083018461042d565b949350505050565b600082825260208201905092915050565b60006105258261053e565b9050919050565b60006105378261053e565b9050919050565b600073ffffffffffffffffffffffffffffffffffffffff82169050919050565b6000819050919050565b60006105738261057a565b9050919050565b60006105858261058c565b9050919050565b60006105978261053e565b9050919050565b6105a78161052c565b81146105b257600080fd5b50565b6105be8161055e565b81146105c957600080fd5b5056fea2646970667358221220dd90f4d5cd1ce683f94579cfacbd65769f2fe403814ec02914b2310703ebc0ff64736f6c63430008000033",
  "immutableReferences": {},
  "source": "// SPDX-License-Identifier: MIT\r\npragma solidity ^0.8.0;\r\n\r\ncontract DisbursementContract {\r\n    address public owner;\r\n\r\n    // Events\r\n    event FundsDisbursed(uint256 applicationId, address recipient, uint256 amount);\r\n\r\n    modifier onlyOwner() {\r\n        require(msg.sender == owner, \"Only owner can perform this action\");\r\n        _;\r\n    }\r\n\r\n    constructor() {\r\n        owner = msg.sender;\r\n    }\r\n\r\n    // Function to disburse funds to approved applicants\r\n    function disburseFunds(uint256 applicationId, address payable recipient, uint256 amount) external onlyOwner {\r\n        require(address(this).balance >= amount, \"Insufficient balance for disbursement\");\r\n        require(amount > 0, \"Amount must be greater than zero\");\r\n\r\n        recipient.transfer(amount);\r\n        emit FundsDisbursed(applicationId, recipient, amount);\r\n    }\r\n\r\n    // Function to allow the controller contract to deposit funds\r\n    receive() external payable {}\r\n\r\n    // Function to get the balance of the disbursement contract\r\n    function getBalance() external view returns (uint256) {\r\n        return address(this).balance;\r\n    }\r\n}\r\n",
  "sourcePath": "C:\\Users\\saritajoshi\\Documents\\559_Blockchain\\scholarship-proj\\contracts\\DisbursementContract.sol",
  "compiler": {
    "name": "solc",
    "version": "0.8.0+commit.c7dfd78e.Emscripten.clang"
  },
  "schemaVersion": "3.4.16",
  "updatedAt": "2024-11-13T01:58:31.610Z",
  "devdoc": {
    "kind": "dev",
    "methods": {},
    "version": 1
  },
  "userdoc": {
    "kind": "user",
    "methods": {},
    "version": 1
  }
}