{
  "contractName": "DisbursementContract",
  "abi": [
    {
      "inputs": [],
      "stateMutability": "nonpayable",
      "type": "constructor"
    },
    {
      "inputs": [],
      "name": "owner",
      "outputs": [
        {
          "internalType": "address",
          "name": "",
          "type": "address"
        }
      ],
      "stateMutability": "view",
      "type": "function"
    },
    {
      "stateMutability": "payable",
      "type": "receive"
    },
    {
      "inputs": [
        {
          "internalType": "address payable",
          "name": "recipient",
          "type": "address"
        },
        {
          "internalType": "uint256",
          "name": "amount",
          "type": "uint256"
        }
      ],
      "name": "disburseFunds",
      "outputs": [],
      "stateMutability": "nonpayable",
      "type": "function"
    },
    {
      "inputs": [],
      "name": "getBalance",
      "outputs": [
        {
          "internalType": "uint256",
          "name": "",
          "type": "uint256"
        }
      ],
      "stateMutability": "view",
      "type": "function"
    }
  ],
  "bytecode": "0x608060405234801561001057600080fd5b50336000806101000a81548173ffffffffffffffffffffffffffffffffffffffff021916908373ffffffffffffffffffffffffffffffffffffffff160217905550610537806100606000396000f3fe6080604052600436106100385760003560e01c806312065fe0146100445780638da5cb5b1461006f578063ad48e2a21461009a5761003f565b3661003f57005b600080fd5b34801561005057600080fd5b506100596100c3565b6040516100669190610459565b60405180910390f35b34801561007b57600080fd5b506100846100cb565b60405161009191906103de565b60405180910390f35b3480156100a657600080fd5b506100c160048036038101906100bc9190610278565b6100ef565b005b600047905090565b60008054906101000a900473ffffffffffffffffffffffffffffffffffffffff1681565b60008054906101000a900473ffffffffffffffffffffffffffffffffffffffff1673ffffffffffffffffffffffffffffffffffffffff163373ffffffffffffffffffffffffffffffffffffffff161461017d576040517f08c379a000000000000000000000000000000000000000000000000000000000815260040161017490610439565b60405180910390fd5b804710156101c0576040517f08c379a00000000000000000000000000000000000000000000000000000000081526004016101b790610419565b60405180910390fd5b60008111610203576040517f08c379a00000000000000000000000000000000000000000000000000000000081526004016101fa906103f9565b60405180910390fd5b8173ffffffffffffffffffffffffffffffffffffffff166108fc829081150290604051600060405180830381858888f19350505050158015610249573d6000803e3d6000fd5b505050565b60008135905061025d816104d3565b92915050565b600081359050610272816104ea565b92915050565b6000806040838503121561028b57600080fd5b60006102998582860161024e565b92505060206102aa85828601610263565b9150509250929050565b6102bd81610485565b82525050565b60006102d0602083610474565b91507f416d6f756e74206d7573742062652067726561746572207468616e207a65726f6000830152602082019050919050565b6000610310602583610474565b91507f496e73756666696369656e742062616c616e636520666f72206469736275727360008301527f656d656e740000000000000000000000000000000000000000000000000000006020830152604082019050919050565b6000610376602283610474565b91507f4f6e6c79206f776e65722063616e20706572666f726d2074686973206163746960008301527f6f6e0000000000000000000000000000000000000000000000000000000000006020830152604082019050919050565b6103d8816104c9565b82525050565b60006020820190506103f360008301846102b4565b92915050565b60006020820190508181036000830152610412816102c3565b9050919050565b6000602082019050818103600083015261043281610303565b9050919050565b6000602082019050818103600083015261045281610369565b9050919050565b600060208201905061046e60008301846103cf565b92915050565b600082825260208201905092915050565b6000610490826104a9565b9050919050565b60006104a2826104a9565b9050919050565b600073ffffffffffffffffffffffffffffffffffffffff82169050919050565b6000819050919050565b6104dc81610497565b81146104e757600080fd5b50565b6104f3816104c9565b81146104fe57600080fd5b5056fea26469706673582212207f3a3b054426bcbd6568d69388d232218ed66208e9af6ec28756b5258822de9364736f6c63430008000033",
  "immutableReferences": {},
  "source": "// SPDX-License-Identifier: MIT\r\npragma solidity ^0.8.0;\r\n\r\ncontract DisbursementContract {\r\n    address public owner;\r\n\r\n    modifier onlyOwner() {\r\n        require(msg.sender == owner, \"Only owner can perform this action\");\r\n        _;\r\n    }\r\n\r\n    constructor() {\r\n        owner = msg.sender;\r\n    }\r\n\r\n    // Function to disburse funds to approved applicants\r\n    function disburseFunds(address payable recipient, uint256 amount) external onlyOwner {\r\n        require(address(this).balance >= amount, \"Insufficient balance for disbursement\");\r\n        require(amount > 0, \"Amount must be greater than zero\");\r\n\r\n        recipient.transfer(amount);\r\n        //emit FundsDisbursed(applicationId, recipient, amount);\r\n    }\r\n\r\n    // Function to allow the controller contract to deposit funds\r\n    receive() external payable {}\r\n\r\n    // Function to get the balance of the disbursement contract\r\n    function getBalance() external view returns (uint256) {\r\n        return address(this).balance;\r\n    }\r\n}",
  "sourcePath": "C:\\Users\\saritajoshi\\Documents\\559_Blockchain\\scholarship-proj\\contracts\\DisbursementContract.sol",
  "compiler": {
    "name": "solc",
    "version": "0.8.0+commit.c7dfd78e.Emscripten.clang"
  },
  "schemaVersion": "3.4.16",
  "updatedAt": "2024-11-14T20:20:17.261Z",
  "devdoc": {
    "kind": "dev",
    "methods": {},
    "version": 1
  },
  "userdoc": {
    "kind": "user",
    "methods": {},
    "version": 1
  }
}