{
  "contractName": "DonationContract",
  "abi": [
    {
      "inputs": [],
      "stateMutability": "nonpayable",
      "type": "constructor"
    },
    {
      "inputs": [],
      "name": "owner",
      "outputs": [
        {
          "internalType": "address",
          "name": "",
          "type": "address"
        }
      ],
      "stateMutability": "view",
      "type": "function"
    },
    {
      "inputs": [],
      "name": "totalDonations",
      "outputs": [
        {
          "internalType": "uint256",
          "name": "",
          "type": "uint256"
        }
      ],
      "stateMutability": "view",
      "type": "function"
    },
    {
      "inputs": [],
      "name": "donate",
      "outputs": [],
      "stateMutability": "payable",
      "type": "function"
    },
    {
      "inputs": [],
      "name": "getTotalDonations",
      "outputs": [
        {
          "internalType": "uint256",
          "name": "",
          "type": "uint256"
        }
      ],
      "stateMutability": "view",
      "type": "function"
    }
  ],
  "bytecode": "0x608060405234801561001057600080fd5b50336000806101000a81548173ffffffffffffffffffffffffffffffffffffffff021916908373ffffffffffffffffffffffffffffffffffffffff160217905550610343806100606000396000f3fe60806040526004361061003f5760003560e01c8063777c658f146100445780638da5cb5b1461006f578063de2ed8931461009a578063ed88c68e146100c5575b600080fd5b34801561005057600080fd5b506100596100cf565b6040516100669190610220565b60405180910390f35b34801561007b57600080fd5b506100846100d9565b60405161009191906101e5565b60405180910390f35b3480156100a657600080fd5b506100af6100fd565b6040516100bc9190610220565b60405180910390f35b6100cd610103565b005b6000600154905090565b60008054906101000a900473ffffffffffffffffffffffffffffffffffffffff1681565b60015481565b60003411610146576040517f08c379a000000000000000000000000000000000000000000000000000000000815260040161013d90610200565b60405180910390fd5b3460016000828254610158919061024c565b92505081905550565b61016a816102a2565b82525050565b600061017d60228361023b565b91507f446f6e6174696f6e206d7573742062652067726561746572207468616e207a6560008301527f726f0000000000000000000000000000000000000000000000000000000000006020830152604082019050919050565b6101df816102d4565b82525050565b60006020820190506101fa6000830184610161565b92915050565b6000602082019050818103600083015261021981610170565b9050919050565b600060208201905061023560008301846101d6565b92915050565b600082825260208201905092915050565b6000610257826102d4565b9150610262836102d4565b9250827fffffffffffffffffffffffffffffffffffffffffffffffffffffffffffffffff03821115610297576102966102de565b5b828201905092915050565b60006102ad826102b4565b9050919050565b600073ffffffffffffffffffffffffffffffffffffffff82169050919050565b6000819050919050565b7f4e487b7100000000000000000000000000000000000000000000000000000000600052601160045260246000fdfea26469706673582212206b698846d5d4c9a71e9c837a15dfa15bebdf81ba94767c47c804150880f1373c64736f6c63430008000033",
  "immutableReferences": {},
  "source": "// SPDX-License-Identifier: MIT\r\npragma solidity ^0.8.0;\r\n\r\ncontract DonationContract {\r\n    address public owner;\r\n    uint256 public totalDonations;\r\n\r\n    modifier onlyOwner() {\r\n        require(msg.sender == owner, \"Only owner can perform this action\");\r\n        _;\r\n    }\r\n\r\n    constructor() {\r\n        owner = msg.sender;\r\n    }\r\n\r\n    function donate() external payable {\r\n        require(msg.value > 0, \"Donation must be greater than zero\");\r\n        totalDonations += msg.value;\r\n        \r\n    }\r\n\r\n    function getTotalDonations() external view returns (uint256) {\r\n        return totalDonations;\r\n    }\r\n}\r\n",
  "sourcePath": "C:\\Users\\saritajoshi\\Documents\\559_Blockchain\\scholarship-proj\\contracts\\DonationContract.sol",
  "compiler": {
    "name": "solc",
    "version": "0.8.0+commit.c7dfd78e.Emscripten.clang"
  },
  "schemaVersion": "3.4.16",
  "updatedAt": "2024-11-14T20:20:17.263Z",
  "devdoc": {
    "kind": "dev",
    "methods": {},
    "version": 1
  },
  "userdoc": {
    "kind": "user",
    "methods": {},
    "version": 1
  }
}