{
  "contractName": "DonationContract",
  "abi": [
    {
      "inputs": [],
      "stateMutability": "nonpayable",
      "type": "constructor"
    },
    {
      "anonymous": false,
      "inputs": [
        {
          "indexed": false,
          "internalType": "address",
          "name": "donor",
          "type": "address"
        },
        {
          "indexed": false,
          "internalType": "uint256",
          "name": "amount",
          "type": "uint256"
        }
      ],
      "name": "DonationReceived",
      "type": "event"
    },
    {
      "inputs": [],
      "name": "owner",
      "outputs": [
        {
          "internalType": "address",
          "name": "",
          "type": "address"
        }
      ],
      "stateMutability": "view",
      "type": "function"
    },
    {
      "inputs": [],
      "name": "totalDonations",
      "outputs": [
        {
          "internalType": "uint256",
          "name": "",
          "type": "uint256"
        }
      ],
      "stateMutability": "view",
      "type": "function"
    },
    {
      "inputs": [],
      "name": "donate",
      "outputs": [],
      "stateMutability": "payable",
      "type": "function"
    },
    {
      "inputs": [],
      "name": "getTotalDonations",
      "outputs": [
        {
          "internalType": "uint256",
          "name": "",
          "type": "uint256"
        }
      ],
      "stateMutability": "view",
      "type": "function"
    }
  ],
  "bytecode": "0x608060405234801561001057600080fd5b50336000806101000a81548173ffffffffffffffffffffffffffffffffffffffff021916908373ffffffffffffffffffffffffffffffffffffffff1602179055506103a5806100606000396000f3fe60806040526004361061003f5760003560e01c8063777c658f146100445780638da5cb5b1461006f578063de2ed8931461009a578063ed88c68e146100c5575b600080fd5b34801561005057600080fd5b506100596100cf565b6040516100669190610282565b60405180910390f35b34801561007b57600080fd5b506100846100d9565b604051610091919061021e565b60405180910390f35b3480156100a657600080fd5b506100af6100fd565b6040516100bc9190610282565b60405180910390f35b6100cd610103565b005b6000600154905090565b60008054906101000a900473ffffffffffffffffffffffffffffffffffffffff1681565b60015481565b60003411610146576040517f08c379a000000000000000000000000000000000000000000000000000000000815260040161013d90610262565b60405180910390fd5b346001600082825461015891906102ae565b925050819055507f264f630d9efa0d07053a31163641d9fcc0adafc9d9e76f1c37c2ce3a558d2c523334604051610190929190610239565b60405180910390a1565b6101a381610304565b82525050565b60006101b660228361029d565b91507f446f6e6174696f6e206d7573742062652067726561746572207468616e207a6560008301527f726f0000000000000000000000000000000000000000000000000000000000006020830152604082019050919050565b61021881610336565b82525050565b6000602082019050610233600083018461019a565b92915050565b600060408201905061024e600083018561019a565b61025b602083018461020f565b9392505050565b6000602082019050818103600083015261027b816101a9565b9050919050565b6000602082019050610297600083018461020f565b92915050565b600082825260208201905092915050565b60006102b982610336565b91506102c483610336565b9250827fffffffffffffffffffffffffffffffffffffffffffffffffffffffffffffffff038211156102f9576102f8610340565b5b828201905092915050565b600061030f82610316565b9050919050565b600073ffffffffffffffffffffffffffffffffffffffff82169050919050565b6000819050919050565b7f4e487b7100000000000000000000000000000000000000000000000000000000600052601160045260246000fdfea2646970667358221220b37bf5c8b56fc92df404663e0e27e384a93c3f5844e43d1be9d66fe7dc40049964736f6c63430008000033",
  "immutableReferences": {},
  "source": "// SPDX-License-Identifier: MIT\r\npragma solidity ^0.8.0;\r\n\r\ncontract DonationContract {\r\n    address public owner;\r\n    uint256 public totalDonations;\r\n\r\n    event DonationReceived(address donor, uint256 amount);\r\n\r\n    modifier onlyOwner() {\r\n        require(msg.sender == owner, \"Only owner can perform this action\");\r\n        _;\r\n    }\r\n\r\n    constructor() {\r\n        owner = msg.sender;\r\n    }\r\n\r\n    function donate() external payable {\r\n        require(msg.value > 0, \"Donation must be greater than zero\");\r\n        totalDonations += msg.value;\r\n        emit DonationReceived(msg.sender, msg.value);\r\n    }\r\n\r\n    function getTotalDonations() external view returns (uint256) {\r\n        return totalDonations;\r\n    }\r\n}\r\n",
  "sourcePath": "C:\\Users\\saritajoshi\\Documents\\559_Blockchain\\scholarship-proj\\contracts\\DonationContract.sol",
  "compiler": {
    "name": "solc",
    "version": "0.8.0+commit.c7dfd78e.Emscripten.clang"
  },
  "schemaVersion": "3.4.16",
  "updatedAt": "2024-11-14T10:07:29.952Z",
  "devdoc": {
    "kind": "dev",
    "methods": {},
    "version": 1
  },
  "userdoc": {
    "kind": "user",
    "methods": {},
    "version": 1
  }
}