{
  "contractName": "ScholarshipFund",
  "abi": [
    {
      "inputs": [
        {
          "internalType": "address",
          "name": "initialStablecoinAddress",
          "type": "address"
        }
      ],
      "stateMutability": "nonpayable",
      "type": "constructor"
    },
    {
      "anonymous": false,
      "inputs": [
        {
          "indexed": false,
          "internalType": "uint256",
          "name": "appID",
          "type": "uint256"
        },
        {
          "indexed": false,
          "internalType": "uint256",
          "name": "approvalCount",
          "type": "uint256"
        }
      ],
      "name": "ApplicationApproved",
      "type": "event"
    },
    {
      "anonymous": false,
      "inputs": [
        {
          "indexed": false,
          "internalType": "uint256",
          "name": "appID",
          "type": "uint256"
        },
        {
          "indexed": false,
          "internalType": "uint256",
          "name": "fundID",
          "type": "uint256"
        },
        {
          "indexed": false,
          "internalType": "address",
          "name": "applicant",
          "type": "address"
        }
      ],
      "name": "ApplicationSubmitted",
      "type": "event"
    },
    {
      "anonymous": false,
      "inputs": [
        {
          "indexed": false,
          "internalType": "uint256",
          "name": "fundID",
          "type": "uint256"
        },
        {
          "indexed": false,
          "internalType": "address",
          "name": "donor",
          "type": "address"
        },
        {
          "indexed": false,
          "internalType": "uint256",
          "name": "amount",
          "type": "uint256"
        }
      ],
      "name": "DonationReceived",
      "type": "event"
    },
    {
      "anonymous": false,
      "inputs": [
        {
          "indexed": false,
          "internalType": "uint256",
          "name": "fundID",
          "type": "uint256"
        },
        {
          "indexed": false,
          "internalType": "string",
          "name": "name",
          "type": "string"
        },
        {
          "indexed": false,
          "internalType": "address",
          "name": "owner",
          "type": "address"
        }
      ],
      "name": "FundCreated",
      "type": "event"
    },
    {
      "anonymous": false,
      "inputs": [
        {
          "indexed": false,
          "internalType": "uint256",
          "name": "appID",
          "type": "uint256"
        },
        {
          "indexed": false,
          "internalType": "address",
          "name": "applicant",
          "type": "address"
        },
        {
          "indexed": false,
          "internalType": "uint256",
          "name": "amount",
          "type": "uint256"
        }
      ],
      "name": "FundsDisbursed",
      "type": "event"
    },
    {
      "anonymous": false,
      "inputs": [
        {
          "indexed": false,
          "internalType": "address",
          "name": "oldAddress",
          "type": "address"
        },
        {
          "indexed": false,
          "internalType": "address",
          "name": "newAddress",
          "type": "address"
        }
      ],
      "name": "StablecoinUpdated",
      "type": "event"
    },
    {
      "inputs": [
        {
          "internalType": "uint256",
          "name": "",
          "type": "uint256"
        },
        {
          "internalType": "address",
          "name": "",
          "type": "address"
        }
      ],
      "name": "applicationApprovals",
      "outputs": [
        {
          "internalType": "bool",
          "name": "",
          "type": "bool"
        }
      ],
      "stateMutability": "view",
      "type": "function",
      "constant": true
    },
    {
      "inputs": [
        {
          "internalType": "uint256",
          "name": "",
          "type": "uint256"
        }
      ],
      "name": "applications",
      "outputs": [
        {
          "internalType": "uint256",
          "name": "id",
          "type": "uint256"
        },
        {
          "internalType": "uint256",
          "name": "fundID",
          "type": "uint256"
        },
        {
          "internalType": "address",
          "name": "applicant",
          "type": "address"
        },
        {
          "internalType": "uint256",
          "name": "requestedAmount",
          "type": "uint256"
        },
        {
          "internalType": "uint256",
          "name": "approvalCount",
          "type": "uint256"
        },
        {
          "internalType": "string",
          "name": "mongoDbHash",
          "type": "string"
        },
        {
          "internalType": "bool",
          "name": "funded",
          "type": "bool"
        }
      ],
      "stateMutability": "view",
      "type": "function",
      "constant": true
    },
    {
      "inputs": [
        {
          "internalType": "uint256",
          "name": "",
          "type": "uint256"
        }
      ],
      "name": "funds",
      "outputs": [
        {
          "internalType": "uint256",
          "name": "id",
          "type": "uint256"
        },
        {
          "internalType": "address",
          "name": "owner",
          "type": "address"
        },
        {
          "internalType": "string",
          "name": "name",
          "type": "string"
        },
        {
          "internalType": "uint256",
          "name": "minRequestAmount",
          "type": "uint256"
        },
        {
          "internalType": "uint256",
          "name": "maxRequestAmount",
          "type": "uint256"
        },
        {
          "internalType": "string",
          "name": "criteriaHash",
          "type": "string"
        },
        {
          "internalType": "uint256",
          "name": "minApprovals",
          "type": "uint256"
        },
        {
          "internalType": "uint256",
          "name": "balance",
          "type": "uint256"
        }
      ],
      "stateMutability": "view",
      "type": "function",
      "constant": true
    },
    {
      "inputs": [],
      "name": "nextApplicationID",
      "outputs": [
        {
          "internalType": "uint256",
          "name": "",
          "type": "uint256"
        }
      ],
      "stateMutability": "view",
      "type": "function",
      "constant": true
    },
    {
      "inputs": [],
      "name": "nextFundID",
      "outputs": [
        {
          "internalType": "uint256",
          "name": "",
          "type": "uint256"
        }
      ],
      "stateMutability": "view",
      "type": "function",
      "constant": true
    },
    {
      "inputs": [],
      "name": "owner",
      "outputs": [
        {
          "internalType": "address",
          "name": "",
          "type": "address"
        }
      ],
      "stateMutability": "view",
      "type": "function",
      "constant": true
    },
    {
      "inputs": [],
      "name": "stablecoin",
      "outputs": [
        {
          "internalType": "contract IERC20",
          "name": "",
          "type": "address"
        }
      ],
      "stateMutability": "view",
      "type": "function",
      "constant": true
    },
    {
      "inputs": [
        {
          "internalType": "address",
          "name": "newStablecoinAddress",
          "type": "address"
        }
      ],
      "name": "setStablecoin",
      "outputs": [],
      "stateMutability": "nonpayable",
      "type": "function"
    },
    {
      "inputs": [
        {
          "internalType": "string",
          "name": "name",
          "type": "string"
        },
        {
          "internalType": "uint256",
          "name": "minRequestAmount",
          "type": "uint256"
        },
        {
          "internalType": "uint256",
          "name": "maxRequestAmount",
          "type": "uint256"
        },
        {
          "internalType": "string",
          "name": "criteriaHash",
          "type": "string"
        },
        {
          "internalType": "uint256",
          "name": "minApprovals",
          "type": "uint256"
        }
      ],
      "name": "createFund",
      "outputs": [],
      "stateMutability": "nonpayable",
      "type": "function"
    },
    {
      "inputs": [
        {
          "internalType": "uint256",
          "name": "fundID",
          "type": "uint256"
        },
        {
          "internalType": "uint256",
          "name": "amount",
          "type": "uint256"
        }
      ],
      "name": "donateToFund",
      "outputs": [],
      "stateMutability": "nonpayable",
      "type": "function"
    },
    {
      "inputs": [
        {
          "internalType": "uint256",
          "name": "fundID",
          "type": "uint256"
        },
        {
          "internalType": "uint256",
          "name": "requestedAmount",
          "type": "uint256"
        },
        {
          "internalType": "string",
          "name": "mongoDbHash",
          "type": "string"
        }
      ],
      "name": "submitApplication",
      "outputs": [],
      "stateMutability": "nonpayable",
      "type": "function"
    },
    {
      "inputs": [
        {
          "internalType": "uint256",
          "name": "appID",
          "type": "uint256"
        }
      ],
      "name": "approveApplication",
      "outputs": [],
      "stateMutability": "nonpayable",
      "type": "function"
    },
    {
      "inputs": [
        {
          "internalType": "uint256",
          "name": "appID",
          "type": "uint256"
        }
      ],
      "name": "disburseFunds",
      "outputs": [],
      "stateMutability": "nonpayable",
      "type": "function"
    },
    {
      "inputs": [],
      "name": "getContractBalance",
      "outputs": [
        {
          "internalType": "uint256",
          "name": "",
          "type": "uint256"
        }
      ],
      "stateMutability": "view",
      "type": "function",
      "constant": true
    },
    {
      "inputs": [
        {
          "internalType": "uint256",
          "name": "fundID",
          "type": "uint256"
        }
      ],
      "name": "getFundBalance",
      "outputs": [
        {
          "internalType": "uint256",
          "name": "",
          "type": "uint256"
        }
      ],
      "stateMutability": "view",
      "type": "function",
      "constant": true
    }
  ],
  "bytecode": "0x60806040523480156200001157600080fd5b50604051620025c4380380620025c48339818101604052810190620000379190620000d6565b336000806101000a81548173ffffffffffffffffffffffffffffffffffffffff021916908373ffffffffffffffffffffffffffffffffffffffff16021790555080600160006101000a81548173ffffffffffffffffffffffffffffffffffffffff021916908373ffffffffffffffffffffffffffffffffffffffff1602179055505062000150565b600081519050620000d08162000136565b92915050565b600060208284031215620000e957600080fd5b6000620000f984828501620000bf565b91505092915050565b60006200010f8262000116565b9050919050565b600073ffffffffffffffffffffffffffffffffffffffff82169050919050565b620001418162000102565b81146200014d57600080fd5b50565b61246480620001606000396000f3fe608060405234801561001057600080fd5b50600436106100f55760003560e01c8063a030049e11610097578063dfefadff11610066578063dfefadff14610277578063e088bfc0146102ad578063e9cbd822146102c9578063fde60b72146102e7576100f5565b8063a030049e14610205578063cc212a4814610221578063cef5db371461023d578063dc65e64914610259576100f5565b80637b8e8895116100d35780637b8e8895146101645780638da5cb5b1461019b57806396413b62146101b95780639ef78c66146101e9576100f5565b80630a939cf9146100fa578063213fbf1b1461012a5780636f9fb98a14610146575b600080fd5b610114600480360381019061010f9190611723565b610305565b6040516101219190611d33565b60405180910390f35b610144600480360381019061013f91906116d1565b610334565b005b61014e610593565b60405161015b9190611f29565b60405180910390f35b61017e600480360381019061017991906116d1565b610645565b604051610192989796959493929190611f44565b60405180910390f35b6101a36107bd565b6040516101b09190611c8f565b60405180910390f35b6101d360048036038101906101ce91906116d1565b6107e1565b6040516101e09190611f29565b60405180910390f35b61020360048036038101906101fe919061179b565b61085b565b005b61021f600480360381019061021a919061175f565b610a91565b005b61023b600480360381019061023691906116d1565b610c90565b005b6102576004803603810190610252919061162a565b610ff6565b005b6102616111b3565b60405161026e9190611f29565b60405180910390f35b610291600480360381019061028c91906116d1565b6111b9565b6040516102a497969594939291906120a5565b60405180910390f35b6102c760048036038101906102c291906115d8565b6112b0565b005b6102d161144d565b6040516102de9190611d4e565b60405180910390f35b6102ef611473565b6040516102fc9190611f29565b60405180910390f35b60066020528160005260406000206020528060005260406000206000915091509054906101000a900460ff1681565b6000600560008381526020019081526020016000209050600073ffffffffffffffffffffffffffffffffffffffff168160020160009054906101000a900473ffffffffffffffffffffffffffffffffffffffff1673ffffffffffffffffffffffffffffffffffffffff1614156103df576040517f08c379a00000000000000000000000000000000000000000000000000000000081526004016103d690611e89565b60405180910390fd5b8060060160009054906101000a900460ff1615610431576040517f08c379a000000000000000000000000000000000000000000000000000000000815260040161042890611dc9565b60405180910390fd5b6006600083815260200190815260200160002060003373ffffffffffffffffffffffffffffffffffffffff1673ffffffffffffffffffffffffffffffffffffffff16815260200190815260200160002060009054906101000a900460ff16156104cf576040517f08c379a00000000000000000000000000000000000000000000000000000000081526004016104c690611ec9565b60405180910390fd5b60016006600084815260200190815260200160002060003373ffffffffffffffffffffffffffffffffffffffff1673ffffffffffffffffffffffffffffffffffffffff16815260200190815260200160002060006101000a81548160ff02191690831515021790555080600401600081548092919061054d90612302565b91905055507f78f3121a185c4677197e2ae349e0392a0f6eea59cfc6fd185856433cdd86db28828260040154604051610587929190612045565b60405180910390a15050565b6000600160009054906101000a900473ffffffffffffffffffffffffffffffffffffffff1673ffffffffffffffffffffffffffffffffffffffff166370a08231306040518263ffffffff1660e01b81526004016105f09190611c8f565b60206040518083038186803b15801561060857600080fd5b505afa15801561061c573d6000803e3d6000fd5b505050506040513d601f19601f8201168201806040525081019061064091906116fa565b905090565b60046020528060005260406000206000915090508060000154908060010160009054906101000a900473ffffffffffffffffffffffffffffffffffffffff1690806002018054610694906122d0565b80601f01602080910402602001604051908101604052809291908181526020018280546106c0906122d0565b801561070d5780601f106106e25761010080835404028352916020019161070d565b820191906000526020600020905b8154815290600101906020018083116106f057829003601f168201915b50505050509080600301549080600401549080600501805461072e906122d0565b80601f016020809104026020016040519081016040528092919081815260200182805461075a906122d0565b80156107a75780601f1061077c576101008083540402835291602001916107a7565b820191906000526020600020905b81548152906001019060200180831161078a57829003601f168201915b5050505050908060060154908060070154905088565b60008054906101000a900473ffffffffffffffffffffffffffffffffffffffff1681565b6000818060046000838152602001908152602001600020600001541461083c576040517f08c379a000000000000000000000000000000000000000000000000000000000815260040161083390611d69565b60405180910390fd5b6004600084815260200190815260200160002060070154915050919050565b82806004600083815260200190815260200160002060000154146108b4576040517f08c379a00000000000000000000000000000000000000000000000000000000081526004016108ab90611d69565b60405180910390fd5b6000600460008681526020019081526020016000209050806003015484101580156108e3575080600401548411155b610922576040517f08c379a000000000000000000000000000000000000000000000000000000000815260040161091990611ee9565b60405180910390fd5b6040518060e0016040528060035481526020018681526020013373ffffffffffffffffffffffffffffffffffffffff1681526020018581526020016000815260200184815260200160001515815250600560006003548152602001908152602001600020600082015181600001556020820151816001015560408201518160020160006101000a81548173ffffffffffffffffffffffffffffffffffffffff021916908373ffffffffffffffffffffffffffffffffffffffff160217905550606082015181600301556080820151816004015560a0820151816005019080519060200190610a11929190611479565b5060c08201518160060160006101000a81548160ff0219169083151502179055509050507ffdb73f695bc6f43d03128339b6d99121833f5cb8d65f8cb3ffc6abe2e08a0a5b6003548633604051610a6a9392919061206e565b60405180910390a160036000815480929190610a8590612302565b91905055505050505050565b8180600460008381526020019081526020016000206000015414610aea576040517f08c379a0000000000000000000000000000000000000000000000000000000008152600401610ae190611d69565b60405180910390fd5b60008211610b2d576040517f08c379a0000000000000000000000000000000000000000000000000000000008152600401610b2490611d89565b60405180910390fd5b600160009054906101000a900473ffffffffffffffffffffffffffffffffffffffff1673ffffffffffffffffffffffffffffffffffffffff166323b872dd3330856040518463ffffffff1660e01b8152600401610b8c93929190611cd3565b602060405180830381600087803b158015610ba657600080fd5b505af1158015610bba573d6000803e3d6000fd5b505050506040513d601f19601f82011682018060405250810190610bde9190611601565b610c1d576040517f08c379a0000000000000000000000000000000000000000000000000000000008152600401610c1490611e09565b60405180910390fd5b600060046000858152602001908152602001600020905082816007016000828254610c489190612198565b925050819055507f0b5b4c52969ff7329ecf7ee536409fda87812b15a8622bc6e8cdeab3aee14a26843385604051610c8293929190611fd0565b60405180910390a150505050565b6000600560008381526020019081526020016000209050600060046000836001015481526020019081526020016000209050806006015482600401541015610d0d576040517f08c379a0000000000000000000000000000000000000000000000000000000008152600401610d0490611f09565b60405180910390fd5b816003015481600701541015610d58576040517f08c379a0000000000000000000000000000000000000000000000000000000008152600401610d4f90611e49565b60405180910390fd5b8160060160009054906101000a900460ff1615610daa576040517f08c379a0000000000000000000000000000000000000000000000000000000008152600401610da190611e29565b60405180910390fd5b8060010160009054906101000a900473ffffffffffffffffffffffffffffffffffffffff1673ffffffffffffffffffffffffffffffffffffffff163373ffffffffffffffffffffffffffffffffffffffff1614610e3c576040517f08c379a0000000000000000000000000000000000000000000000000000000008152600401610e3390611ea9565b60405180910390fd5b60018260060160006101000a81548160ff0219169083151502179055508160030154816007016000828254610e7191906121ee565b92505081905550600160009054906101000a900473ffffffffffffffffffffffffffffffffffffffff1673ffffffffffffffffffffffffffffffffffffffff1663a9059cbb8360020160009054906101000a900473ffffffffffffffffffffffffffffffffffffffff1684600301546040518363ffffffff1660e01b8152600401610efd929190611d0a565b602060405180830381600087803b158015610f1757600080fd5b505af1158015610f2b573d6000803e3d6000fd5b505050506040513d601f19601f82011682018060405250810190610f4f9190611601565b610f8e576040517f08c379a0000000000000000000000000000000000000000000000000000000008152600401610f8590611e09565b60405180910390fd5b7feb2cd132972ac2f1b1b2806265483bfbe1a6c39df51e7a855c258ecd12fd1c44838360020160009054906101000a900473ffffffffffffffffffffffffffffffffffffffff168460030154604051610fe993929190611fd0565b60405180910390a1505050565b60008111611039576040517f08c379a000000000000000000000000000000000000000000000000000000000815260040161103090611e69565b60405180910390fd5b60405180610100016040528060025481526020013373ffffffffffffffffffffffffffffffffffffffff16815260200186815260200185815260200184815260200183815260200182815260200160008152506004600060025481526020019081526020016000206000820151816000015560208201518160010160006101000a81548173ffffffffffffffffffffffffffffffffffffffff021916908373ffffffffffffffffffffffffffffffffffffffff160217905550604082015181600201908051906020019061110e929190611479565b50606082015181600301556080820151816004015560a082015181600501908051906020019061113f929190611479565b5060c0820151816006015560e082015181600701559050507fd03ddede898b6427661c8372165d22a5f7537eeb70fe113596600c9149fb20cb600254863360405161118c93929190612007565b60405180910390a1600260008154809291906111a790612302565b91905055505050505050565b60035481565b60056020528060005260406000206000915090508060000154908060010154908060020160009054906101000a900473ffffffffffffffffffffffffffffffffffffffff169080600301549080600401549080600501805461121a906122d0565b80601f0160208091040260200160405190810160405280929190818152602001828054611246906122d0565b80156112935780601f1061126857610100808354040283529160200191611293565b820191906000526020600020905b81548152906001019060200180831161127657829003601f168201915b5050505050908060060160009054906101000a900460ff16905087565b60008054906101000a900473ffffffffffffffffffffffffffffffffffffffff1673ffffffffffffffffffffffffffffffffffffffff163373ffffffffffffffffffffffffffffffffffffffff161461133e576040517f08c379a000000000000000000000000000000000000000000000000000000000815260040161133590611de9565b60405180910390fd5b600073ffffffffffffffffffffffffffffffffffffffff168173ffffffffffffffffffffffffffffffffffffffff1614156113ae576040517f08c379a00000000000000000000000000000000000000000000000000000000081526004016113a590611da9565b60405180910390fd5b7f87e71e7eb80b6aa3c745c8fa2925b77f2843f859578c78ec22e5d4923324609d600160009054906101000a900473ffffffffffffffffffffffffffffffffffffffff1682604051611401929190611caa565b60405180910390a180600160006101000a81548173ffffffffffffffffffffffffffffffffffffffff021916908373ffffffffffffffffffffffffffffffffffffffff16021790555050565b600160009054906101000a900473ffffffffffffffffffffffffffffffffffffffff1681565b60025481565b828054611485906122d0565b90600052602060002090601f0160209004810192826114a757600085556114ee565b82601f106114c057805160ff19168380011785556114ee565b828001600101855582156114ee579182015b828111156114ed5782518255916020019190600101906114d2565b5b5090506114fb91906114ff565b5090565b5b80821115611518576000816000905550600101611500565b5090565b600061152f61152a8461214c565b61211b565b90508281526020810184848401111561154757600080fd5b61155284828561228e565b509392505050565b600081359050611569816123e9565b92915050565b60008151905061157e81612400565b92915050565b600082601f83011261159557600080fd5b81356115a584826020860161151c565b91505092915050565b6000813590506115bd81612417565b92915050565b6000815190506115d281612417565b92915050565b6000602082840312156115ea57600080fd5b60006115f88482850161155a565b91505092915050565b60006020828403121561161357600080fd5b60006116218482850161156f565b91505092915050565b600080600080600060a0868803121561164257600080fd5b600086013567ffffffffffffffff81111561165c57600080fd5b61166888828901611584565b9550506020611679888289016115ae565b945050604061168a888289016115ae565b935050606086013567ffffffffffffffff8111156116a757600080fd5b6116b388828901611584565b92505060806116c4888289016115ae565b9150509295509295909350565b6000602082840312156116e357600080fd5b60006116f1848285016115ae565b91505092915050565b60006020828403121561170c57600080fd5b600061171a848285016115c3565b91505092915050565b6000806040838503121561173657600080fd5b6000611744858286016115ae565b92505060206117558582860161155a565b9150509250929050565b6000806040838503121561177257600080fd5b6000611780858286016115ae565b9250506020611791858286016115ae565b9150509250929050565b6000806000606084860312156117b057600080fd5b60006117be868287016115ae565b93505060206117cf868287016115ae565b925050604084013567ffffffffffffffff8111156117ec57600080fd5b6117f886828701611584565b9150509250925092565b61180b81612222565b82525050565b61181a81612234565b82525050565b6118298161226a565b82525050565b600061183a8261217c565b6118448185612187565b935061185481856020860161229d565b61185d816123d8565b840191505092915050565b6000611875601383612187565b91507f46756e6420646f6573206e6f74206578697374000000000000000000000000006000830152602082019050919050565b60006118b5602283612187565b91507f446f6e6174696f6e206d7573742062652067726561746572207468616e207a6560008301527f726f0000000000000000000000000000000000000000000000000000000000006020830152604082019050919050565b600061191b600f83612187565b91507f496e76616c6964206164647265737300000000000000000000000000000000006000830152602082019050919050565b600061195b601a83612187565b91507f4170706c69636174696f6e20616c72656164792066756e6465640000000000006000830152602082019050919050565b600061199b602183612187565b91507f4f6e6c79206f776e65722063616e2063616c6c20746869732066756e6374696f60008301527f6e000000000000000000000000000000000000000000000000000000000000006020830152604082019050919050565b6000611a01600f83612187565b91507f5472616e73666572206661696c656400000000000000000000000000000000006000830152602082019050919050565b6000611a41601783612187565b91507f46756e647320616c7265616479206469736275727365640000000000000000006000830152602082019050919050565b6000611a81601983612187565b91507f496e73756666696369656e742066756e642062616c616e6365000000000000006000830152602082019050919050565b6000611ac1602783612187565b91507f4d696e20617070726f76616c73206d757374206265206772656174657220746860008301527f616e207a65726f000000000000000000000000000000000000000000000000006020830152604082019050919050565b6000611b27601a83612187565b91507f4170706c69636174696f6e20646f6573206e6f742065786973740000000000006000830152602082019050919050565b6000611b67601283612187565b91507f4e6f74207468652066756e64206f776e657200000000000000000000000000006000830152602082019050919050565b6000611ba7602183612187565b91507f416c726561647920617070726f7665642062792074686973207265766965776560008301527f72000000000000000000000000000000000000000000000000000000000000006020830152604082019050919050565b6000611c0d601d83612187565b91507f52657175657374656420616d6f756e74206f7574206f662072616e67650000006000830152602082019050919050565b6000611c4d601483612187565b91507f4e6f7420656e6f75676820617070726f76616c730000000000000000000000006000830152602082019050919050565b611c8981612260565b82525050565b6000602082019050611ca46000830184611802565b92915050565b6000604082019050611cbf6000830185611802565b611ccc6020830184611802565b9392505050565b6000606082019050611ce86000830186611802565b611cf56020830185611802565b611d026040830184611c80565b949350505050565b6000604082019050611d1f6000830185611802565b611d2c6020830184611c80565b9392505050565b6000602082019050611d486000830184611811565b92915050565b6000602082019050611d636000830184611820565b92915050565b60006020820190508181036000830152611d8281611868565b9050919050565b60006020820190508181036000830152611da2816118a8565b9050919050565b60006020820190508181036000830152611dc28161190e565b9050919050565b60006020820190508181036000830152611de28161194e565b9050919050565b60006020820190508181036000830152611e028161198e565b9050919050565b60006020820190508181036000830152611e22816119f4565b9050919050565b60006020820190508181036000830152611e4281611a34565b9050919050565b60006020820190508181036000830152611e6281611a74565b9050919050565b60006020820190508181036000830152611e8281611ab4565b9050919050565b60006020820190508181036000830152611ea281611b1a565b9050919050565b60006020820190508181036000830152611ec281611b5a565b9050919050565b60006020820190508181036000830152611ee281611b9a565b9050919050565b60006020820190508181036000830152611f0281611c00565b9050919050565b60006020820190508181036000830152611f2281611c40565b9050919050565b6000602082019050611f3e6000830184611c80565b92915050565b600061010082019050611f5a600083018b611c80565b611f67602083018a611802565b8181036040830152611f79818961182f565b9050611f886060830188611c80565b611f956080830187611c80565b81810360a0830152611fa7818661182f565b9050611fb660c0830185611c80565b611fc360e0830184611c80565b9998505050505050505050565b6000606082019050611fe56000830186611c80565b611ff26020830185611802565b611fff6040830184611c80565b949350505050565b600060608201905061201c6000830186611c80565b818103602083015261202e818561182f565b905061203d6040830184611802565b949350505050565b600060408201905061205a6000830185611c80565b6120676020830184611c80565b9392505050565b60006060820190506120836000830186611c80565b6120906020830185611c80565b61209d6040830184611802565b949350505050565b600060e0820190506120ba600083018a611c80565b6120c76020830189611c80565b6120d46040830188611802565b6120e16060830187611c80565b6120ee6080830186611c80565b81810360a0830152612100818561182f565b905061210f60c0830184611811565b98975050505050505050565b6000604051905081810181811067ffffffffffffffff82111715612142576121416123a9565b5b8060405250919050565b600067ffffffffffffffff821115612167576121666123a9565b5b601f19601f8301169050602081019050919050565b600081519050919050565b600082825260208201905092915050565b60006121a382612260565b91506121ae83612260565b9250827fffffffffffffffffffffffffffffffffffffffffffffffffffffffffffffffff038211156121e3576121e261234b565b5b828201905092915050565b60006121f982612260565b915061220483612260565b9250828210156122175761221661234b565b5b828203905092915050565b600061222d82612240565b9050919050565b60008115159050919050565b600073ffffffffffffffffffffffffffffffffffffffff82169050919050565b6000819050919050565b60006122758261227c565b9050919050565b600061228782612240565b9050919050565b82818337600083830152505050565b60005b838110156122bb5780820151818401526020810190506122a0565b838111156122ca576000848401525b50505050565b600060028204905060018216806122e857607f821691505b602082108114156122fc576122fb61237a565b5b50919050565b600061230d82612260565b91507fffffffffffffffffffffffffffffffffffffffffffffffffffffffffffffffff8214156123405761233f61234b565b5b600182019050919050565b7f4e487b7100000000000000000000000000000000000000000000000000000000600052601160045260246000fd5b7f4e487b7100000000000000000000000000000000000000000000000000000000600052602260045260246000fd5b7f4e487b7100000000000000000000000000000000000000000000000000000000600052604160045260246000fd5b6000601f19601f8301169050919050565b6123f281612222565b81146123fd57600080fd5b50565b61240981612234565b811461241457600080fd5b50565b61242081612260565b811461242b57600080fd5b5056fea2646970667358221220fea7dee38abe703bbc189ffd73e1bff7268ed7569b7b9a7d7b7d625d6cc2750c64736f6c63430008000033",
  "immutableReferences": {},
  "source": "// SPDX-License-Identifier: MIT\r\npragma solidity ^0.8.0;\r\n\r\nimport \"@openzeppelin/contracts/token/ERC20/IERC20.sol\";\r\n\r\ncontract ScholarshipFund {\r\n    address public owner;\r\n    IERC20 public stablecoin;\r\n\r\n    struct Fund {\r\n        uint256 id;\r\n        address owner;\r\n        string name;\r\n        uint256 minRequestAmount;\r\n        uint256 maxRequestAmount;\r\n        string criteriaHash; // MongoDB or IPFS hash for detailed criteria\r\n        uint256 minApprovals;\r\n        uint256 balance; // Balance in stablecoins\r\n    }\r\n\r\n    struct Application {\r\n        uint256 id;\r\n        uint256 fundID;\r\n        address applicant;\r\n        uint256 requestedAmount;\r\n        uint256 approvalCount;\r\n        string mongoDbHash; // Metadata for the application\r\n        bool funded;\r\n    }\r\n\r\n    uint256 public nextFundID;\r\n    uint256 public nextApplicationID;\r\n\r\n    mapping(uint256 => Fund) public funds;\r\n    mapping(uint256 => Application) public applications;\r\n    mapping(uint256 => mapping(address => bool)) public applicationApprovals; // Tracks approvals for each application\r\n\r\n    event StablecoinUpdated(address oldAddress, address newAddress);\r\n    event FundCreated(uint256 fundID, string name, address owner);\r\n    event DonationReceived(uint256 fundID, address donor, uint256 amount);\r\n    event ApplicationSubmitted(uint256 appID, uint256 fundID, address applicant);\r\n    event ApplicationApproved(uint256 appID, uint256 approvalCount);\r\n    event FundsDisbursed(uint256 appID, address applicant, uint256 amount);\r\n\r\n    modifier onlyFundOwner(uint256 fundID) {\r\n        require(funds[fundID].owner == msg.sender, \"Not the fund owner\");\r\n        _;\r\n    }\r\n\r\n    modifier onlyFundExists(uint256 fundID) {\r\n        require(funds[fundID].id == fundID, \"Fund does not exist\");\r\n        _;\r\n    }\r\n\r\n    modifier onlyOwner() {\r\n        require(msg.sender == owner, \"Only owner can call this function\");\r\n        _;\r\n    }\r\n\r\n    constructor(address initialStablecoinAddress) {\r\n        owner = msg.sender;\r\n        stablecoin = IERC20(initialStablecoinAddress); // Set the initial stablecoin address\r\n    }\r\n\r\n    // Function to update the stablecoin address\r\n    function setStablecoin(address newStablecoinAddress) external onlyOwner {\r\n        require(newStablecoinAddress != address(0), \"Invalid address\");\r\n        emit StablecoinUpdated(address(stablecoin), newStablecoinAddress);\r\n        stablecoin = IERC20(newStablecoinAddress);\r\n    }\r\n\r\n    // Create a new fund\r\n    function createFund(\r\n        string memory name,\r\n        uint256 minRequestAmount,\r\n        uint256 maxRequestAmount,\r\n        string memory criteriaHash,\r\n        uint256 minApprovals\r\n    ) external {\r\n        require(minApprovals > 0, \"Min approvals must be greater than zero\");\r\n        funds[nextFundID] = Fund({\r\n            id: nextFundID,\r\n            owner: msg.sender,\r\n            name: name,\r\n            minRequestAmount: minRequestAmount,\r\n            maxRequestAmount: maxRequestAmount,\r\n            criteriaHash: criteriaHash,\r\n            minApprovals: minApprovals,\r\n            balance: 0\r\n        });\r\n        emit FundCreated(nextFundID, name, msg.sender);\r\n        nextFundID++;\r\n    }\r\n\r\n    // Donate to a specific fund in stablecoins\r\n    function donateToFund(uint256 fundID, uint256 amount) external onlyFundExists(fundID) {\r\n        require(amount > 0, \"Donation must be greater than zero\");\r\n        require(stablecoin.transferFrom(msg.sender, address(this), amount), \"Transfer failed\");\r\n\r\n        Fund storage fund = funds[fundID];\r\n        fund.balance += amount;\r\n\r\n        emit DonationReceived(fundID, msg.sender, amount);\r\n    }\r\n\r\n    // Submit an application to a specific fund\r\n    function submitApplication(\r\n        uint256 fundID,\r\n        uint256 requestedAmount,\r\n        string memory mongoDbHash\r\n    ) external onlyFundExists(fundID) {\r\n        Fund storage fund = funds[fundID];\r\n        require(\r\n            requestedAmount >= fund.minRequestAmount && requestedAmount <= fund.maxRequestAmount,\r\n            \"Requested amount out of range\"\r\n        );\r\n\r\n        applications[nextApplicationID] = Application({\r\n            id: nextApplicationID,\r\n            fundID: fundID,\r\n            applicant: msg.sender,\r\n            requestedAmount: requestedAmount,\r\n            approvalCount: 0,\r\n            mongoDbHash: mongoDbHash,\r\n            funded: false\r\n        });\r\n\r\n        emit ApplicationSubmitted(nextApplicationID, fundID, msg.sender);\r\n        nextApplicationID++;\r\n    }\r\n\r\n    // Approve an application\r\n    function approveApplication(uint256 appID) external {\r\n        Application storage app = applications[appID];\r\n        require(app.applicant != address(0), \"Application does not exist\");\r\n        require(!app.funded, \"Application already funded\");\r\n        require(!applicationApprovals[appID][msg.sender], \"Already approved by this reviewer\");\r\n\r\n        applicationApprovals[appID][msg.sender] = true;\r\n        app.approvalCount++;\r\n\r\n        emit ApplicationApproved(appID, app.approvalCount);\r\n    }\r\n\r\n    // Disburse funds to an approved applicant\r\n    function disburseFunds(uint256 appID) external {\r\n        Application storage app = applications[appID];\r\n        Fund storage fund = funds[app.fundID];\r\n\r\n        require(app.approvalCount >= fund.minApprovals, \"Not enough approvals\");\r\n        require(fund.balance >= app.requestedAmount, \"Insufficient fund balance\");\r\n        require(!app.funded, \"Funds already disbursed\");\r\n        require(msg.sender == fund.owner, \"Not the fund owner\");\r\n\r\n        app.funded = true;\r\n        fund.balance -= app.requestedAmount;\r\n\r\n        require(stablecoin.transfer(app.applicant, app.requestedAmount), \"Transfer failed\");\r\n\r\n        emit FundsDisbursed(appID, app.applicant, app.requestedAmount);\r\n    }\r\n\r\n    // View contract's stablecoin balance\r\n    function getContractBalance() external view returns (uint256) {\r\n        return stablecoin.balanceOf(address(this));\r\n    }\r\n\r\n    // View fund balance\r\n    function getFundBalance(uint256 fundID) external view onlyFundExists(fundID) returns (uint256) {\r\n        return funds[fundID].balance;\r\n    }\r\n}\r\n",
  "sourcePath": "C:\\Users\\saritajoshi\\Documents\\559_Blockchain\\scholarship-proj\\contracts\\ScholarshipFund.sol",
  "compiler": {
    "name": "solc",
    "version": "0.8.0+commit.c7dfd78e.Emscripten.clang"
  },
  "schemaVersion": "3.4.16",
  "updatedAt": "2024-11-19T23:12:13.453Z",
  "networkType": "ethereum",
  "devdoc": {
    "kind": "dev",
    "methods": {},
    "version": 1
  },
  "userdoc": {
    "kind": "user",
    "methods": {},
    "version": 1
  }
}