{
  "contractName": "ScholarshipFund",
  "abi": [
    {
      "inputs": [],
      "stateMutability": "nonpayable",
      "type": "constructor"
    },
    {
      "anonymous": false,
      "inputs": [
        {
          "indexed": false,
          "internalType": "uint256",
          "name": "id",
          "type": "uint256"
        },
        {
          "indexed": false,
          "internalType": "string",
          "name": "status",
          "type": "string"
        }
      ],
      "name": "ApplicationStatusUpdated",
      "type": "event"
    },
    {
      "anonymous": false,
      "inputs": [
        {
          "indexed": false,
          "internalType": "uint256",
          "name": "id",
          "type": "uint256"
        },
        {
          "indexed": false,
          "internalType": "string",
          "name": "mongoDbHash",
          "type": "string"
        }
      ],
      "name": "ApplicationSubmitted",
      "type": "event"
    },
    {
      "anonymous": false,
      "inputs": [
        {
          "indexed": false,
          "internalType": "address",
          "name": "donor",
          "type": "address"
        },
        {
          "indexed": false,
          "internalType": "uint256",
          "name": "amount",
          "type": "uint256"
        }
      ],
      "name": "DonationReceived",
      "type": "event"
    },
    {
      "anonymous": false,
      "inputs": [
        {
          "indexed": false,
          "internalType": "uint256",
          "name": "applicationId",
          "type": "uint256"
        },
        {
          "indexed": false,
          "internalType": "uint256",
          "name": "amount",
          "type": "uint256"
        }
      ],
      "name": "FundsDisbursed",
      "type": "event"
    },
    {
      "inputs": [],
      "name": "applicationContract",
      "outputs": [
        {
          "internalType": "contract ApplicationContract",
          "name": "",
          "type": "address"
        }
      ],
      "stateMutability": "view",
      "type": "function",
      "constant": true
    },
    {
      "inputs": [],
      "name": "disbursementContract",
      "outputs": [
        {
          "internalType": "contract DisbursementContract",
          "name": "",
          "type": "address"
        }
      ],
      "stateMutability": "view",
      "type": "function",
      "constant": true
    },
    {
      "inputs": [],
      "name": "donationContract",
      "outputs": [
        {
          "internalType": "contract DonationContract",
          "name": "",
          "type": "address"
        }
      ],
      "stateMutability": "view",
      "type": "function",
      "constant": true
    },
    {
      "inputs": [],
      "name": "owner",
      "outputs": [
        {
          "internalType": "address",
          "name": "",
          "type": "address"
        }
      ],
      "stateMutability": "view",
      "type": "function",
      "constant": true
    },
    {
      "inputs": [],
      "name": "donate",
      "outputs": [],
      "stateMutability": "payable",
      "type": "function",
      "payable": true
    },
    {
      "inputs": [],
      "name": "getTotalDonations",
      "outputs": [
        {
          "internalType": "uint256",
          "name": "",
          "type": "uint256"
        }
      ],
      "stateMutability": "view",
      "type": "function",
      "constant": true
    },
    {
      "inputs": [
        {
          "internalType": "uint256",
          "name": "_requestedAmount",
          "type": "uint256"
        },
        {
          "internalType": "string",
          "name": "_mongoDbHash",
          "type": "string"
        }
      ],
      "name": "submitApplication",
      "outputs": [
        {
          "internalType": "uint256",
          "name": "",
          "type": "uint256"
        }
      ],
      "stateMutability": "nonpayable",
      "type": "function"
    },
    {
      "inputs": [
        {
          "internalType": "uint256",
          "name": "_id",
          "type": "uint256"
        },
        {
          "internalType": "string",
          "name": "_status",
          "type": "string"
        }
      ],
      "name": "updateApplicationStatus",
      "outputs": [],
      "stateMutability": "nonpayable",
      "type": "function"
    },
    {
      "inputs": [],
      "name": "fundDisbursementContract",
      "outputs": [],
      "stateMutability": "payable",
      "type": "function",
      "payable": true
    },
    {
      "inputs": [
        {
          "internalType": "uint256",
          "name": "_applicationId",
          "type": "uint256"
        }
      ],
      "name": "disburseFunds",
      "outputs": [],
      "stateMutability": "nonpayable",
      "type": "function"
    },
    {
      "inputs": [],
      "name": "getOwner",
      "outputs": [
        {
          "internalType": "address",
          "name": "",
          "type": "address"
        }
      ],
      "stateMutability": "view",
      "type": "function",
      "constant": true
    },
    {
      "inputs": [],
      "name": "getDisbursementBalance",
      "outputs": [
        {
          "internalType": "uint256",
          "name": "",
          "type": "uint256"
        }
      ],
      "stateMutability": "view",
      "type": "function",
      "constant": true
    }
  ],
  "bytecode": "0x60806040523480156200001157600080fd5b50336000806101000a81548173ffffffffffffffffffffffffffffffffffffffff021916908373ffffffffffffffffffffffffffffffffffffffff16021790555060405162000060906200019c565b604051809103906000f0801580156200007d573d6000803e3d6000fd5b50600160006101000a81548173ffffffffffffffffffffffffffffffffffffffff021916908373ffffffffffffffffffffffffffffffffffffffff160217905550604051620000cc90620001aa565b604051809103906000f080158015620000e9573d6000803e3d6000fd5b50600260006101000a81548173ffffffffffffffffffffffffffffffffffffffff021916908373ffffffffffffffffffffffffffffffffffffffff1602179055506040516200013890620001b8565b604051809103906000f08015801562000155573d6000803e3d6000fd5b50600360006101000a81548173ffffffffffffffffffffffffffffffffffffffff021916908373ffffffffffffffffffffffffffffffffffffffff160217905550620001c6565b6103a3806200159583390190565b610b22806200193883390190565b610597806200245a83390190565b6113bf80620001d66000396000f3fe6080604052600436106100a75760003560e01c80638ad9cbd1116100645780638ad9cbd11461019f5780638da5cb5b146101c8578063cc212a48146101f3578063ecd4b7d61461021c578063ed88c68e14610247578063fce85fd514610251576100a7565b8063052db2ec146100ac57806309fd8d30146100d757806365027bf01461011457806375624cb91461011e578063777c658f14610149578063893d20e814610174575b600080fd5b3480156100b857600080fd5b506100c161027c565b6040516100ce919061112e565b60405180910390f35b3480156100e357600080fd5b506100fe60048036038101906100f99190610dbd565b610323565b60405161010b919061112e565b60405180910390f35b61011c61041a565b005b34801561012a57600080fd5b50610133610556565b6040516101409190611093565b60405180910390f35b34801561015557600080fd5b5061015e61057c565b60405161016b919061112e565b60405180910390f35b34801561018057600080fd5b50610189610623565b6040516101969190610ff0565b60405180910390f35b3480156101ab57600080fd5b506101c660048036038101906101c19190610dbd565b61064c565b005b3480156101d457600080fd5b506101dd6107a6565b6040516101ea9190610ff0565b60405180910390f35b3480156101ff57600080fd5b5061021a60048036038101906102159190610cc4565b6107ca565b005b34801561022857600080fd5b50610231610a68565b60405161023e9190611078565b60405180910390f35b61024f610a8e565b005b34801561025d57600080fd5b50610266610b8f565b604051610273919061105d565b60405180910390f35b6000600360009054906101000a900473ffffffffffffffffffffffffffffffffffffffff1673ffffffffffffffffffffffffffffffffffffffff166312065fe06040518163ffffffff1660e01b815260040160206040518083038186803b1580156102e657600080fd5b505afa1580156102fa573d6000803e3d6000fd5b505050506040513d601f19601f8201168201806040525081019061031e9190610ced565b905090565b600080600260009054906101000a900473ffffffffffffffffffffffffffffffffffffffff1673ffffffffffffffffffffffffffffffffffffffff166309fd8d3085856040518363ffffffff1660e01b8152600401610383929190611149565b602060405180830381600087803b15801561039d57600080fd5b505af11580156103b1573d6000803e3d6000fd5b505050506040513d601f19601f820116820180604052508101906103d59190610ced565b90507fafe27dbcbd1b0c000dd93f8e1a6a15bbd357294a060694dfdc80047e8c4abc688184604051610408929190611149565b60405180910390a18091505092915050565b60008054906101000a900473ffffffffffffffffffffffffffffffffffffffff1673ffffffffffffffffffffffffffffffffffffffff163373ffffffffffffffffffffffffffffffffffffffff16146104a8576040517f08c379a000000000000000000000000000000000000000000000000000000000815260040161049f906110ee565b60405180910390fd5b600034116104eb576040517f08c379a00000000000000000000000000000000000000000000000000000000081526004016104e2906110ce565b60405180910390fd5b600360009054906101000a900473ffffffffffffffffffffffffffffffffffffffff1673ffffffffffffffffffffffffffffffffffffffff166108fc349081150290604051600060405180830381858888f19350505050158015610553573d6000803e3d6000fd5b50565b600160009054906101000a900473ffffffffffffffffffffffffffffffffffffffff1681565b6000600160009054906101000a900473ffffffffffffffffffffffffffffffffffffffff1673ffffffffffffffffffffffffffffffffffffffff1663777c658f6040518163ffffffff1660e01b815260040160206040518083038186803b1580156105e657600080fd5b505afa1580156105fa573d6000803e3d6000fd5b505050506040513d601f19601f8201168201806040525081019061061e9190610ced565b905090565b60008060009054906101000a900473ffffffffffffffffffffffffffffffffffffffff16905090565b60008054906101000a900473ffffffffffffffffffffffffffffffffffffffff1673ffffffffffffffffffffffffffffffffffffffff163373ffffffffffffffffffffffffffffffffffffffff16146106da576040517f08c379a00000000000000000000000000000000000000000000000000000000081526004016106d1906110ee565b60405180910390fd5b600260009054906101000a900473ffffffffffffffffffffffffffffffffffffffff1673ffffffffffffffffffffffffffffffffffffffff16638ad9cbd183836040518363ffffffff1660e01b8152600401610737929190611149565b600060405180830381600087803b15801561075157600080fd5b505af1158015610765573d6000803e3d6000fd5b505050507f982d2f50711b24245cf16c2aeb3f5f7b969553aa8d2b227e40edd3619f83fe59828260405161079a929190611149565b60405180910390a15050565b60008054906101000a900473ffffffffffffffffffffffffffffffffffffffff1681565b60008054906101000a900473ffffffffffffffffffffffffffffffffffffffff1673ffffffffffffffffffffffffffffffffffffffff163373ffffffffffffffffffffffffffffffffffffffff1614610858576040517f08c379a000000000000000000000000000000000000000000000000000000000815260040161084f906110ee565b60405180910390fd5b6000806000600260009054906101000a900473ffffffffffffffffffffffffffffffffffffffff1673ffffffffffffffffffffffffffffffffffffffff1663dfefadff856040518263ffffffff1660e01b81526004016108b8919061112e565b60006040518083038186803b1580156108d057600080fd5b505afa1580156108e4573d6000803e3d6000fd5b505050506040513d6000823e3d601f19601f8201168201806040525081019061090d9190610d16565b94505093509350506040518060400160405280600881526020017f417070726f7665640000000000000000000000000000000000000000000000008152508051906020012081805190602001201461099a576040517f08c379a00000000000000000000000000000000000000000000000000000000081526004016109919061110e565b60405180910390fd5b600360009054906101000a900473ffffffffffffffffffffffffffffffffffffffff1673ffffffffffffffffffffffffffffffffffffffff1663ad48e2a284846040518363ffffffff1660e01b81526004016109f792919061100b565b600060405180830381600087803b158015610a1157600080fd5b505af1158015610a25573d6000803e3d6000fd5b505050507f353824989cda192757c4489ea4d5d30fe1801a232ed47c3b79f663b5cbe2e4758483604051610a5a929190611179565b60405180910390a150505050565b600360009054906101000a900473ffffffffffffffffffffffffffffffffffffffff1681565b60003411610ad1576040517f08c379a0000000000000000000000000000000000000000000000000000000008152600401610ac8906110ae565b60405180910390fd5b600160009054906101000a900473ffffffffffffffffffffffffffffffffffffffff1673ffffffffffffffffffffffffffffffffffffffff1663ed88c68e346040518263ffffffff1660e01b81526004016000604051808303818588803b158015610b3b57600080fd5b505af1158015610b4f573d6000803e3d6000fd5b50505050507f264f630d9efa0d07053a31163641d9fcc0adafc9d9e76f1c37c2ce3a558d2c523334604051610b85929190611034565b60405180910390a1565b600260009054906101000a900473ffffffffffffffffffffffffffffffffffffffff1681565b6000610bc8610bc3846111d3565b6111a2565b905082815260208101848484011115610be057600080fd5b610beb8482856112d9565b509392505050565b6000610c06610c01846111d3565b6111a2565b905082815260208101848484011115610c1e57600080fd5b610c298482856112e8565b509392505050565b600081519050610c408161135b565b92915050565b600082601f830112610c5757600080fd5b8135610c67848260208601610bb5565b91505092915050565b600082601f830112610c8157600080fd5b8151610c91848260208601610bf3565b91505092915050565b600081359050610ca981611372565b92915050565b600081519050610cbe81611372565b92915050565b600060208284031215610cd657600080fd5b6000610ce484828501610c9a565b91505092915050565b600060208284031215610cff57600080fd5b6000610d0d84828501610caf565b91505092915050565b600080600080600060a08688031215610d2e57600080fd5b6000610d3c88828901610caf565b9550506020610d4d88828901610c31565b9450506040610d5e88828901610caf565b935050606086015167ffffffffffffffff811115610d7b57600080fd5b610d8788828901610c70565b925050608086015167ffffffffffffffff811115610da457600080fd5b610db088828901610c70565b9150509295509295909350565b60008060408385031215610dd057600080fd5b6000610dde85828601610c9a565b925050602083013567ffffffffffffffff811115610dfb57600080fd5b610e0785828601610c46565b9150509250929050565b610e1a81611231565b82525050565b610e298161121f565b82525050565b610e388161126d565b82525050565b610e4781611291565b82525050565b610e56816112b5565b82525050565b6000610e6782611203565b610e71818561120e565b9350610e818185602086016112e8565b610e8a8161134a565b840191505092915050565b6000610ea260228361120e565b91507f446f6e6174696f6e206d7573742062652067726561746572207468616e207a6560008301527f726f0000000000000000000000000000000000000000000000000000000000006020830152604082019050919050565b6000610f0860208361120e565b91507f416d6f756e74206d7573742062652067726561746572207468616e207a65726f6000830152602082019050919050565b6000610f4860228361120e565b91507f4f6e6c79206f776e65722063616e20706572666f726d2074686973206163746960008301527f6f6e0000000000000000000000000000000000000000000000000000000000006020830152604082019050919050565b6000610fae601b8361120e565b91507f4170706c69636174696f6e206973206e6f7420617070726f76656400000000006000830152602082019050919050565b610fea81611263565b82525050565b60006020820190506110056000830184610e20565b92915050565b60006040820190506110206000830185610e11565b61102d6020830184610fe1565b9392505050565b60006040820190506110496000830185610e20565b6110566020830184610fe1565b9392505050565b60006020820190506110726000830184610e2f565b92915050565b600060208201905061108d6000830184610e3e565b92915050565b60006020820190506110a86000830184610e4d565b92915050565b600060208201905081810360008301526110c781610e95565b9050919050565b600060208201905081810360008301526110e781610efb565b9050919050565b6000602082019050818103600083015261110781610f3b565b9050919050565b6000602082019050818103600083015261112781610fa1565b9050919050565b60006020820190506111436000830184610fe1565b92915050565b600060408201905061115e6000830185610fe1565b81810360208301526111708184610e5c565b90509392505050565b600060408201905061118e6000830185610fe1565b61119b6020830184610fe1565b9392505050565b6000604051905081810181811067ffffffffffffffff821117156111c9576111c861131b565b5b8060405250919050565b600067ffffffffffffffff8211156111ee576111ed61131b565b5b601f19601f8301169050602081019050919050565b600081519050919050565b600082825260208201905092915050565b600061122a82611243565b9050919050565b600061123c82611243565b9050919050565b600073ffffffffffffffffffffffffffffffffffffffff82169050919050565b6000819050919050565b60006112788261127f565b9050919050565b600061128a82611243565b9050919050565b600061129c826112a3565b9050919050565b60006112ae82611243565b9050919050565b60006112c0826112c7565b9050919050565b60006112d282611243565b9050919050565b82818337600083830152505050565b60005b838110156113065780820151818401526020810190506112eb565b83811115611315576000848401525b50505050565b7f4e487b7100000000000000000000000000000000000000000000000000000000600052604160045260246000fd5b6000601f19601f8301169050919050565b6113648161121f565b811461136f57600080fd5b50565b61137b81611263565b811461138657600080fd5b5056fea2646970667358221220012ac5697989a8d1a42cf63f5ed420996a27f6cb0d3d541a48081e43d70cf98b64736f6c63430008000033608060405234801561001057600080fd5b50336000806101000a81548173ffffffffffffffffffffffffffffffffffffffff021916908373ffffffffffffffffffffffffffffffffffffffff160217905550610343806100606000396000f3fe60806040526004361061003f5760003560e01c8063777c658f146100445780638da5cb5b1461006f578063de2ed8931461009a578063ed88c68e146100c5575b600080fd5b34801561005057600080fd5b506100596100cf565b6040516100669190610220565b60405180910390f35b34801561007b57600080fd5b506100846100d9565b60405161009191906101e5565b60405180910390f35b3480156100a657600080fd5b506100af6100fd565b6040516100bc9190610220565b60405180910390f35b6100cd610103565b005b6000600154905090565b60008054906101000a900473ffffffffffffffffffffffffffffffffffffffff1681565b60015481565b60003411610146576040517f08c379a000000000000000000000000000000000000000000000000000000000815260040161013d90610200565b60405180910390fd5b3460016000828254610158919061024c565b92505081905550565b61016a816102a2565b82525050565b600061017d60228361023b565b91507f446f6e6174696f6e206d7573742062652067726561746572207468616e207a6560008301527f726f0000000000000000000000000000000000000000000000000000000000006020830152604082019050919050565b6101df816102d4565b82525050565b60006020820190506101fa6000830184610161565b92915050565b6000602082019050818103600083015261021981610170565b9050919050565b600060208201905061023560008301846101d6565b92915050565b600082825260208201905092915050565b6000610257826102d4565b9150610262836102d4565b9250827fffffffffffffffffffffffffffffffffffffffffffffffffffffffffffffffff03821115610297576102966102de565b5b828201905092915050565b60006102ad826102b4565b9050919050565b600073ffffffffffffffffffffffffffffffffffffffff82169050919050565b6000819050919050565b7f4e487b7100000000000000000000000000000000000000000000000000000000600052601160045260246000fdfea26469706673582212206b698846d5d4c9a71e9c837a15dfa15bebdf81ba94767c47c804150880f1373c64736f6c63430008000033608060405234801561001057600080fd5b50336000806101000a81548173ffffffffffffffffffffffffffffffffffffffff021916908373ffffffffffffffffffffffffffffffffffffffff160217905550610ac2806100606000396000f3fe608060405234801561001057600080fd5b50600436106100575760003560e01c806309fd8d301461005c5780638ad9cbd11461008c5780638da5cb5b146100a8578063dfefadff146100c6578063e2aad4a0146100fa575b600080fd5b61007660048036038101906100719190610639565b610118565b60405161008391906107e5565b60405180910390f35b6100a660048036038101906100a19190610639565b61025e565b005b6100b0610360565b6040516100bd919061078a565b60405180910390f35b6100e060048036038101906100db9190610610565b610384565b6040516100f1959493929190610800565b60405180910390f35b6101026104ea565b60405161010f91906107e5565b60405180910390f35b60006001600081548092919061012d9061098e565b91905055506040518060a0016040528060015481526020013373ffffffffffffffffffffffffffffffffffffffff1681526020018481526020018381526020016040518060400160405280600781526020017f50656e64696e67000000000000000000000000000000000000000000000000008152508152506002600060015481526020019081526020016000206000820151816000015560208201518160010160006101000a81548173ffffffffffffffffffffffffffffffffffffffff021916908373ffffffffffffffffffffffffffffffffffffffff1602179055506040820151816002015560608201518160030190805190602001906102329291906104f0565b50608082015181600401908051906020019061024f9291906104f0565b50905050600154905092915050565b60008054906101000a900473ffffffffffffffffffffffffffffffffffffffff1673ffffffffffffffffffffffffffffffffffffffff163373ffffffffffffffffffffffffffffffffffffffff16146102ec576040517f08c379a00000000000000000000000000000000000000000000000000000000081526004016102e3906107c5565b60405180910390fd5b600154821115610331576040517f08c379a0000000000000000000000000000000000000000000000000000000008152600401610328906107a5565b60405180910390fd5b8060026000848152602001908152602001600020600401908051906020019061035b9291906104f0565b505050565b60008054906101000a900473ffffffffffffffffffffffffffffffffffffffff1681565b60026020528060005260406000206000915090508060000154908060010160009054906101000a900473ffffffffffffffffffffffffffffffffffffffff16908060020154908060030180546103d99061095c565b80601f01602080910402602001604051908101604052809291908181526020018280546104059061095c565b80156104525780601f1061042757610100808354040283529160200191610452565b820191906000526020600020905b81548152906001019060200180831161043557829003601f168201915b5050505050908060040180546104679061095c565b80601f01602080910402602001604051908101604052809291908181526020018280546104939061095c565b80156104e05780601f106104b5576101008083540402835291602001916104e0565b820191906000526020600020905b8154815290600101906020018083116104c357829003601f168201915b5050505050905085565b60015481565b8280546104fc9061095c565b90600052602060002090601f01602090048101928261051e5760008555610565565b82601f1061053757805160ff1916838001178555610565565b82800160010185558215610565579182015b82811115610564578251825591602001919060010190610549565b5b5090506105729190610576565b5090565b5b8082111561058f576000816000905550600101610577565b5090565b60006105a66105a184610892565b610861565b9050828152602081018484840111156105be57600080fd5b6105c984828561091a565b509392505050565b600082601f8301126105e257600080fd5b81356105f2848260208601610593565b91505092915050565b60008135905061060a81610a75565b92915050565b60006020828403121561062257600080fd5b6000610630848285016105fb565b91505092915050565b6000806040838503121561064c57600080fd5b600061065a858286016105fb565b925050602083013567ffffffffffffffff81111561067757600080fd5b610683858286016105d1565b9150509250929050565b610696816108de565b82525050565b60006106a7826108c2565b6106b181856108cd565b93506106c1818560208601610929565b6106ca81610a64565b840191505092915050565b60006106e2601a836108cd565b91507f4170706c69636174696f6e20646f6573206e6f742065786973740000000000006000830152602082019050919050565b60006107226022836108cd565b91507f4f6e6c79206f776e65722063616e20706572666f726d2074686973206163746960008301527f6f6e0000000000000000000000000000000000000000000000000000000000006020830152604082019050919050565b61078481610910565b82525050565b600060208201905061079f600083018461068d565b92915050565b600060208201905081810360008301526107be816106d5565b9050919050565b600060208201905081810360008301526107de81610715565b9050919050565b60006020820190506107fa600083018461077b565b92915050565b600060a082019050610815600083018861077b565b610822602083018761068d565b61082f604083018661077b565b8181036060830152610841818561069c565b90508181036080830152610855818461069c565b90509695505050505050565b6000604051905081810181811067ffffffffffffffff8211171561088857610887610a35565b5b8060405250919050565b600067ffffffffffffffff8211156108ad576108ac610a35565b5b601f19601f8301169050602081019050919050565b600081519050919050565b600082825260208201905092915050565b60006108e9826108f0565b9050919050565b600073ffffffffffffffffffffffffffffffffffffffff82169050919050565b6000819050919050565b82818337600083830152505050565b60005b8381101561094757808201518184015260208101905061092c565b83811115610956576000848401525b50505050565b6000600282049050600182168061097457607f821691505b6020821081141561098857610987610a06565b5b50919050565b600061099982610910565b91507fffffffffffffffffffffffffffffffffffffffffffffffffffffffffffffffff8214156109cc576109cb6109d7565b5b600182019050919050565b7f4e487b7100000000000000000000000000000000000000000000000000000000600052601160045260246000fd5b7f4e487b7100000000000000000000000000000000000000000000000000000000600052602260045260246000fd5b7f4e487b7100000000000000000000000000000000000000000000000000000000600052604160045260246000fd5b6000601f19601f8301169050919050565b610a7e81610910565b8114610a8957600080fd5b5056fea26469706673582212201407ce9087520a069bc94f6bbe70016dfffeb8779ec8ca601ee4449884b8659c64736f6c63430008000033608060405234801561001057600080fd5b50336000806101000a81548173ffffffffffffffffffffffffffffffffffffffff021916908373ffffffffffffffffffffffffffffffffffffffff160217905550610537806100606000396000f3fe6080604052600436106100385760003560e01c806312065fe0146100445780638da5cb5b1461006f578063ad48e2a21461009a5761003f565b3661003f57005b600080fd5b34801561005057600080fd5b506100596100c3565b6040516100669190610459565b60405180910390f35b34801561007b57600080fd5b506100846100cb565b60405161009191906103de565b60405180910390f35b3480156100a657600080fd5b506100c160048036038101906100bc9190610278565b6100ef565b005b600047905090565b60008054906101000a900473ffffffffffffffffffffffffffffffffffffffff1681565b60008054906101000a900473ffffffffffffffffffffffffffffffffffffffff1673ffffffffffffffffffffffffffffffffffffffff163373ffffffffffffffffffffffffffffffffffffffff161461017d576040517f08c379a000000000000000000000000000000000000000000000000000000000815260040161017490610439565b60405180910390fd5b804710156101c0576040517f08c379a00000000000000000000000000000000000000000000000000000000081526004016101b790610419565b60405180910390fd5b60008111610203576040517f08c379a00000000000000000000000000000000000000000000000000000000081526004016101fa906103f9565b60405180910390fd5b8173ffffffffffffffffffffffffffffffffffffffff166108fc829081150290604051600060405180830381858888f19350505050158015610249573d6000803e3d6000fd5b505050565b60008135905061025d816104d3565b92915050565b600081359050610272816104ea565b92915050565b6000806040838503121561028b57600080fd5b60006102998582860161024e565b92505060206102aa85828601610263565b9150509250929050565b6102bd81610485565b82525050565b60006102d0602083610474565b91507f416d6f756e74206d7573742062652067726561746572207468616e207a65726f6000830152602082019050919050565b6000610310602583610474565b91507f496e73756666696369656e742062616c616e636520666f72206469736275727360008301527f656d656e740000000000000000000000000000000000000000000000000000006020830152604082019050919050565b6000610376602283610474565b91507f4f6e6c79206f776e65722063616e20706572666f726d2074686973206163746960008301527f6f6e0000000000000000000000000000000000000000000000000000000000006020830152604082019050919050565b6103d8816104c9565b82525050565b60006020820190506103f360008301846102b4565b92915050565b60006020820190508181036000830152610412816102c3565b9050919050565b6000602082019050818103600083015261043281610303565b9050919050565b6000602082019050818103600083015261045281610369565b9050919050565b600060208201905061046e60008301846103cf565b92915050565b600082825260208201905092915050565b6000610490826104a9565b9050919050565b60006104a2826104a9565b9050919050565b600073ffffffffffffffffffffffffffffffffffffffff82169050919050565b6000819050919050565b6104dc81610497565b81146104e757600080fd5b50565b6104f3816104c9565b81146104fe57600080fd5b5056fea26469706673582212207f3a3b054426bcbd6568d69388d232218ed66208e9af6ec28756b5258822de9364736f6c63430008000033",
  "immutableReferences": {},
  "source": "pragma solidity ^0.8.0;\r\n\r\nimport \"./DonationContract.sol\";\r\nimport \"./ApplicationContract.sol\";\r\nimport \"./DisbursementContract.sol\";\r\n\r\ncontract ScholarshipFund {\r\n    address public owner;\r\n    DonationContract public donationContract;\r\n    ApplicationContract public applicationContract;\r\n    DisbursementContract public disbursementContract;\r\n\r\n    event ApplicationSubmitted(uint256 id, string mongoDbHash);\r\n    event ApplicationStatusUpdated(uint256 id, string status);\r\n    event FundsDisbursed(uint256 applicationId, uint256 amount);\r\n    event DonationReceived(address donor, uint256 amount);\r\n\r\n\r\n    modifier onlyOwner() {\r\n        require(msg.sender == owner, \"Only owner can perform this action\");\r\n        _;\r\n    }\r\n\r\n    constructor() {\r\n        owner = msg.sender;\r\n        donationContract = new DonationContract();\r\n        applicationContract = new ApplicationContract();\r\n        disbursementContract = new DisbursementContract();\r\n    }\r\n\r\n    // Function to accept donations\r\n    function donate() external payable {\r\n        require(msg.value > 0, \"Donation must be greater than zero\");\r\n        donationContract.donate{ value: msg.value }();\r\n        emit DonationReceived(msg.sender, msg.value);\r\n    }\r\n\r\n    // Function to get total donations\r\n    function getTotalDonations() external view returns (uint256) {\r\n        return donationContract.getTotalDonations();\r\n    }\r\n\r\n    // Functions to interact with ApplicationContract\r\n    function submitApplication( uint256 _requestedAmount, string memory _mongoDbHash) external returns (uint256){\r\n        uint256 app_id = applicationContract.submitApplication(_requestedAmount, _mongoDbHash);\r\n        emit ApplicationSubmitted(app_id, _mongoDbHash);\r\n        return app_id;\r\n    }\r\n\r\n    function updateApplicationStatus(uint256 _id, string memory _status) external onlyOwner {\r\n        applicationContract.updateApplicationStatus(_id, _status);\r\n        emit ApplicationStatusUpdated(_id, _status);\r\n    }\r\n\r\n    // Function to fund the Disbursement Contract\r\n    function fundDisbursementContract() external payable onlyOwner {\r\n        require(msg.value > 0, \"Amount must be greater than zero\");\r\n        payable(address(disbursementContract)).transfer(msg.value);\r\n    }\r\n\r\n    // Function to disburse funds to an approved applicant\r\n    function disburseFunds(uint256 _applicationId) external onlyOwner {\r\n        // Get application details from ApplicationContract\r\n        (, address applicant, uint256 requestedAmount, , string memory status) = applicationContract.applications(_applicationId);\r\n\r\n        require(keccak256(bytes(status)) == keccak256(bytes(\"Approved\")), \"Application is not approved\");\r\n\r\n        // Call disburseFunds on DisbursementContract\r\n        disbursementContract.disburseFunds( payable(applicant), requestedAmount);\r\n        emit FundsDisbursed(_applicationId, requestedAmount);\r\n    }\r\n\r\n    function getOwner() external view returns (address) {\r\n        return owner;\r\n    }\r\n\r\n    // Function to get balance of DisbursementContract\r\n    function getDisbursementBalance() external view returns (uint256) {\r\n        return disbursementContract.getBalance();\r\n    }\r\n}\r\n",
  "sourcePath": "C:\\Users\\saritajoshi\\Documents\\559_Blockchain\\scholarship-proj\\contracts\\ScholarshipFund.sol",
  "compiler": {
    "name": "solc",
    "version": "0.8.0+commit.c7dfd78e.Emscripten.clang"
  },
  "schemaVersion": "3.4.16",
  "updatedAt": "2024-11-14T20:20:20.449Z",
  "networkType": "ethereum",
  "devdoc": {
    "kind": "dev",
    "methods": {},
    "version": 1
  },
  "userdoc": {
    "kind": "user",
    "methods": {},
    "version": 1
  }
}