{
  "contractName": "ScholarshipFund",
  "abi": [
    {
      "inputs": [],
      "stateMutability": "nonpayable",
      "type": "constructor"
    },
    {
      "anonymous": false,
      "inputs": [
        {
          "indexed": false,
          "internalType": "uint256",
          "name": "id",
          "type": "uint256"
        },
        {
          "indexed": false,
          "internalType": "string",
          "name": "status",
          "type": "string"
        }
      ],
      "name": "ApplicationStatusUpdated",
      "type": "event"
    },
    {
      "anonymous": false,
      "inputs": [
        {
          "indexed": false,
          "internalType": "uint256",
          "name": "id",
          "type": "uint256"
        },
        {
          "indexed": false,
          "internalType": "string",
          "name": "mongoDbHash",
          "type": "string"
        }
      ],
      "name": "ApplicationSubmitted",
      "type": "event"
    },
    {
      "anonymous": false,
      "inputs": [
        {
          "indexed": false,
          "internalType": "address",
          "name": "donor",
          "type": "address"
        },
        {
          "indexed": false,
          "internalType": "uint256",
          "name": "amount",
          "type": "uint256"
        }
      ],
      "name": "DonationReceived",
      "type": "event"
    },
    {
      "anonymous": false,
      "inputs": [
        {
          "indexed": false,
          "internalType": "uint256",
          "name": "applicationId",
          "type": "uint256"
        },
        {
          "indexed": false,
          "internalType": "uint256",
          "name": "amount",
          "type": "uint256"
        }
      ],
      "name": "FundsDisbursed",
      "type": "event"
    },
    {
      "inputs": [],
      "name": "applicationCount",
      "outputs": [
        {
          "internalType": "uint256",
          "name": "",
          "type": "uint256"
        }
      ],
      "stateMutability": "view",
      "type": "function",
      "constant": true
    },
    {
      "inputs": [
        {
          "internalType": "uint256",
          "name": "",
          "type": "uint256"
        }
      ],
      "name": "applications",
      "outputs": [
        {
          "internalType": "uint256",
          "name": "id",
          "type": "uint256"
        },
        {
          "internalType": "address",
          "name": "applicant",
          "type": "address"
        },
        {
          "internalType": "uint256",
          "name": "requestedAmount",
          "type": "uint256"
        },
        {
          "internalType": "string",
          "name": "mongoDbHash",
          "type": "string"
        },
        {
          "internalType": "string",
          "name": "status",
          "type": "string"
        }
      ],
      "stateMutability": "view",
      "type": "function",
      "constant": true
    },
    {
      "inputs": [],
      "name": "owner",
      "outputs": [
        {
          "internalType": "address",
          "name": "",
          "type": "address"
        }
      ],
      "stateMutability": "view",
      "type": "function",
      "constant": true
    },
    {
      "inputs": [
        {
          "internalType": "uint256",
          "name": "_requestedAmount",
          "type": "uint256"
        },
        {
          "internalType": "string",
          "name": "_mongoDbHash",
          "type": "string"
        }
      ],
      "name": "submitApplication",
      "outputs": [
        {
          "internalType": "uint256",
          "name": "",
          "type": "uint256"
        }
      ],
      "stateMutability": "nonpayable",
      "type": "function"
    },
    {
      "inputs": [
        {
          "internalType": "uint256",
          "name": "_id",
          "type": "uint256"
        },
        {
          "internalType": "string",
          "name": "_status",
          "type": "string"
        }
      ],
      "name": "updateApplicationStatus",
      "outputs": [],
      "stateMutability": "nonpayable",
      "type": "function"
    },
    {
      "inputs": [
        {
          "internalType": "uint256",
          "name": "_id",
          "type": "uint256"
        }
      ],
      "name": "getApplication",
      "outputs": [
        {
          "internalType": "uint256",
          "name": "",
          "type": "uint256"
        },
        {
          "internalType": "address",
          "name": "",
          "type": "address"
        },
        {
          "internalType": "uint256",
          "name": "",
          "type": "uint256"
        },
        {
          "internalType": "string",
          "name": "",
          "type": "string"
        },
        {
          "internalType": "string",
          "name": "",
          "type": "string"
        }
      ],
      "stateMutability": "view",
      "type": "function",
      "constant": true
    },
    {
      "inputs": [],
      "name": "donate",
      "outputs": [],
      "stateMutability": "payable",
      "type": "function",
      "payable": true
    },
    {
      "inputs": [],
      "name": "getBalance",
      "outputs": [
        {
          "internalType": "uint256",
          "name": "",
          "type": "uint256"
        }
      ],
      "stateMutability": "view",
      "type": "function",
      "constant": true
    },
    {
      "inputs": [
        {
          "internalType": "uint256",
          "name": "_applicationId",
          "type": "uint256"
        }
      ],
      "name": "disburseFunds",
      "outputs": [],
      "stateMutability": "nonpayable",
      "type": "function"
    }
  ],
  "bytecode": "0x608060405234801561001057600080fd5b50336000806101000a81548173ffffffffffffffffffffffffffffffffffffffff021916908373ffffffffffffffffffffffffffffffffffffffff16021790555061152d806100606000396000f3fe6080604052600436106100865760003560e01c80638da5cb5b116100595780638da5cb5b1461015d578063cc212a4814610188578063dfefadff146101b1578063e2aad4a0146101f2578063ed88c68e1461021d57610086565b806309fd8d301461008b57806312065fe0146100c85780631f2f4bfd146100f35780638ad9cbd114610134575b600080fd5b34801561009757600080fd5b506100b260048036038101906100ad9190610d97565b610227565b6040516100bf91906111d7565b60405180910390f35b3480156100d457600080fd5b506100dd6103a8565b6040516100ea91906111d7565b60405180910390f35b3480156100ff57600080fd5b5061011a60048036038101906101159190610d6e565b6103b0565b60405161012b9594939291906111f2565b60405180910390f35b34801561014057600080fd5b5061015b60048036038101906101569190610d97565b6105da565b005b34801561016957600080fd5b50610172610715565b60405161017f91906110d3565b60405180910390f35b34801561019457600080fd5b506101af60048036038101906101aa9190610d6e565b610739565b005b3480156101bd57600080fd5b506101d860048036038101906101d39190610d6e565b610a64565b6040516101e99594939291906111f2565b60405180910390f35b3480156101fe57600080fd5b50610207610bca565b60405161021491906111d7565b60405180910390f35b610225610bd0565b005b60006001600081548092919061023c906113f9565b91905055506040518060a0016040528060015481526020013373ffffffffffffffffffffffffffffffffffffffff1681526020018481526020018381526020016040518060400160405280600781526020017f50656e64696e67000000000000000000000000000000000000000000000000008152508152506002600060015481526020019081526020016000206000820151816000015560208201518160010160006101000a81548173ffffffffffffffffffffffffffffffffffffffff021916908373ffffffffffffffffffffffffffffffffffffffff160217905550604082015181600201556060820151816003019080519060200190610341929190610c4e565b50608082015181600401908051906020019061035e929190610c4e565b509050507fafe27dbcbd1b0c000dd93f8e1a6a15bbd357294a060694dfdc80047e8c4abc6860015483604051610395929190611253565b60405180910390a1600154905092915050565b600047905090565b60008060006060806001548611156103fd576040517f08c379a00000000000000000000000000000000000000000000000000000000081526004016103f490611157565b60405180910390fd5b6000600260008881526020019081526020016000206040518060a0016040529081600082015481526020016001820160009054906101000a900473ffffffffffffffffffffffffffffffffffffffff1673ffffffffffffffffffffffffffffffffffffffff1673ffffffffffffffffffffffffffffffffffffffff16815260200160028201548152602001600382018054610497906113c7565b80601f01602080910402602001604051908101604052809291908181526020018280546104c3906113c7565b80156105105780601f106104e557610100808354040283529160200191610510565b820191906000526020600020905b8154815290600101906020018083116104f357829003601f168201915b50505050508152602001600482018054610529906113c7565b80601f0160208091040260200160405190810160405280929190818152602001828054610555906113c7565b80156105a25780601f10610577576101008083540402835291602001916105a2565b820191906000526020600020905b81548152906001019060200180831161058557829003601f168201915b505050505081525050905080600001518160200151826040015183606001518460800151955095509550955095505091939590929450565b60008054906101000a900473ffffffffffffffffffffffffffffffffffffffff1673ffffffffffffffffffffffffffffffffffffffff163373ffffffffffffffffffffffffffffffffffffffff1614610668576040517f08c379a000000000000000000000000000000000000000000000000000000000815260040161065f90611197565b60405180910390fd5b6001548211156106ad576040517f08c379a00000000000000000000000000000000000000000000000000000000081526004016106a490611157565b60405180910390fd5b806002600084815260200190815260200160002060040190805190602001906106d7929190610c4e565b507f982d2f50711b24245cf16c2aeb3f5f7b969553aa8d2b227e40edd3619f83fe598282604051610709929190611253565b60405180910390a15050565b60008054906101000a900473ffffffffffffffffffffffffffffffffffffffff1681565b60008054906101000a900473ffffffffffffffffffffffffffffffffffffffff1673ffffffffffffffffffffffffffffffffffffffff163373ffffffffffffffffffffffffffffffffffffffff16146107c7576040517f08c379a00000000000000000000000000000000000000000000000000000000081526004016107be90611197565b60405180910390fd5b60015481111561080c576040517f08c379a000000000000000000000000000000000000000000000000000000000815260040161080390611157565b60405180910390fd5b60006002600083815260200190815260200160002090506040518060400160405280600881526020017f417070726f766564000000000000000000000000000000000000000000000000815250805190602001208160040160405161087191906110a7565b6040518091039020146108b9576040517f08c379a00000000000000000000000000000000000000000000000000000000081526004016108b090611177565b60405180910390fd5b4781600201541115610900576040517f08c379a00000000000000000000000000000000000000000000000000000000081526004016108f790611137565b60405180910390fd5b6040518060400160405280600681526020017f46756e646564000000000000000000000000000000000000000000000000000081525081600401908051906020019061094d929190610c4e565b5060008160010160009054906101000a900473ffffffffffffffffffffffffffffffffffffffff1673ffffffffffffffffffffffffffffffffffffffff16826002015460405161099c906110be565b60006040518083038185875af1925050503d80600081146109d9576040519150601f19603f3d011682016040523d82523d6000602084013e6109de565b606091505b5050905080610a22576040517f08c379a0000000000000000000000000000000000000000000000000000000008152600401610a19906111b7565b60405180910390fd5b7f353824989cda192757c4489ea4d5d30fe1801a232ed47c3b79f663b5cbe2e475838360020154604051610a57929190611283565b60405180910390a1505050565b60026020528060005260406000206000915090508060000154908060010160009054906101000a900473ffffffffffffffffffffffffffffffffffffffff1690806002015490806003018054610ab9906113c7565b80601f0160208091040260200160405190810160405280929190818152602001828054610ae5906113c7565b8015610b325780601f10610b0757610100808354040283529160200191610b32565b820191906000526020600020905b815481529060010190602001808311610b1557829003601f168201915b505050505090806004018054610b47906113c7565b80601f0160208091040260200160405190810160405280929190818152602001828054610b73906113c7565b8015610bc05780601f10610b9557610100808354040283529160200191610bc0565b820191906000526020600020905b815481529060010190602001808311610ba357829003601f168201915b5050505050905085565b60015481565b60003411610c13576040517f08c379a0000000000000000000000000000000000000000000000000000000008152600401610c0a90611117565b60405180910390fd5b7f264f630d9efa0d07053a31163641d9fcc0adafc9d9e76f1c37c2ce3a558d2c523334604051610c449291906110ee565b60405180910390a1565b828054610c5a906113c7565b90600052602060002090601f016020900481019282610c7c5760008555610cc3565b82601f10610c9557805160ff1916838001178555610cc3565b82800160010185558215610cc3579182015b82811115610cc2578251825591602001919060010190610ca7565b5b509050610cd09190610cd4565b5090565b5b80821115610ced576000816000905550600101610cd5565b5090565b6000610d04610cff846112dd565b6112ac565b905082815260208101848484011115610d1c57600080fd5b610d27848285611385565b509392505050565b600082601f830112610d4057600080fd5b8135610d50848260208601610cf1565b91505092915050565b600081359050610d68816114e0565b92915050565b600060208284031215610d8057600080fd5b6000610d8e84828501610d59565b91505092915050565b60008060408385031215610daa57600080fd5b6000610db885828601610d59565b925050602083013567ffffffffffffffff811115610dd557600080fd5b610de185828601610d2f565b9150509250929050565b610df481611349565b82525050565b60008154610e07816113c7565b610e11818661132d565b94506001821660008114610e2c5760018114610e3d57610e70565b60ff19831686528186019350610e70565b610e468561130d565b60005b83811015610e6857815481890152600182019150602081019050610e49565b838801955050505b50505092915050565b6000610e8482611322565b610e8e8185611338565b9350610e9e818560208601611394565b610ea7816114cf565b840191505092915050565b6000610ebf602683611338565b91507f446f6e6174696f6e20616d6f756e74206d75737420626520677265617465722060008301527f7468616e203000000000000000000000000000000000000000000000000000006020830152604082019050919050565b6000610f25601283611338565b91507f496e73756666696369656e742066756e647300000000000000000000000000006000830152602082019050919050565b6000610f65601a83611338565b91507f4170706c69636174696f6e20646f6573206e6f742065786973740000000000006000830152602082019050919050565b6000610fa5601c83611338565b91507f4170706c69636174696f6e206d75737420626520617070726f766564000000006000830152602082019050919050565b6000610fe560008361132d565b9150600082019050919050565b6000610fff602283611338565b91507f4f6e6c79206f776e65722063616e20706572666f726d2074686973206163746960008301527f6f6e0000000000000000000000000000000000000000000000000000000000006020830152604082019050919050565b6000611065601383611338565b91507f44697362757273656d656e74206661696c6564000000000000000000000000006000830152602082019050919050565b6110a18161137b565b82525050565b60006110b38284610dfa565b915081905092915050565b60006110c982610fd8565b9150819050919050565b60006020820190506110e86000830184610deb565b92915050565b60006040820190506111036000830185610deb565b6111106020830184611098565b9392505050565b6000602082019050818103600083015261113081610eb2565b9050919050565b6000602082019050818103600083015261115081610f18565b9050919050565b6000602082019050818103600083015261117081610f58565b9050919050565b6000602082019050818103600083015261119081610f98565b9050919050565b600060208201905081810360008301526111b081610ff2565b9050919050565b600060208201905081810360008301526111d081611058565b9050919050565b60006020820190506111ec6000830184611098565b92915050565b600060a0820190506112076000830188611098565b6112146020830187610deb565b6112216040830186611098565b81810360608301526112338185610e79565b905081810360808301526112478184610e79565b90509695505050505050565b60006040820190506112686000830185611098565b818103602083015261127a8184610e79565b90509392505050565b60006040820190506112986000830185611098565b6112a56020830184611098565b9392505050565b6000604051905081810181811067ffffffffffffffff821117156112d3576112d26114a0565b5b8060405250919050565b600067ffffffffffffffff8211156112f8576112f76114a0565b5b601f19601f8301169050602081019050919050565b60008190508160005260206000209050919050565b600081519050919050565b600081905092915050565b600082825260208201905092915050565b60006113548261135b565b9050919050565b600073ffffffffffffffffffffffffffffffffffffffff82169050919050565b6000819050919050565b82818337600083830152505050565b60005b838110156113b2578082015181840152602081019050611397565b838111156113c1576000848401525b50505050565b600060028204905060018216806113df57607f821691505b602082108114156113f3576113f2611471565b5b50919050565b60006114048261137b565b91507fffffffffffffffffffffffffffffffffffffffffffffffffffffffffffffffff82141561143757611436611442565b5b600182019050919050565b7f4e487b7100000000000000000000000000000000000000000000000000000000600052601160045260246000fd5b7f4e487b7100000000000000000000000000000000000000000000000000000000600052602260045260246000fd5b7f4e487b7100000000000000000000000000000000000000000000000000000000600052604160045260246000fd5b6000601f19601f8301169050919050565b6114e98161137b565b81146114f457600080fd5b5056fea2646970667358221220bfb1b610a6330b5d18bc8df9359ae441c19c4f3eb76359d9799aada9e1d9b30a64736f6c63430008000033",
  "immutableReferences": {},
  "source": "pragma solidity ^0.8.0;\r\n\r\ncontract ScholarshipFund {\r\n    address public owner;\r\n    uint256 public applicationCount;\r\n\r\n    struct Application {\r\n        uint256 id;\r\n        address applicant;\r\n        uint256 requestedAmount;\r\n        string mongoDbHash;\r\n        string status; //[Pending, Approved, Rejected, Funded]\r\n    }\r\n\r\n    mapping(uint256 => Application) public applications;\r\n\r\n    event ApplicationSubmitted(uint256 id, string mongoDbHash);\r\n    event ApplicationStatusUpdated(uint256 id, string status);\r\n    event FundsDisbursed(uint256 applicationId, uint256 amount);\r\n    event DonationReceived(address donor, uint256 amount);\r\n\r\n\r\n    modifier onlyOwner() {\r\n        require(msg.sender == owner, \"Only owner can perform this action\");\r\n        _;\r\n    }\r\n\r\n    constructor() {\r\n        owner = msg.sender;\r\n    }\r\n\r\n    // Application Functions\r\n    function submitApplication(uint256 _requestedAmount, string memory _mongoDbHash)\r\n        external\r\n        returns (uint256)\r\n    {\r\n        applicationCount++;\r\n        applications[applicationCount] = Application(\r\n            applicationCount,\r\n            msg.sender,\r\n            _requestedAmount,\r\n            _mongoDbHash,\r\n            \"Pending\"\r\n        );\r\n        emit ApplicationSubmitted(applicationCount, _mongoDbHash);\r\n        return applicationCount;\r\n    }\r\n\r\n    function updateApplicationStatus(uint256 _id, string memory _status) external onlyOwner {\r\n        require(_id <= applicationCount, \"Application does not exist\");\r\n        applications[_id].status = _status;\r\n        emit ApplicationStatusUpdated(_id, _status);\r\n    }\r\n\r\n    function getApplication(uint256 _id)\r\n        external\r\n        view\r\n        returns (\r\n            uint256,\r\n            address,\r\n            uint256,\r\n            string memory,\r\n            string memory\r\n        )\r\n    {\r\n        require(_id <= applicationCount, \"Application does not exist\");\r\n        Application memory app = applications[_id];\r\n        return (\r\n            app.id,\r\n            app.applicant,\r\n            app.requestedAmount,\r\n            app.mongoDbHash,\r\n            app.status\r\n        );\r\n    }\r\n\r\n    // Donation Functions\r\n    function donate() external payable {\r\n        require(msg.value > 0, \"Donation amount must be greater than 0\");\r\n        emit DonationReceived(msg.sender, msg.value);\r\n    }\r\n\r\n    function getBalance() external view returns (uint256) {\r\n        return address(this).balance;\r\n    }\r\n\r\n    // Disbursement Functions\r\n    function disburseFunds(uint256 _applicationId) external onlyOwner {\r\n        require(_applicationId <= applicationCount, \"Application does not exist\");\r\n        Application storage app = applications[_applicationId];\r\n        require(\r\n            keccak256(bytes(app.status)) == keccak256(bytes(\"Approved\")),\r\n            \"Application must be approved\"\r\n        );\r\n        require(app.requestedAmount <= address(this).balance, \"Insufficient funds\");\r\n\r\n        app.status = \"Funded\";\r\n\r\n        (bool success, ) = app.applicant.call{value: app.requestedAmount}(\"\");\r\n        require(success, \"Disbursement failed\");\r\n        emit FundsDisbursed(_applicationId, app.requestedAmount);\r\n    }\r\n}\r\n",
  "sourcePath": "C:\\Users\\saritajoshi\\Documents\\559_Blockchain\\scholarship-proj\\contracts\\ScholarshipFund.sol",
  "compiler": {
    "name": "solc",
    "version": "0.8.0+commit.c7dfd78e.Emscripten.clang"
  },
  "schemaVersion": "3.4.16",
  "updatedAt": "2024-11-21T02:46:54.172Z",
  "networkType": "ethereum",
  "devdoc": {
    "kind": "dev",
    "methods": {},
    "version": 1
  },
  "userdoc": {
    "kind": "user",
    "methods": {},
    "version": 1
  }
}