{
  "contractName": "ScholarshipFund",
  "abi": [
    {
      "inputs": [],
      "stateMutability": "nonpayable",
      "type": "constructor"
    },
    {
      "anonymous": false,
      "inputs": [
        {
          "indexed": false,
          "internalType": "uint256",
          "name": "applicationId",
          "type": "uint256"
        },
        {
          "indexed": false,
          "internalType": "address",
          "name": "reviewer",
          "type": "address"
        },
        {
          "indexed": false,
          "internalType": "string",
          "name": "action",
          "type": "string"
        }
      ],
      "name": "ApplicationReviewed",
      "type": "event"
    },
    {
      "anonymous": false,
      "inputs": [
        {
          "indexed": false,
          "internalType": "uint256",
          "name": "id",
          "type": "uint256"
        },
        {
          "indexed": false,
          "internalType": "string",
          "name": "status",
          "type": "string"
        }
      ],
      "name": "ApplicationStatusUpdated",
      "type": "event"
    },
    {
      "anonymous": false,
      "inputs": [
        {
          "indexed": false,
          "internalType": "uint256",
          "name": "id",
          "type": "uint256"
        },
        {
          "indexed": false,
          "internalType": "string",
          "name": "mongoDbHash",
          "type": "string"
        }
      ],
      "name": "ApplicationSubmitted",
      "type": "event"
    },
    {
      "anonymous": false,
      "inputs": [
        {
          "indexed": false,
          "internalType": "address",
          "name": "donor",
          "type": "address"
        },
        {
          "indexed": false,
          "internalType": "uint256",
          "name": "fundId",
          "type": "uint256"
        },
        {
          "indexed": false,
          "internalType": "uint256",
          "name": "amount",
          "type": "uint256"
        }
      ],
      "name": "DonationReceived",
      "type": "event"
    },
    {
      "anonymous": false,
      "inputs": [
        {
          "indexed": false,
          "internalType": "uint256",
          "name": "fundId",
          "type": "uint256"
        },
        {
          "indexed": false,
          "internalType": "bool",
          "name": "approved",
          "type": "bool"
        }
      ],
      "name": "FundApproved",
      "type": "event"
    },
    {
      "anonymous": false,
      "inputs": [
        {
          "indexed": false,
          "internalType": "uint256",
          "name": "id",
          "type": "uint256"
        },
        {
          "indexed": false,
          "internalType": "address",
          "name": "fundOwner",
          "type": "address"
        },
        {
          "indexed": false,
          "internalType": "string",
          "name": "name",
          "type": "string"
        }
      ],
      "name": "FundCreated",
      "type": "event"
    },
    {
      "anonymous": false,
      "inputs": [
        {
          "indexed": false,
          "internalType": "uint256",
          "name": "applicationId",
          "type": "uint256"
        },
        {
          "indexed": false,
          "internalType": "uint256",
          "name": "amount",
          "type": "uint256"
        }
      ],
      "name": "FundsDisbursed",
      "type": "event"
    },
    {
      "inputs": [],
      "name": "applicationCount",
      "outputs": [
        {
          "internalType": "uint256",
          "name": "",
          "type": "uint256"
        }
      ],
      "stateMutability": "view",
      "type": "function",
      "constant": true
    },
    {
      "inputs": [
        {
          "internalType": "uint256",
          "name": "",
          "type": "uint256"
        }
      ],
      "name": "applications",
      "outputs": [
        {
          "internalType": "uint256",
          "name": "id",
          "type": "uint256"
        },
        {
          "internalType": "address",
          "name": "applicant",
          "type": "address"
        },
        {
          "internalType": "uint256",
          "name": "requestedAmount",
          "type": "uint256"
        },
        {
          "internalType": "string",
          "name": "mongoDbHash",
          "type": "string"
        },
        {
          "internalType": "string",
          "name": "status",
          "type": "string"
        },
        {
          "internalType": "uint256",
          "name": "fundId",
          "type": "uint256"
        },
        {
          "internalType": "uint256",
          "name": "approvals",
          "type": "uint256"
        }
      ],
      "stateMutability": "view",
      "type": "function",
      "constant": true
    },
    {
      "inputs": [],
      "name": "fundCount",
      "outputs": [
        {
          "internalType": "uint256",
          "name": "",
          "type": "uint256"
        }
      ],
      "stateMutability": "view",
      "type": "function",
      "constant": true
    },
    {
      "inputs": [
        {
          "internalType": "uint256",
          "name": "",
          "type": "uint256"
        }
      ],
      "name": "funds",
      "outputs": [
        {
          "internalType": "uint256",
          "name": "id",
          "type": "uint256"
        },
        {
          "internalType": "address",
          "name": "fundOwner",
          "type": "address"
        },
        {
          "internalType": "uint256",
          "name": "balance",
          "type": "uint256"
        },
        {
          "internalType": "uint256",
          "name": "minApprovals",
          "type": "uint256"
        },
        {
          "internalType": "string",
          "name": "name",
          "type": "string"
        },
        {
          "internalType": "bool",
          "name": "approved",
          "type": "bool"
        },
        {
          "internalType": "bool",
          "name": "autoApprove",
          "type": "bool"
        }
      ],
      "stateMutability": "view",
      "type": "function",
      "constant": true
    },
    {
      "inputs": [
        {
          "internalType": "uint256",
          "name": "",
          "type": "uint256"
        },
        {
          "internalType": "address",
          "name": "",
          "type": "address"
        }
      ],
      "name": "hasReviewed",
      "outputs": [
        {
          "internalType": "bool",
          "name": "",
          "type": "bool"
        }
      ],
      "stateMutability": "view",
      "type": "function",
      "constant": true
    },
    {
      "inputs": [],
      "name": "owner",
      "outputs": [
        {
          "internalType": "address",
          "name": "",
          "type": "address"
        }
      ],
      "stateMutability": "view",
      "type": "function",
      "constant": true
    },
    {
      "inputs": [],
      "name": "getOwner",
      "outputs": [
        {
          "internalType": "address",
          "name": "",
          "type": "address"
        }
      ],
      "stateMutability": "view",
      "type": "function",
      "constant": true
    },
    {
      "inputs": [
        {
          "internalType": "uint256",
          "name": "_fundId",
          "type": "uint256"
        }
      ],
      "name": "getFundOwner",
      "outputs": [
        {
          "internalType": "address",
          "name": "",
          "type": "address"
        }
      ],
      "stateMutability": "view",
      "type": "function",
      "constant": true
    },
    {
      "inputs": [
        {
          "internalType": "string",
          "name": "_name",
          "type": "string"
        },
        {
          "internalType": "uint256",
          "name": "_minApprovals",
          "type": "uint256"
        },
        {
          "internalType": "address[]",
          "name": "_reviewers",
          "type": "address[]"
        },
        {
          "internalType": "bool",
          "name": "_autoApprove",
          "type": "bool"
        }
      ],
      "name": "createFund",
      "outputs": [
        {
          "internalType": "uint256",
          "name": "",
          "type": "uint256"
        }
      ],
      "stateMutability": "payable",
      "type": "function",
      "payable": true
    },
    {
      "inputs": [
        {
          "internalType": "uint256",
          "name": "_requestedAmount",
          "type": "uint256"
        },
        {
          "internalType": "string",
          "name": "_mongoDbHash",
          "type": "string"
        },
        {
          "internalType": "uint256",
          "name": "_fundId",
          "type": "uint256"
        }
      ],
      "name": "submitApplication",
      "outputs": [
        {
          "internalType": "uint256",
          "name": "",
          "type": "uint256"
        }
      ],
      "stateMutability": "nonpayable",
      "type": "function"
    },
    {
      "inputs": [
        {
          "internalType": "uint256",
          "name": "_id",
          "type": "uint256"
        },
        {
          "internalType": "bool",
          "name": "approve",
          "type": "bool"
        }
      ],
      "name": "updateApplicationStatus",
      "outputs": [],
      "stateMutability": "nonpayable",
      "type": "function"
    },
    {
      "inputs": [
        {
          "internalType": "uint256",
          "name": "_applicationId",
          "type": "uint256"
        }
      ],
      "name": "disburseFunds",
      "outputs": [],
      "stateMutability": "nonpayable",
      "type": "function"
    },
    {
      "inputs": [
        {
          "internalType": "uint256",
          "name": "_applicationId",
          "type": "uint256"
        },
        {
          "internalType": "bool",
          "name": "approve",
          "type": "bool"
        }
      ],
      "name": "reviewApplication",
      "outputs": [],
      "stateMutability": "nonpayable",
      "type": "function"
    },
    {
      "inputs": [
        {
          "internalType": "uint256",
          "name": "_id",
          "type": "uint256"
        }
      ],
      "name": "getApplication",
      "outputs": [
        {
          "components": [
            {
              "internalType": "uint256",
              "name": "id",
              "type": "uint256"
            },
            {
              "internalType": "address",
              "name": "applicant",
              "type": "address"
            },
            {
              "internalType": "uint256",
              "name": "requestedAmount",
              "type": "uint256"
            },
            {
              "internalType": "string",
              "name": "mongoDbHash",
              "type": "string"
            },
            {
              "internalType": "string",
              "name": "status",
              "type": "string"
            },
            {
              "internalType": "uint256",
              "name": "fundId",
              "type": "uint256"
            },
            {
              "internalType": "uint256",
              "name": "approvals",
              "type": "uint256"
            },
            {
              "internalType": "address[]",
              "name": "approvers",
              "type": "address[]"
            },
            {
              "internalType": "address[]",
              "name": "rejectors",
              "type": "address[]"
            }
          ],
          "internalType": "struct ScholarshipFund.Application",
          "name": "",
          "type": "tuple"
        }
      ],
      "stateMutability": "view",
      "type": "function",
      "constant": true
    },
    {
      "inputs": [
        {
          "internalType": "uint256",
          "name": "_fundId",
          "type": "uint256"
        }
      ],
      "name": "approveFund",
      "outputs": [],
      "stateMutability": "nonpayable",
      "type": "function"
    },
    {
      "inputs": [
        {
          "internalType": "uint256",
          "name": "_fundId",
          "type": "uint256"
        }
      ],
      "name": "donateToFund",
      "outputs": [],
      "stateMutability": "payable",
      "type": "function",
      "payable": true
    },
    {
      "inputs": [
        {
          "internalType": "uint256",
          "name": "_fundId",
          "type": "uint256"
        }
      ],
      "name": "getFund",
      "outputs": [
        {
          "components": [
            {
              "internalType": "uint256",
              "name": "id",
              "type": "uint256"
            },
            {
              "internalType": "address",
              "name": "fundOwner",
              "type": "address"
            },
            {
              "internalType": "uint256",
              "name": "balance",
              "type": "uint256"
            },
            {
              "internalType": "uint256",
              "name": "minApprovals",
              "type": "uint256"
            },
            {
              "internalType": "string",
              "name": "name",
              "type": "string"
            },
            {
              "internalType": "bool",
              "name": "approved",
              "type": "bool"
            },
            {
              "internalType": "address[]",
              "name": "reviewers",
              "type": "address[]"
            },
            {
              "internalType": "bool",
              "name": "autoApprove",
              "type": "bool"
            }
          ],
          "internalType": "struct ScholarshipFund.Fund",
          "name": "",
          "type": "tuple"
        }
      ],
      "stateMutability": "view",
      "type": "function",
      "constant": true
    },
    {
      "inputs": [
        {
          "internalType": "uint256",
          "name": "_fundId",
          "type": "uint256"
        },
        {
          "internalType": "address",
          "name": "_reviewer",
          "type": "address"
        }
      ],
      "name": "addReviewer",
      "outputs": [],
      "stateMutability": "nonpayable",
      "type": "function"
    }
  ],
  "bytecode": "0x608060405234801561001057600080fd5b50336000806101000a81548173ffffffffffffffffffffffffffffffffffffffff021916908373ffffffffffffffffffffffffffffffffffffffff16021790555061369d806100606000396000f3fe6080604052600436106101095760003560e01c8063893d20e811610095578063bc7cbc0c11610064578063bc7cbc0c1461039a578063cc212a48146103ca578063dfefadff146103f3578063e2aad4a014610436578063ee6797321461046157610109565b8063893d20e8146102ca5780638da5cb5b146102f55780639bfba4e9146103205780639fcf0d1a1461035d57610109565b80633f936ff5116100dc5780633f936ff5146101b957806352c8df64146101e45780636d1b1de0146102215780637b8e88951461024a5780637c7198cc1461028d57610109565b806311cd13ac1461010e5780631f2f4bfd1461012a57806323ec4262146101675780632af39d3c14610190575b600080fd5b610128600480360381019061012391906125bf565b61048a565b005b34801561013657600080fd5b50610151600480360381019061014c91906125bf565b610583565b60405161015e919061302a565b60405180910390f35b34801561017357600080fd5b5061018e60048036038101906101899190612624565b6108ba565b005b34801561019c57600080fd5b506101b760048036038101906101b291906125bf565b610a6f565b005b3480156101c557600080fd5b506101ce610bb4565b6040516101db919061306e565b60405180910390f35b3480156101f057600080fd5b5061020b600480360381019061020691906125bf565b610bba565b604051610218919061304c565b60405180910390f35b34801561022d57600080fd5b50610248600480360381019061024391906125e8565b610dfd565b005b34801561025657600080fd5b50610271600480360381019061026c91906125bf565b610f24565b60405161028497969594939291906131bc565b60405180910390f35b34801561029957600080fd5b506102b460048036038101906102af91906125e8565b611028565b6040516102c19190612eaf565b60405180910390f35b3480156102d657600080fd5b506102df611057565b6040516102ec9190612e5d565b60405180910390f35b34801561030157600080fd5b5061030a611080565b6040516103179190612e5d565b60405180910390f35b34801561032c57600080fd5b50610347600480360381019061034291906125bf565b6110a4565b6040516103549190612e5d565b60405180910390f35b34801561036957600080fd5b50610384600480360381019061037f9190612660565b611129565b604051610391919061306e565b60405180910390f35b6103b460048036038101906103af919061252c565b611437565b6040516103c1919061306e565b60405180910390f35b3480156103d657600080fd5b506103f160048036038101906103ec91906125bf565b6115e9565b005b3480156103ff57600080fd5b5061041a600480360381019061041591906125bf565b611756565b60405161042d979695949392919061313f565b60405180910390f35b34801561044257600080fd5b5061044b6118c8565b604051610458919061306e565b60405180910390f35b34801561046d57600080fd5b5061048860048036038101906104839190612624565b6118ce565b005b6002548111156104cf576040517f08c379a00000000000000000000000000000000000000000000000000000000081526004016104c690612eca565b60405180910390fd5b60003411610512576040517f08c379a000000000000000000000000000000000000000000000000000000000815260040161050990612f0a565b60405180910390fd5b60006004600083815260200190815260200160002090503481600201600082825461053d91906133f5565b925050819055507f4b0304ab2f313234b1cea012339c8f8c3bf2c8bb357d81a579cfdb35d2e3d03033833460405161057793929190612e78565b60405180910390a15050565b61058b612201565b6001548211156105d0576040517f08c379a00000000000000000000000000000000000000000000000000000000081526004016105c790612f2a565b60405180910390fd5b60006003600084815260200190815260200160002060405180610120016040529081600082015481526020016001820160009054906101000a900473ffffffffffffffffffffffffffffffffffffffff1673ffffffffffffffffffffffffffffffffffffffff1673ffffffffffffffffffffffffffffffffffffffff1681526020016002820154815260200160038201805461066b90613509565b80601f016020809104026020016040519081016040528092919081815260200182805461069790613509565b80156106e45780601f106106b9576101008083540402835291602001916106e4565b820191906000526020600020905b8154815290600101906020018083116106c757829003601f168201915b505050505081526020016004820180546106fd90613509565b80601f016020809104026020016040519081016040528092919081815260200182805461072990613509565b80156107765780601f1061074b57610100808354040283529160200191610776565b820191906000526020600020905b81548152906001019060200180831161075957829003601f168201915b5050505050815260200160058201548152602001600682015481526020016007820180548060200260200160405190810160405280929190818152602001828054801561081857602002820191906000526020600020905b8160009054906101000a900473ffffffffffffffffffffffffffffffffffffffff1673ffffffffffffffffffffffffffffffffffffffff16815260200190600101908083116107ce575b50505050508152602001600882018054806020026020016040519081016040528092919081815260200182805480156108a657602002820191906000526020600020905b8160009054906101000a900473ffffffffffffffffffffffffffffffffffffffff1673ffffffffffffffffffffffffffffffffffffffff168152602001906001019080831161085c575b505050505081525050905080915050919050565b60008054906101000a900473ffffffffffffffffffffffffffffffffffffffff1673ffffffffffffffffffffffffffffffffffffffff163373ffffffffffffffffffffffffffffffffffffffff1614610948576040517f08c379a000000000000000000000000000000000000000000000000000000000815260040161093f90612fea565b60405180910390fd5b60015482111561098d576040517f08c379a000000000000000000000000000000000000000000000000000000000815260040161098490612f2a565b60405180910390fd5b60006040518060400160405280600881526020017f52656a656374656400000000000000000000000000000000000000000000000081525090508115610a06576040518060400160405280600881526020017f417070726f76656400000000000000000000000000000000000000000000000081525090505b80600360008581526020019081526020016000206004019080519060200190610a30929190612263565b507f982d2f50711b24245cf16c2aeb3f5f7b969553aa8d2b227e40edd3619f83fe598382604051610a6292919061325b565b60405180910390a1505050565b60008054906101000a900473ffffffffffffffffffffffffffffffffffffffff1673ffffffffffffffffffffffffffffffffffffffff163373ffffffffffffffffffffffffffffffffffffffff1614610afd576040517f08c379a0000000000000000000000000000000000000000000000000000000008152600401610af490612fea565b60405180910390fd5b600254811115610b42576040517f08c379a0000000000000000000000000000000000000000000000000000000008152600401610b3990612eca565b60405180910390fd5b600060046000838152602001908152602001600020905060018160050160006101000a81548160ff0219169083151502179055507f371acc2d228b8d05aea02c324f5dd6b24d833fcc225f2973cc880c3aac8ab4b3826001604051610ba8929190613232565b60405180910390a15050565b60025481565b610bc26122e9565b600254821115610c07576040517f08c379a0000000000000000000000000000000000000000000000000000000008152600401610bfe90612eca565b60405180910390fd5b60006004600084815260200190815260200160002060405180610100016040529081600082015481526020016001820160009054906101000a900473ffffffffffffffffffffffffffffffffffffffff1673ffffffffffffffffffffffffffffffffffffffff1673ffffffffffffffffffffffffffffffffffffffff1681526020016002820154815260200160038201548152602001600482018054610cac90613509565b80601f0160208091040260200160405190810160405280929190818152602001828054610cd890613509565b8015610d255780601f10610cfa57610100808354040283529160200191610d25565b820191906000526020600020905b815481529060010190602001808311610d0857829003601f168201915b505050505081526020016005820160009054906101000a900460ff1615151515815260200160068201805480602002602001604051908101604052809291908181526020018280548015610dce57602002820191906000526020600020905b8160009054906101000a900473ffffffffffffffffffffffffffffffffffffffff1673ffffffffffffffffffffffffffffffffffffffff1681526020019060010190808311610d84575b505050505081526020016007820160009054906101000a900460ff161515151581525050905080915050919050565b813373ffffffffffffffffffffffffffffffffffffffff166004600083815260200190815260200160002060010160009054906101000a900473ffffffffffffffffffffffffffffffffffffffff1673ffffffffffffffffffffffffffffffffffffffff1614610ea2576040517f08c379a0000000000000000000000000000000000000000000000000000000008152600401610e9990612fca565b60405180910390fd5b600060046000858152602001908152602001600020905080600601839080600181540180825580915050600190039060005260206000200160009091909190916101000a81548173ffffffffffffffffffffffffffffffffffffffff021916908373ffffffffffffffffffffffffffffffffffffffff16021790555050505050565b60046020528060005260406000206000915090508060000154908060010160009054906101000a900473ffffffffffffffffffffffffffffffffffffffff1690806002015490806003015490806004018054610f7f90613509565b80601f0160208091040260200160405190810160405280929190818152602001828054610fab90613509565b8015610ff85780601f10610fcd57610100808354040283529160200191610ff8565b820191906000526020600020905b815481529060010190602001808311610fdb57829003601f168201915b5050505050908060050160009054906101000a900460ff16908060070160009054906101000a900460ff16905087565b60056020528160005260406000206020528060005260406000206000915091509054906101000a900460ff1681565b60008060009054906101000a900473ffffffffffffffffffffffffffffffffffffffff16905090565b60008054906101000a900473ffffffffffffffffffffffffffffffffffffffff1681565b60006002548211156110eb576040517f08c379a00000000000000000000000000000000000000000000000000000000081526004016110e290612eca565b60405180910390fd5b6004600083815260200190815260200160002060010160009054906101000a900473ffffffffffffffffffffffffffffffffffffffff169050919050565b6000600254821115611170576040517f08c379a000000000000000000000000000000000000000000000000000000000815260040161116790612eca565b60405180910390fd5b600160008154809291906111839061353b565b919050555060405180610120016040528060015481526020013373ffffffffffffffffffffffffffffffffffffffff1681526020018581526020018481526020016040518060400160405280600781526020017f50656e64696e6700000000000000000000000000000000000000000000000000815250815260200183815260200160008152602001600067ffffffffffffffff81111561124d577f4e487b7100000000000000000000000000000000000000000000000000000000600052604160045260246000fd5b60405190808252806020026020018201604052801561127b5781602001602082028036833780820191505090505b508152602001600067ffffffffffffffff8111156112c2577f4e487b7100000000000000000000000000000000000000000000000000000000600052604160045260246000fd5b6040519080825280602002602001820160405280156112f05781602001602082028036833780820191505090505b508152506003600060015481526020019081526020016000206000820151816000015560208201518160010160006101000a81548173ffffffffffffffffffffffffffffffffffffffff021916908373ffffffffffffffffffffffffffffffffffffffff160217905550604082015181600201556060820151816003019080519060200190611380929190612263565b50608082015181600401908051906020019061139d929190612263565b5060a0820151816005015560c0820151816006015560e08201518160070190805190602001906113ce929190612348565b506101008201518160080190805190602001906113ec929190612348565b509050507fafe27dbcbd1b0c000dd93f8e1a6a15bbd357294a060694dfdc80047e8c4abc686001548460405161142392919061325b565b60405180910390a160015490509392505050565b60006002600081548092919061144c9061353b565b919050555060405180610100016040528060025481526020013373ffffffffffffffffffffffffffffffffffffffff1681526020013481526020018581526020018681526020016000151581526020018481526020018315158152506004600060025481526020019081526020016000206000820151816000015560208201518160010160006101000a81548173ffffffffffffffffffffffffffffffffffffffff021916908373ffffffffffffffffffffffffffffffffffffffff1602179055506040820151816002015560608201518160030155608082015181600401908051906020019061153e929190612263565b5060a08201518160050160006101000a81548160ff02191690831515021790555060c082015181600601908051906020019061157b929190612348565b5060e08201518160070160006101000a81548160ff0219169083151502179055509050507f42d1478728914aa7d2380be97ca0a8095b9ee82d43b68878da565b0a8f3e74c260025433876040516115d493929190613089565b60405180910390a16002549050949350505050565b60015481111561162e576040517f08c379a000000000000000000000000000000000000000000000000000000000815260040161162590612f2a565b60405180910390fd5b600060036000838152602001908152602001600020905060006004600083600501548152602001908152602001600020905060008054906101000a900473ffffffffffffffffffffffffffffffffffffffff1673ffffffffffffffffffffffffffffffffffffffff163373ffffffffffffffffffffffffffffffffffffffff16148061170957508060010160009054906101000a900473ffffffffffffffffffffffffffffffffffffffff1673ffffffffffffffffffffffffffffffffffffffff163373ffffffffffffffffffffffffffffffffffffffff16145b611748576040517f08c379a000000000000000000000000000000000000000000000000000000000815260040161173f90612f8a565b60405180910390fd5b61175183611cc9565b505050565b60036020528060005260406000206000915090508060000154908060010160009054906101000a900473ffffffffffffffffffffffffffffffffffffffff16908060020154908060030180546117ab90613509565b80601f01602080910402602001604051908101604052809291908181526020018280546117d790613509565b80156118245780601f106117f957610100808354040283529160200191611824565b820191906000526020600020905b81548152906001019060200180831161180757829003601f168201915b50505050509080600401805461183990613509565b80601f016020809104026020016040519081016040528092919081815260200182805461186590613509565b80156118b25780601f10611887576101008083540402835291602001916118b2565b820191906000526020600020905b81548152906001019060200180831161189557829003601f168201915b5050505050908060050154908060060154905087565b60015481565b600154821115611913576040517f08c379a000000000000000000000000000000000000000000000000000000000815260040161190a90612f2a565b60405180910390fd5b60006003600084815260200190815260200160002090506000600460008360050154815260200190815260200160002090506000816006018054905014806119655750611964826005015433611f60565b5b6119a4576040517f08c379a000000000000000000000000000000000000000000000000000000000815260040161199b90612eea565b60405180910390fd5b6005600085815260200190815260200160002060003373ffffffffffffffffffffffffffffffffffffffff1673ffffffffffffffffffffffffffffffffffffffff16815260200190815260200160002060009054906101000a900460ff1615611a42576040517f08c379a0000000000000000000000000000000000000000000000000000000008152600401611a3990612f6a565b60405180910390fd5b60016005600086815260200190815260200160002060003373ffffffffffffffffffffffffffffffffffffffff1673ffffffffffffffffffffffffffffffffffffffff16815260200190815260200160002060006101000a81548160ff0219169083151502179055508215611b6e57816006016000815480929190611ac69061353b565b919050555081600701339080600181540180825580915050600190039060005260206000200160009091909190916101000a81548173ffffffffffffffffffffffffffffffffffffffff021916908373ffffffffffffffffffffffffffffffffffffffff1602179055507f442eda6b316f38e693830a96ed74b97144c2645cb800881294fd31c7603ddb198433604051611b61929190613103565b60405180910390a1611c0d565b81600801339080600181540180825580915050600190039060005260206000200160009091909190916101000a81548173ffffffffffffffffffffffffffffffffffffffff021916908373ffffffffffffffffffffffffffffffffffffffff1602179055507f442eda6b316f38e693830a96ed74b97144c2645cb800881294fd31c7603ddb198433604051611c049291906130c7565b60405180910390a15b8060030154826006015410611cc3576040518060400160405280600881526020017f417070726f766564000000000000000000000000000000000000000000000000815250826004019080519060200190611c69929190612263565b507f982d2f50711b24245cf16c2aeb3f5f7b969553aa8d2b227e40edd3619f83fe5984604051611c99919061328b565b60405180910390a18060070160009054906101000a900460ff1615611cc257611cc184611cc9565b5b5b50505050565b60006003600083815260200190815260200160002090506000600460008360050154815260200190815260200160002090506040518060400160405280600881526020017f417070726f7665640000000000000000000000000000000000000000000000008152508051906020012082600401604051611d499190612e31565b604051809103902014611d91576040517f08c379a0000000000000000000000000000000000000000000000000000000008152600401611d8890612faa565b60405180910390fd5b806002015482600201541115611ddc576040517f08c379a0000000000000000000000000000000000000000000000000000000008152600401611dd390612f4a565b60405180910390fd5b6040518060400160405280600681526020017f46756e6465640000000000000000000000000000000000000000000000000000815250826004019080519060200190611e29929190612263565b508160020154816002016000828254611e42919061344b565b9250508190555060008260010160009054906101000a900473ffffffffffffffffffffffffffffffffffffffff1673ffffffffffffffffffffffffffffffffffffffff168360020154604051611e9790612e48565b60006040518083038185875af1925050503d8060008114611ed4576040519150601f19603f3d011682016040523d82523d6000602084013e611ed9565b606091505b5050905080611f1d576040517f08c379a0000000000000000000000000000000000000000000000000000000008152600401611f149061300a565b60405180910390fd5b7f353824989cda192757c4489ea4d5d30fe1801a232ed47c3b79f663b5cbe2e475848460020154604051611f529291906132b9565b60405180910390a150505050565b6000806004600085815260200190815260200160002060405180610100016040529081600082015481526020016001820160009054906101000a900473ffffffffffffffffffffffffffffffffffffffff1673ffffffffffffffffffffffffffffffffffffffff1673ffffffffffffffffffffffffffffffffffffffff168152602001600282015481526020016003820154815260200160048201805461200690613509565b80601f016020809104026020016040519081016040528092919081815260200182805461203290613509565b801561207f5780601f106120545761010080835404028352916020019161207f565b820191906000526020600020905b81548152906001019060200180831161206257829003601f168201915b505050505081526020016005820160009054906101000a900460ff161515151581526020016006820180548060200260200160405190810160405280929190818152602001828054801561212857602002820191906000526020600020905b8160009054906101000a900473ffffffffffffffffffffffffffffffffffffffff1673ffffffffffffffffffffffffffffffffffffffff16815260200190600101908083116120de575b505050505081526020016007820160009054906101000a900460ff161515151581525050905060005b8160c00151518110156121f4578373ffffffffffffffffffffffffffffffffffffffff168260c0015182815181106121b2577f4e487b7100000000000000000000000000000000000000000000000000000000600052603260045260246000fd5b602002602001015173ffffffffffffffffffffffffffffffffffffffff1614156121e1576001925050506121fb565b80806121ec9061353b565b915050612151565b5060009150505b92915050565b60405180610120016040528060008152602001600073ffffffffffffffffffffffffffffffffffffffff168152602001600081526020016060815260200160608152602001600081526020016000815260200160608152602001606081525090565b82805461226f90613509565b90600052602060002090601f01602090048101928261229157600085556122d8565b82601f106122aa57805160ff19168380011785556122d8565b828001600101855582156122d8579182015b828111156122d75782518255916020019190600101906122bc565b5b5090506122e591906123d2565b5090565b60405180610100016040528060008152602001600073ffffffffffffffffffffffffffffffffffffffff168152602001600081526020016000815260200160608152602001600015158152602001606081526020016000151581525090565b8280548282559060005260206000209081019282156123c1579160200282015b828111156123c05782518260006101000a81548173ffffffffffffffffffffffffffffffffffffffff021916908373ffffffffffffffffffffffffffffffffffffffff16021790555091602001919060010190612368565b5b5090506123ce91906123d2565b5090565b5b808211156123eb5760008160009055506001016123d3565b5090565b60006124026123fd84613313565b6132e2565b9050808382526020820190508285602086028201111561242157600080fd5b60005b8581101561245157816124378882612499565b845260208401935060208301925050600181019050612424565b5050509392505050565b600061246e6124698461333f565b6132e2565b90508281526020810184848401111561248657600080fd5b6124918482856134c7565b509392505050565b6000813590506124a881613622565b92915050565b600082601f8301126124bf57600080fd5b81356124cf8482602086016123ef565b91505092915050565b6000813590506124e781613639565b92915050565b600082601f8301126124fe57600080fd5b813561250e84826020860161245b565b91505092915050565b60008135905061252681613650565b92915050565b6000806000806080858703121561254257600080fd5b600085013567ffffffffffffffff81111561255c57600080fd5b612568878288016124ed565b945050602061257987828801612517565b935050604085013567ffffffffffffffff81111561259657600080fd5b6125a2878288016124ae565b92505060606125b3878288016124d8565b91505092959194509250565b6000602082840312156125d157600080fd5b60006125df84828501612517565b91505092915050565b600080604083850312156125fb57600080fd5b600061260985828601612517565b925050602061261a85828601612499565b9150509250929050565b6000806040838503121561263757600080fd5b600061264585828601612517565b9250506020612656858286016124d8565b9150509250929050565b60008060006060848603121561267557600080fd5b600061268386828701612517565b935050602084013567ffffffffffffffff8111156126a057600080fd5b6126ac868287016124ed565b92505060406126bd86828701612517565b9150509250925092565b60006126d383836126df565b60208301905092915050565b6126e88161347f565b82525050565b6126f78161347f565b82525050565b600061270882613394565b61271281856133b7565b935061271d8361336f565b8060005b8381101561274e57815161273588826126c7565b9750612740836133aa565b925050600181019050612721565b5085935050505092915050565b61276481613491565b82525050565b61277381613491565b82525050565b6000815461278681613509565b61279081866133c8565b945060018216600081146127ab57600181146127bc576127ef565b60ff198316865281860193506127ef565b6127c58561337f565b60005b838110156127e7578154818901526001820191506020810190506127c8565b838801955050505b50505092915050565b60006128038261339f565b61280d81856133d3565b935061281d8185602086016134d6565b61282681613611565b840191505092915050565b600061283c8261339f565b61284681856133e4565b93506128568185602086016134d6565b61285f81613611565b840191505092915050565b60006128776013836133e4565b91507f46756e6420646f6573206e6f74206578697374000000000000000000000000006000830152602082019050919050565b60006128b76031836133e4565b91507f596f7520617265206e6f7420617574686f72697a656420746f2072657669657760008301527f2074686973206170706c69636174696f6e0000000000000000000000000000006020830152604082019050919050565b600061291d601f836133e4565b91507f446f6e6174696f6e206d7573742062652067726561746572207468616e2030006000830152602082019050919050565b600061295d6008836133e4565b91507f52656a65637465640000000000000000000000000000000000000000000000006000830152602082019050919050565b600061299d6008836133e4565b91507f417070726f7665640000000000000000000000000000000000000000000000006000830152602082019050919050565b60006129dd601a836133e4565b91507f4170706c69636174696f6e20646f6573206e6f742065786973740000000000006000830152602082019050919050565b6000612a1d601e836133e4565b91507f496e73756666696369656e742066756e647320696e207468652066756e6400006000830152602082019050919050565b6000612a5d6021836133e4565b91507f416c72656164792072657669657765642074686973206170706c69636174696f60008301527f6e000000000000000000000000000000000000000000000000000000000000006020830152604082019050919050565b6000612ac3602a836133e4565b91507f43616c6c6572206973206e6f7420617574686f72697a656420746f206469736260008301527f757273652066756e6473000000000000000000000000000000000000000000006020830152604082019050919050565b6000612b29601c836133e4565b91507f4170706c69636174696f6e206d75737420626520617070726f766564000000006000830152602082019050919050565b6000612b69602b836133e4565b91507f4f6e6c79207468652066756e64206f776e65722063616e20706572666f726d2060008301527f7468697320616374696f6e0000000000000000000000000000000000000000006020830152604082019050919050565b6000612bcf6000836133c8565b9150600082019050919050565b6000612be96022836133e4565b91507f4f6e6c79206f776e65722063616e20706572666f726d2074686973206163746960008301527f6f6e0000000000000000000000000000000000000000000000000000000000006020830152604082019050919050565b6000612c4f6013836133e4565b91507f44697362757273656d656e74206661696c6564000000000000000000000000006000830152602082019050919050565b600061012083016000830151612c9b6000860182612e13565b506020830151612cae60208601826126df565b506040830151612cc16040860182612e13565b5060608301518482036060860152612cd982826127f8565b91505060808301518482036080860152612cf382826127f8565b91505060a0830151612d0860a0860182612e13565b5060c0830151612d1b60c0860182612e13565b5060e083015184820360e0860152612d3382826126fd565b915050610100830151848203610100860152612d4f82826126fd565b9150508091505092915050565b600061010083016000830151612d756000860182612e13565b506020830151612d8860208601826126df565b506040830151612d9b6040860182612e13565b506060830151612dae6060860182612e13565b5060808301518482036080860152612dc682826127f8565b91505060a0830151612ddb60a086018261275b565b5060c083015184820360c0860152612df382826126fd565b91505060e0830151612e0860e086018261275b565b508091505092915050565b612e1c816134bd565b82525050565b612e2b816134bd565b82525050565b6000612e3d8284612779565b915081905092915050565b6000612e5382612bc2565b9150819050919050565b6000602082019050612e7260008301846126ee565b92915050565b6000606082019050612e8d60008301866126ee565b612e9a6020830185612e22565b612ea76040830184612e22565b949350505050565b6000602082019050612ec4600083018461276a565b92915050565b60006020820190508181036000830152612ee38161286a565b9050919050565b60006020820190508181036000830152612f03816128aa565b9050919050565b60006020820190508181036000830152612f2381612910565b9050919050565b60006020820190508181036000830152612f43816129d0565b9050919050565b60006020820190508181036000830152612f6381612a10565b9050919050565b60006020820190508181036000830152612f8381612a50565b9050919050565b60006020820190508181036000830152612fa381612ab6565b9050919050565b60006020820190508181036000830152612fc381612b1c565b9050919050565b60006020820190508181036000830152612fe381612b5c565b9050919050565b6000602082019050818103600083015261300381612bdc565b9050919050565b6000602082019050818103600083015261302381612c42565b9050919050565b600060208201905081810360008301526130448184612c82565b905092915050565b600060208201905081810360008301526130668184612d5c565b905092915050565b60006020820190506130836000830184612e22565b92915050565b600060608201905061309e6000830186612e22565b6130ab60208301856126ee565b81810360408301526130bd8184612831565b9050949350505050565b60006060820190506130dc6000830185612e22565b6130e960208301846126ee565b81810360408301526130fa81612950565b90509392505050565b60006060820190506131186000830185612e22565b61312560208301846126ee565b818103604083015261313681612990565b90509392505050565b600060e082019050613154600083018a612e22565b61316160208301896126ee565b61316e6040830188612e22565b81810360608301526131808187612831565b905081810360808301526131948186612831565b90506131a360a0830185612e22565b6131b060c0830184612e22565b98975050505050505050565b600060e0820190506131d1600083018a612e22565b6131de60208301896126ee565b6131eb6040830188612e22565b6131f86060830187612e22565b818103608083015261320a8186612831565b905061321960a083018561276a565b61322660c083018461276a565b98975050505050505050565b60006040820190506132476000830185612e22565b613254602083018461276a565b9392505050565b60006040820190506132706000830185612e22565b81810360208301526132828184612831565b90509392505050565b60006040820190506132a06000830184612e22565b81810360208301526132b181612990565b905092915050565b60006040820190506132ce6000830185612e22565b6132db6020830184612e22565b9392505050565b6000604051905081810181811067ffffffffffffffff82111715613309576133086135e2565b5b8060405250919050565b600067ffffffffffffffff82111561332e5761332d6135e2565b5b602082029050602081019050919050565b600067ffffffffffffffff82111561335a576133596135e2565b5b601f19601f8301169050602081019050919050565b6000819050602082019050919050565b60008190508160005260206000209050919050565b600081519050919050565b600081519050919050565b6000602082019050919050565b600082825260208201905092915050565b600081905092915050565b600082825260208201905092915050565b600082825260208201905092915050565b6000613400826134bd565b915061340b836134bd565b9250827fffffffffffffffffffffffffffffffffffffffffffffffffffffffffffffffff038211156134405761343f613584565b5b828201905092915050565b6000613456826134bd565b9150613461836134bd565b92508282101561347457613473613584565b5b828203905092915050565b600061348a8261349d565b9050919050565b60008115159050919050565b600073ffffffffffffffffffffffffffffffffffffffff82169050919050565b6000819050919050565b82818337600083830152505050565b60005b838110156134f45780820151818401526020810190506134d9565b83811115613503576000848401525b50505050565b6000600282049050600182168061352157607f821691505b60208210811415613535576135346135b3565b5b50919050565b6000613546826134bd565b91507fffffffffffffffffffffffffffffffffffffffffffffffffffffffffffffffff82141561357957613578613584565b5b600182019050919050565b7f4e487b7100000000000000000000000000000000000000000000000000000000600052601160045260246000fd5b7f4e487b7100000000000000000000000000000000000000000000000000000000600052602260045260246000fd5b7f4e487b7100000000000000000000000000000000000000000000000000000000600052604160045260246000fd5b6000601f19601f8301169050919050565b61362b8161347f565b811461363657600080fd5b50565b61364281613491565b811461364d57600080fd5b50565b613659816134bd565b811461366457600080fd5b5056fea2646970667358221220da17a3a8596bf180df35b15fea87fe3492fe8cb33ccb82b3de963edca2d5330064736f6c63430008000033",
  "immutableReferences": {},
  "source": "// SPDX-License-Identifier: MIT\r\npragma solidity ^0.8.0;\r\n\r\ncontract ScholarshipFund {\r\n    address public owner;\r\n    uint256 public applicationCount;\r\n    uint256 public fundCount;\r\n\r\n    struct Application {\r\n        uint256 id;\r\n        address applicant;\r\n        uint256 requestedAmount;\r\n        string mongoDbHash;\r\n        string status; // [Pending, Approved, Rejected, Funded]\r\n        uint256 fundId; // ID of the fund the application is tied to\r\n        uint256 approvals; // Number of approvals received\r\n        address[] approvers; // List of addresses who approved this application\r\n        address[] rejectors; // List of addresses who rejected this application\r\n    }\r\n\r\n    struct Fund {\r\n        uint256 id;\r\n        address fundOwner;\r\n        uint256 balance;\r\n        uint256 minApprovals;\r\n        string name;\r\n        bool approved; // Whether the fund is approved by the contract owner\r\n        address[] reviewers; // List of reviewer addresses for this fund (empty means open to all)\r\n        bool autoApprove;\r\n    }\r\n\r\n    mapping(uint256 => Application) public applications;\r\n    mapping(uint256 => Fund) public funds;\r\n    mapping(uint256 => mapping(address => bool)) public hasReviewed; // Tracks if a reviewer has already reviewed an application\r\n\r\n    event ApplicationSubmitted(uint256 id, string mongoDbHash);\r\n    event ApplicationStatusUpdated(uint256 id, string status);\r\n    event FundsDisbursed(uint256 applicationId, uint256 amount);\r\n    event DonationReceived(address donor, uint256 fundId, uint256 amount);\r\n    event FundCreated(uint256 id, address fundOwner, string name);\r\n    event FundApproved(uint256 fundId, bool approved);\r\n    event ApplicationReviewed(\r\n        uint256 applicationId,\r\n        address reviewer,\r\n        string action\r\n    );\r\n\r\n    modifier onlyOwner() {\r\n        require(msg.sender == owner, \"Only owner can perform this action\");\r\n        _;\r\n    }\r\n\r\n    modifier onlyFundOwner(uint256 _fundId) {\r\n        require(\r\n            funds[_fundId].fundOwner == msg.sender,\r\n            \"Only the fund owner can perform this action\"\r\n        );\r\n        _;\r\n    }\r\n\r\n    constructor() {\r\n        owner = msg.sender;\r\n    }\r\n\r\n    function getOwner() public view returns (address) {\r\n        return owner;\r\n    }\r\n\r\n    function getFundOwner(uint256 _fundId) public view returns (address) {\r\n        require(_fundId <= fundCount, \"Fund does not exist\");\r\n        return funds[_fundId].fundOwner;\r\n    }\r\n\r\n    // Fund Functions\r\n    function createFund(\r\n        string memory _name,\r\n        uint256 _minApprovals,\r\n        address[] memory _reviewers,\r\n        bool _autoApprove\r\n    ) external payable returns (uint256) {\r\n        fundCount++;\r\n        funds[fundCount] = Fund(\r\n            fundCount,\r\n            msg.sender,\r\n            msg.value,\r\n            _minApprovals,\r\n            _name,\r\n            false,\r\n            _reviewers,\r\n            _autoApprove\r\n        );\r\n        emit FundCreated(fundCount, msg.sender, _name);\r\n        return fundCount;\r\n    }\r\n\r\n    function submitApplication(\r\n        uint256 _requestedAmount,\r\n        string memory _mongoDbHash,\r\n        uint256 _fundId\r\n    ) external returns (uint256) {\r\n        require(_fundId <= fundCount, \"Fund does not exist\");\r\n\r\n        applicationCount++;\r\n        applications[applicationCount] = Application(\r\n            applicationCount,\r\n            msg.sender,\r\n            _requestedAmount,\r\n            _mongoDbHash,\r\n            \"Pending\",\r\n            _fundId,\r\n            0,\r\n            new address[](0),\r\n            new address[](0)\r\n        );\r\n        emit ApplicationSubmitted(applicationCount, _mongoDbHash);\r\n        return applicationCount;\r\n    }\r\n\r\n    function updateApplicationStatus(\r\n        uint256 _id,\r\n        bool approve\r\n    ) external onlyOwner {\r\n        require(_id <= applicationCount, \"Application does not exist\");\r\n        string memory _status = \"Rejected\";\r\n        if (approve) {\r\n            _status = \"Approved\";\r\n        }\r\n        applications[_id].status = _status;\r\n        emit ApplicationStatusUpdated(_id, _status);\r\n    }\r\n\r\n    function disburseFunds(uint256 _applicationId) external {\r\n        require(\r\n            _applicationId <= applicationCount,\r\n            \"Application does not exist\"\r\n        );\r\n\r\n        Application storage app = applications[_applicationId];\r\n        Fund storage fund = funds[app.fundId];\r\n\r\n        // Check caller authorization for manual disbursement\r\n        require(\r\n            msg.sender == owner || msg.sender == fund.fundOwner,\r\n            \"Caller is not authorized to disburse funds\"\r\n        );\r\n\r\n        _disburseFunds(_applicationId);\r\n    }\r\n\r\n    function _disburseFunds(uint256 _applicationId) internal {\r\n        Application storage app = applications[_applicationId];\r\n        Fund storage fund = funds[app.fundId];\r\n\r\n        // Ensure the application is approved\r\n        require(\r\n            keccak256(bytes(app.status)) == keccak256(bytes(\"Approved\")),\r\n            \"Application must be approved\"\r\n        );\r\n\r\n        // Ensure the fund has sufficient balance\r\n        require(\r\n            app.requestedAmount <= fund.balance,\r\n            \"Insufficient funds in the fund\"\r\n        );\r\n\r\n        // Update application status and deduct balance\r\n        app.status = \"Funded\";\r\n        fund.balance -= app.requestedAmount;\r\n\r\n        // Transfer the requested amount to the applicant\r\n        (bool success, ) = app.applicant.call{value: app.requestedAmount}(\"\");\r\n        require(success, \"Disbursement failed\");\r\n\r\n        emit FundsDisbursed(_applicationId, app.requestedAmount);\r\n    }\r\n\r\n    function reviewApplication(uint256 _applicationId, bool approve) external {\r\n        require(\r\n            _applicationId <= applicationCount,\r\n            \"Application does not exist\"\r\n        );\r\n        Application storage app = applications[_applicationId];\r\n        Fund storage fund = funds[app.fundId];\r\n\r\n        // Check if the fund is open to all or the reviewer is specified\r\n        require(\r\n            fund.reviewers.length == 0 || isReviewer(app.fundId, msg.sender),\r\n            \"You are not authorized to review this application\"\r\n        );\r\n\r\n        require(\r\n            !hasReviewed[_applicationId][msg.sender],\r\n            \"Already reviewed this application\"\r\n        );\r\n\r\n        hasReviewed[_applicationId][msg.sender] = true;\r\n\r\n        if (approve) {\r\n            app.approvals++;\r\n            app.approvers.push(msg.sender);\r\n            emit ApplicationReviewed(_applicationId, msg.sender, \"Approved\");\r\n        } else {\r\n            app.rejectors.push(msg.sender);\r\n            emit ApplicationReviewed(_applicationId, msg.sender, \"Rejected\");\r\n        }\r\n\r\n        // Automatically set status to \"Approved\" if minimum approvals are met\r\n        if (app.approvals >= fund.minApprovals) {\r\n            app.status = \"Approved\";\r\n            emit ApplicationStatusUpdated(_applicationId, \"Approved\");\r\n\r\n            // Automatically disburse funds if autoApprove is enabled\r\n            if (fund.autoApprove) {\r\n                _disburseFunds(_applicationId);\r\n            }\r\n        }\r\n    }\r\n\r\n    function getApplication(\r\n        uint256 _id\r\n    ) external view returns (Application memory) {\r\n        require(_id <= applicationCount, \"Application does not exist\");\r\n        Application memory app = applications[_id];\r\n        return app;\r\n    }\r\n\r\n    function approveFund(uint256 _fundId) external onlyOwner {\r\n        require(_fundId <= fundCount, \"Fund does not exist\");\r\n        Fund storage fund = funds[_fundId];\r\n        fund.approved = true;\r\n        emit FundApproved(_fundId, true);\r\n    }\r\n\r\n    function donateToFund(uint256 _fundId) external payable {\r\n        require(_fundId <= fundCount, \"Fund does not exist\");\r\n        require(msg.value > 0, \"Donation must be greater than 0\");\r\n\r\n        Fund storage fund = funds[_fundId];\r\n        fund.balance += msg.value;\r\n\r\n        emit DonationReceived(msg.sender, _fundId, msg.value);\r\n    }\r\n\r\n    function getFund(uint256 _fundId) external view returns (Fund memory) {\r\n        require(_fundId <= fundCount, \"Fund does not exist\");\r\n        Fund memory fund = funds[_fundId];\r\n        return fund;\r\n    }\r\n\r\n    // Helper Functions\r\n    function isReviewer(\r\n        uint256 _fundId,\r\n        address _reviewer\r\n    ) internal view returns (bool) {\r\n        Fund memory fund = funds[_fundId];\r\n        for (uint256 i = 0; i < fund.reviewers.length; i++) {\r\n            if (fund.reviewers[i] == _reviewer) {\r\n                return true;\r\n            }\r\n        }\r\n        return false;\r\n    }\r\n\r\n    function addReviewer(\r\n        uint256 _fundId,\r\n        address _reviewer\r\n    ) external onlyFundOwner(_fundId) {\r\n        // Access the fund in storage\r\n        Fund storage fund = funds[_fundId];\r\n        fund.reviewers.push(_reviewer); // Add the reviewer to the reviewers array\r\n    }\r\n}\r\n",
  "sourcePath": "C:\\Users\\saritajoshi\\Documents\\559_Blockchain\\scholarship-proj\\contracts\\ScholarshipFUnd.sol",
  "compiler": {
    "name": "solc",
    "version": "0.8.0+commit.c7dfd78e.Emscripten.clang"
  },
  "schemaVersion": "3.4.16",
  "updatedAt": "2024-12-10T22:36:50.237Z",
  "networkType": "ethereum",
  "devdoc": {
    "kind": "dev",
    "methods": {},
    "version": 1
  },
  "userdoc": {
    "kind": "user",
    "methods": {},
    "version": 1
  }
}