{
  "contractName": "ScholarshipFund",
  "abi": [
    {
      "inputs": [],
      "stateMutability": "nonpayable",
      "type": "constructor"
    },
    {
      "inputs": [],
      "name": "applicationContract",
      "outputs": [
        {
          "internalType": "contract ApplicationContract",
          "name": "",
          "type": "address"
        }
      ],
      "stateMutability": "view",
      "type": "function",
      "constant": true
    },
    {
      "inputs": [],
      "name": "disbursementContract",
      "outputs": [
        {
          "internalType": "contract DisbursementContract",
          "name": "",
          "type": "address"
        }
      ],
      "stateMutability": "view",
      "type": "function",
      "constant": true
    },
    {
      "inputs": [],
      "name": "donationContract",
      "outputs": [
        {
          "internalType": "contract DonationContract",
          "name": "",
          "type": "address"
        }
      ],
      "stateMutability": "view",
      "type": "function",
      "constant": true
    },
    {
      "inputs": [],
      "name": "owner",
      "outputs": [
        {
          "internalType": "address",
          "name": "",
          "type": "address"
        }
      ],
      "stateMutability": "view",
      "type": "function",
      "constant": true
    },
    {
      "inputs": [],
      "name": "donate",
      "outputs": [],
      "stateMutability": "payable",
      "type": "function",
      "payable": true
    },
    {
      "inputs": [],
      "name": "getTotalDonations",
      "outputs": [
        {
          "internalType": "uint256",
          "name": "",
          "type": "uint256"
        }
      ],
      "stateMutability": "view",
      "type": "function",
      "constant": true
    },
    {
      "inputs": [
        {
          "internalType": "uint256",
          "name": "_requestedAmount",
          "type": "uint256"
        },
        {
          "internalType": "string",
          "name": "_mongoDbHash",
          "type": "string"
        }
      ],
      "name": "submitApplication",
      "outputs": [],
      "stateMutability": "nonpayable",
      "type": "function"
    },
    {
      "inputs": [
        {
          "internalType": "address",
          "name": "applicantAddress",
          "type": "address"
        },
        {
          "internalType": "string",
          "name": "_status",
          "type": "string"
        }
      ],
      "name": "updateApplicationStatus",
      "outputs": [],
      "stateMutability": "nonpayable",
      "type": "function"
    },
    {
      "inputs": [],
      "name": "fundDisbursementContract",
      "outputs": [],
      "stateMutability": "payable",
      "type": "function",
      "payable": true
    },
    {
      "inputs": [
        {
          "internalType": "address",
          "name": "applicantAddress",
          "type": "address"
        }
      ],
      "name": "disburseFunds",
      "outputs": [],
      "stateMutability": "nonpayable",
      "type": "function"
    },
    {
      "inputs": [],
      "name": "getOwner",
      "outputs": [
        {
          "internalType": "address",
          "name": "",
          "type": "address"
        }
      ],
      "stateMutability": "view",
      "type": "function",
      "constant": true
    },
    {
      "inputs": [],
      "name": "getDisbursementBalance",
      "outputs": [
        {
          "internalType": "uint256",
          "name": "",
          "type": "uint256"
        }
      ],
      "stateMutability": "view",
      "type": "function",
      "constant": true
    }
  ],
  "bytecode": "0x60806040523480156200001157600080fd5b50336000806101000a81548173ffffffffffffffffffffffffffffffffffffffff021916908373ffffffffffffffffffffffffffffffffffffffff16021790555060405162000060906200019c565b604051809103906000f0801580156200007d573d6000803e3d6000fd5b50600160006101000a81548173ffffffffffffffffffffffffffffffffffffffff021916908373ffffffffffffffffffffffffffffffffffffffff160217905550604051620000cc90620001aa565b604051809103906000f080158015620000e9573d6000803e3d6000fd5b50600260006101000a81548173ffffffffffffffffffffffffffffffffffffffff021916908373ffffffffffffffffffffffffffffffffffffffff1602179055506040516200013890620001b8565b604051809103906000f08015801562000155573d6000803e3d6000fd5b50600360006101000a81548173ffffffffffffffffffffffffffffffffffffffff021916908373ffffffffffffffffffffffffffffffffffffffff160217905550620001c6565b61040580620014c983390190565b610d0980620018ce83390190565b61068e80620025d783390190565b6112f380620001d66000396000f3fe6080604052600436106100a75760003560e01c8063893d20e811610064578063893d20e8146101895780638da5cb5b146101b4578063b6f57521146101df578063ecd4b7d614610208578063ed88c68e14610233578063fce85fd51461023d576100a7565b8063052db2ec146100ac57806309fd8d30146100d757806359e92f0d1461010057806365027bf01461012957806375624cb914610133578063777c658f1461015e575b600080fd5b3480156100b857600080fd5b506100c1610268565b6040516100ce919061108b565b60405180910390f35b3480156100e357600080fd5b506100fe60048036038101906100f99190610d05565b61030f565b005b34801561010c57600080fd5b5061012760048036038101906101229190610be1565b6103a2565b005b6101316104c3565b005b34801561013f57600080fd5b506101486105ff565b6040516101559190610ff0565b60405180910390f35b34801561016a57600080fd5b50610173610625565b604051610180919061108b565b60405180910390f35b34801561019557600080fd5b5061019e6106cc565b6040516101ab9190610f38565b60405180910390f35b3480156101c057600080fd5b506101c96106f5565b6040516101d69190610f38565b60405180910390f35b3480156101eb57600080fd5b5061020660048036038101906102019190610bb8565b610719565b005b34801561021457600080fd5b5061021d610980565b60405161022a9190610fd5565b60405180910390f35b61023b6109a6565b005b34801561024957600080fd5b50610252610a6e565b60405161025f9190610fba565b60405180910390f35b6000600360009054906101000a900473ffffffffffffffffffffffffffffffffffffffff1673ffffffffffffffffffffffffffffffffffffffff166312065fe06040518163ffffffff1660e01b815260040160206040518083038186803b1580156102d257600080fd5b505afa1580156102e6573d6000803e3d6000fd5b505050506040513d601f19601f8201168201806040525081019061030a9190610c35565b905090565b600260009054906101000a900473ffffffffffffffffffffffffffffffffffffffff1673ffffffffffffffffffffffffffffffffffffffff166309fd8d3083836040518363ffffffff1660e01b815260040161036c9291906110a6565b600060405180830381600087803b15801561038657600080fd5b505af115801561039a573d6000803e3d6000fd5b505050505050565b60008054906101000a900473ffffffffffffffffffffffffffffffffffffffff1673ffffffffffffffffffffffffffffffffffffffff163373ffffffffffffffffffffffffffffffffffffffff1614610430576040517f08c379a00000000000000000000000000000000000000000000000000000000081526004016104279061104b565b60405180910390fd5b600260009054906101000a900473ffffffffffffffffffffffffffffffffffffffff1673ffffffffffffffffffffffffffffffffffffffff166359e92f0d83836040518363ffffffff1660e01b815260040161048d929190610f8a565b600060405180830381600087803b1580156104a757600080fd5b505af11580156104bb573d6000803e3d6000fd5b505050505050565b60008054906101000a900473ffffffffffffffffffffffffffffffffffffffff1673ffffffffffffffffffffffffffffffffffffffff163373ffffffffffffffffffffffffffffffffffffffff1614610551576040517f08c379a00000000000000000000000000000000000000000000000000000000081526004016105489061104b565b60405180910390fd5b60003411610594576040517f08c379a000000000000000000000000000000000000000000000000000000000815260040161058b9061102b565b60405180910390fd5b600360009054906101000a900473ffffffffffffffffffffffffffffffffffffffff1673ffffffffffffffffffffffffffffffffffffffff166108fc349081150290604051600060405180830381858888f193505050501580156105fc573d6000803e3d6000fd5b50565b600160009054906101000a900473ffffffffffffffffffffffffffffffffffffffff1681565b6000600160009054906101000a900473ffffffffffffffffffffffffffffffffffffffff1673ffffffffffffffffffffffffffffffffffffffff1663777c658f6040518163ffffffff1660e01b815260040160206040518083038186803b15801561068f57600080fd5b505afa1580156106a3573d6000803e3d6000fd5b505050506040513d601f19601f820116820180604052508101906106c79190610c35565b905090565b60008060009054906101000a900473ffffffffffffffffffffffffffffffffffffffff16905090565b60008054906101000a900473ffffffffffffffffffffffffffffffffffffffff1681565b60008054906101000a900473ffffffffffffffffffffffffffffffffffffffff1673ffffffffffffffffffffffffffffffffffffffff163373ffffffffffffffffffffffffffffffffffffffff16146107a7576040517f08c379a000000000000000000000000000000000000000000000000000000000815260040161079e9061104b565b60405180910390fd5b6000806000600260009054906101000a900473ffffffffffffffffffffffffffffffffffffffff1673ffffffffffffffffffffffffffffffffffffffff16637c3bf42d856040518263ffffffff1660e01b81526004016108079190610f38565b60006040518083038186803b15801561081f57600080fd5b505afa158015610833573d6000803e3d6000fd5b505050506040513d6000823e3d601f19601f8201168201806040525081019061085c9190610c5e565b94505093509350506040518060400160405280600881526020017f417070726f766564000000000000000000000000000000000000000000000000815250805190602001208180519060200120146108e9576040517f08c379a00000000000000000000000000000000000000000000000000000000081526004016108e09061106b565b60405180910390fd5b600360009054906101000a900473ffffffffffffffffffffffffffffffffffffffff1673ffffffffffffffffffffffffffffffffffffffff166363113d328585856040518463ffffffff1660e01b815260040161094893929190610f53565b600060405180830381600087803b15801561096257600080fd5b505af1158015610976573d6000803e3d6000fd5b5050505050505050565b600360009054906101000a900473ffffffffffffffffffffffffffffffffffffffff1681565b600034116109e9576040517f08c379a00000000000000000000000000000000000000000000000000000000081526004016109e09061100b565b60405180910390fd5b600160009054906101000a900473ffffffffffffffffffffffffffffffffffffffff1673ffffffffffffffffffffffffffffffffffffffff1663ed88c68e346040518263ffffffff1660e01b81526004016000604051808303818588803b158015610a5357600080fd5b505af1158015610a67573d6000803e3d6000fd5b5050505050565b600260009054906101000a900473ffffffffffffffffffffffffffffffffffffffff1681565b6000610aa7610aa284611107565b6110d6565b905082815260208101848484011115610abf57600080fd5b610aca84828561120d565b509392505050565b6000610ae5610ae084611107565b6110d6565b905082815260208101848484011115610afd57600080fd5b610b0884828561121c565b509392505050565b600081359050610b1f8161128f565b92915050565b600081519050610b348161128f565b92915050565b600082601f830112610b4b57600080fd5b8135610b5b848260208601610a94565b91505092915050565b600082601f830112610b7557600080fd5b8151610b85848260208601610ad2565b91505092915050565b600081359050610b9d816112a6565b92915050565b600081519050610bb2816112a6565b92915050565b600060208284031215610bca57600080fd5b6000610bd884828501610b10565b91505092915050565b60008060408385031215610bf457600080fd5b6000610c0285828601610b10565b925050602083013567ffffffffffffffff811115610c1f57600080fd5b610c2b85828601610b3a565b9150509250929050565b600060208284031215610c4757600080fd5b6000610c5584828501610ba3565b91505092915050565b600080600080600060a08688031215610c7657600080fd5b6000610c8488828901610ba3565b9550506020610c9588828901610b25565b9450506040610ca688828901610ba3565b935050606086015167ffffffffffffffff811115610cc357600080fd5b610ccf88828901610b64565b925050608086015167ffffffffffffffff811115610cec57600080fd5b610cf888828901610b64565b9150509295509295909350565b60008060408385031215610d1857600080fd5b6000610d2685828601610b8e565b925050602083013567ffffffffffffffff811115610d4357600080fd5b610d4f85828601610b3a565b9150509250929050565b610d6281611165565b82525050565b610d7181611153565b82525050565b610d80816111a1565b82525050565b610d8f816111c5565b82525050565b610d9e816111e9565b82525050565b6000610daf82611137565b610db98185611142565b9350610dc981856020860161121c565b610dd28161127e565b840191505092915050565b6000610dea602283611142565b91507f446f6e6174696f6e206d7573742062652067726561746572207468616e207a6560008301527f726f0000000000000000000000000000000000000000000000000000000000006020830152604082019050919050565b6000610e50602083611142565b91507f416d6f756e74206d7573742062652067726561746572207468616e207a65726f6000830152602082019050919050565b6000610e90602283611142565b91507f4f6e6c79206f776e65722063616e20706572666f726d2074686973206163746960008301527f6f6e0000000000000000000000000000000000000000000000000000000000006020830152604082019050919050565b6000610ef6601b83611142565b91507f4170706c69636174696f6e206973206e6f7420617070726f76656400000000006000830152602082019050919050565b610f3281611197565b82525050565b6000602082019050610f4d6000830184610d68565b92915050565b6000606082019050610f686000830186610d68565b610f756020830185610d59565b610f826040830184610f29565b949350505050565b6000604082019050610f9f6000830185610d68565b8181036020830152610fb18184610da4565b90509392505050565b6000602082019050610fcf6000830184610d77565b92915050565b6000602082019050610fea6000830184610d86565b92915050565b60006020820190506110056000830184610d95565b92915050565b6000602082019050818103600083015261102481610ddd565b9050919050565b6000602082019050818103600083015261104481610e43565b9050919050565b6000602082019050818103600083015261106481610e83565b9050919050565b6000602082019050818103600083015261108481610ee9565b9050919050565b60006020820190506110a06000830184610f29565b92915050565b60006040820190506110bb6000830185610f29565b81810360208301526110cd8184610da4565b90509392505050565b6000604051905081810181811067ffffffffffffffff821117156110fd576110fc61124f565b5b8060405250919050565b600067ffffffffffffffff8211156111225761112161124f565b5b601f19601f8301169050602081019050919050565b600081519050919050565b600082825260208201905092915050565b600061115e82611177565b9050919050565b600061117082611177565b9050919050565b600073ffffffffffffffffffffffffffffffffffffffff82169050919050565b6000819050919050565b60006111ac826111b3565b9050919050565b60006111be82611177565b9050919050565b60006111d0826111d7565b9050919050565b60006111e282611177565b9050919050565b60006111f4826111fb565b9050919050565b600061120682611177565b9050919050565b82818337600083830152505050565b60005b8381101561123a57808201518184015260208101905061121f565b83811115611249576000848401525b50505050565b7f4e487b7100000000000000000000000000000000000000000000000000000000600052604160045260246000fd5b6000601f19601f8301169050919050565b61129881611153565b81146112a357600080fd5b50565b6112af81611197565b81146112ba57600080fd5b5056fea26469706673582212203e6d81a6c8e748465366decceac1f27d1267bbe984b00a0cae8394ceed65de9264736f6c63430008000033608060405234801561001057600080fd5b50336000806101000a81548173ffffffffffffffffffffffffffffffffffffffff021916908373ffffffffffffffffffffffffffffffffffffffff1602179055506103a5806100606000396000f3fe60806040526004361061003f5760003560e01c8063777c658f146100445780638da5cb5b1461006f578063de2ed8931461009a578063ed88c68e146100c5575b600080fd5b34801561005057600080fd5b506100596100cf565b6040516100669190610282565b60405180910390f35b34801561007b57600080fd5b506100846100d9565b604051610091919061021e565b60405180910390f35b3480156100a657600080fd5b506100af6100fd565b6040516100bc9190610282565b60405180910390f35b6100cd610103565b005b6000600154905090565b60008054906101000a900473ffffffffffffffffffffffffffffffffffffffff1681565b60015481565b60003411610146576040517f08c379a000000000000000000000000000000000000000000000000000000000815260040161013d90610262565b60405180910390fd5b346001600082825461015891906102ae565b925050819055507f264f630d9efa0d07053a31163641d9fcc0adafc9d9e76f1c37c2ce3a558d2c523334604051610190929190610239565b60405180910390a1565b6101a381610304565b82525050565b60006101b660228361029d565b91507f446f6e6174696f6e206d7573742062652067726561746572207468616e207a6560008301527f726f0000000000000000000000000000000000000000000000000000000000006020830152604082019050919050565b61021881610336565b82525050565b6000602082019050610233600083018461019a565b92915050565b600060408201905061024e600083018561019a565b61025b602083018461020f565b9392505050565b6000602082019050818103600083015261027b816101a9565b9050919050565b6000602082019050610297600083018461020f565b92915050565b600082825260208201905092915050565b60006102b982610336565b91506102c483610336565b9250827fffffffffffffffffffffffffffffffffffffffffffffffffffffffffffffffff038211156102f9576102f8610340565b5b828201905092915050565b600061030f82610316565b9050919050565b600073ffffffffffffffffffffffffffffffffffffffff82169050919050565b6000819050919050565b7f4e487b7100000000000000000000000000000000000000000000000000000000600052601160045260246000fdfea2646970667358221220b37bf5c8b56fc92df404663e0e27e384a93c3f5844e43d1be9d66fe7dc40049964736f6c63430008000033608060405234801561001057600080fd5b50336000806101000a81548173ffffffffffffffffffffffffffffffffffffffff021916908373ffffffffffffffffffffffffffffffffffffffff160217905550610ca9806100606000396000f3fe608060405234801561001057600080fd5b50600436106100575760003560e01c806309fd8d301461005c57806359e92f0d146100785780637c3bf42d146100945780638da5cb5b146100c8578063e2aad4a0146100e6575b600080fd5b6100766004803603810190610071919061079b565b610104565b005b610092600480360381019061008d9190610747565b6102a6565b005b6100ae60048036038101906100a9919061071e565b610459565b6040516100bf9594939291906109d0565b60405180910390f35b6100d06105bf565b6040516100dd91906108ec565b60405180910390f35b6100ee6105e3565b6040516100fb91906109b5565b60405180910390f35b6001600081548092919061011790610b5e565b91905055506040518060a0016040528060015481526020013373ffffffffffffffffffffffffffffffffffffffff1681526020018381526020018281526020016040518060400160405280600781526020017f50656e64696e6700000000000000000000000000000000000000000000000000815250815250600260003373ffffffffffffffffffffffffffffffffffffffff1673ffffffffffffffffffffffffffffffffffffffff1681526020019081526020016000206000820151816000015560208201518160010160006101000a81548173ffffffffffffffffffffffffffffffffffffffff021916908373ffffffffffffffffffffffffffffffffffffffff1602179055506040820151816002015560608201518160030190805190602001906102469291906105e9565b5060808201518160040190805190602001906102639291906105e9565b509050507f762a11ff8c02270f00d88e69a5e1391fa00f4fc48ea25856ea5a5f767689781033838360405161029a93929190610937565b60405180910390a15050565b60008054906101000a900473ffffffffffffffffffffffffffffffffffffffff1673ffffffffffffffffffffffffffffffffffffffff163373ffffffffffffffffffffffffffffffffffffffff1614610334576040517f08c379a000000000000000000000000000000000000000000000000000000000815260040161032b90610995565b60405180910390fd5b6000600260008473ffffffffffffffffffffffffffffffffffffffff1673ffffffffffffffffffffffffffffffffffffffff168152602001908152602001600020600401805461038390610b2c565b9050116103c5576040517f08c379a00000000000000000000000000000000000000000000000000000000081526004016103bc90610975565b60405180910390fd5b80600260008473ffffffffffffffffffffffffffffffffffffffff1673ffffffffffffffffffffffffffffffffffffffff168152602001908152602001600020600401908051906020019061041b9291906105e9565b507f6b8370452803eaf1fa33918779e2bcd9861a6c64c0d83fe62b899dfa16cd58d1828260405161044d929190610907565b60405180910390a15050565b60026020528060005260406000206000915090508060000154908060010160009054906101000a900473ffffffffffffffffffffffffffffffffffffffff16908060020154908060030180546104ae90610b2c565b80601f01602080910402602001604051908101604052809291908181526020018280546104da90610b2c565b80156105275780601f106104fc57610100808354040283529160200191610527565b820191906000526020600020905b81548152906001019060200180831161050a57829003601f168201915b50505050509080600401805461053c90610b2c565b80601f016020809104026020016040519081016040528092919081815260200182805461056890610b2c565b80156105b55780601f1061058a576101008083540402835291602001916105b5565b820191906000526020600020905b81548152906001019060200180831161059857829003601f168201915b5050505050905085565b60008054906101000a900473ffffffffffffffffffffffffffffffffffffffff1681565b60015481565b8280546105f590610b2c565b90600052602060002090601f016020900481019282610617576000855561065e565b82601f1061063057805160ff191683800117855561065e565b8280016001018555821561065e579182015b8281111561065d578251825591602001919060010190610642565b5b50905061066b919061066f565b5090565b5b80821115610688576000816000905550600101610670565b5090565b600061069f61069a84610a62565b610a31565b9050828152602081018484840111156106b757600080fd5b6106c2848285610aea565b509392505050565b6000813590506106d981610c45565b92915050565b600082601f8301126106f057600080fd5b813561070084826020860161068c565b91505092915050565b60008135905061071881610c5c565b92915050565b60006020828403121561073057600080fd5b600061073e848285016106ca565b91505092915050565b6000806040838503121561075a57600080fd5b6000610768858286016106ca565b925050602083013567ffffffffffffffff81111561078557600080fd5b610791858286016106df565b9150509250929050565b600080604083850312156107ae57600080fd5b60006107bc85828601610709565b925050602083013567ffffffffffffffff8111156107d957600080fd5b6107e5858286016106df565b9150509250929050565b6107f881610aae565b82525050565b600061080982610a92565b6108138185610a9d565b9350610823818560208601610af9565b61082c81610c34565b840191505092915050565b6000610844601a83610a9d565b91507f4170706c69636174696f6e20646f6573206e6f742065786973740000000000006000830152602082019050919050565b6000610884602283610a9d565b91507f4f6e6c79206f776e65722063616e20706572666f726d2074686973206163746960008301527f6f6e0000000000000000000000000000000000000000000000000000000000006020830152604082019050919050565b6108e681610ae0565b82525050565b600060208201905061090160008301846107ef565b92915050565b600060408201905061091c60008301856107ef565b818103602083015261092e81846107fe565b90509392505050565b600060608201905061094c60008301866107ef565b61095960208301856108dd565b818103604083015261096b81846107fe565b9050949350505050565b6000602082019050818103600083015261098e81610837565b9050919050565b600060208201905081810360008301526109ae81610877565b9050919050565b60006020820190506109ca60008301846108dd565b92915050565b600060a0820190506109e560008301886108dd565b6109f260208301876107ef565b6109ff60408301866108dd565b8181036060830152610a1181856107fe565b90508181036080830152610a2581846107fe565b90509695505050505050565b6000604051905081810181811067ffffffffffffffff82111715610a5857610a57610c05565b5b8060405250919050565b600067ffffffffffffffff821115610a7d57610a7c610c05565b5b601f19601f8301169050602081019050919050565b600081519050919050565b600082825260208201905092915050565b6000610ab982610ac0565b9050919050565b600073ffffffffffffffffffffffffffffffffffffffff82169050919050565b6000819050919050565b82818337600083830152505050565b60005b83811015610b17578082015181840152602081019050610afc565b83811115610b26576000848401525b50505050565b60006002820490506001821680610b4457607f821691505b60208210811415610b5857610b57610bd6565b5b50919050565b6000610b6982610ae0565b91507fffffffffffffffffffffffffffffffffffffffffffffffffffffffffffffffff821415610b9c57610b9b610ba7565b5b600182019050919050565b7f4e487b7100000000000000000000000000000000000000000000000000000000600052601160045260246000fd5b7f4e487b7100000000000000000000000000000000000000000000000000000000600052602260045260246000fd5b7f4e487b7100000000000000000000000000000000000000000000000000000000600052604160045260246000fd5b6000601f19601f8301169050919050565b610c4e81610aae565b8114610c5957600080fd5b50565b610c6581610ae0565b8114610c7057600080fd5b5056fea264697066735822122026389804eb26b84cdbbb022689f03057e14db4b8d710ce7988072908bb17042564736f6c63430008000033608060405234801561001057600080fd5b50336000806101000a81548173ffffffffffffffffffffffffffffffffffffffff021916908373ffffffffffffffffffffffffffffffffffffffff16021790555061062e806100606000396000f3fe6080604052600436106100385760003560e01c806312065fe01461004457806363113d321461006f5780638da5cb5b146100985761003f565b3661003f57005b600080fd5b34801561005057600080fd5b506100596100c3565b6040516100669190610503565b60405180910390f35b34801561007b57600080fd5b50610096600480360381019061009191906102c9565b6100cb565b005b3480156100a457600080fd5b506100ad610266565b6040516100ba9190610451565b60405180910390f35b600047905090565b60008054906101000a900473ffffffffffffffffffffffffffffffffffffffff1673ffffffffffffffffffffffffffffffffffffffff163373ffffffffffffffffffffffffffffffffffffffff1614610159576040517f08c379a0000000000000000000000000000000000000000000000000000000008152600401610150906104e3565b60405180910390fd5b8047101561019c576040517f08c379a0000000000000000000000000000000000000000000000000000000008152600401610193906104c3565b60405180910390fd5b600081116101df576040517f08c379a00000000000000000000000000000000000000000000000000000000081526004016101d6906104a3565b60405180910390fd5b8173ffffffffffffffffffffffffffffffffffffffff166108fc829081150290604051600060405180830381858888f19350505050158015610225573d6000803e3d6000fd5b507f6cc5d9bba018eadc87833eb74f2df7224b84c3e6fe79dc66d3699ecf10e134f08383836040516102599392919061046c565b60405180910390a1505050565b60008054906101000a900473ffffffffffffffffffffffffffffffffffffffff1681565b600081359050610299816105b3565b92915050565b6000813590506102ae816105ca565b92915050565b6000813590506102c3816105e1565b92915050565b6000806000606084860312156102de57600080fd5b60006102ec8682870161028a565b93505060206102fd8682870161029f565b925050604061030e868287016102b4565b9150509250925092565b6103218161057d565b82525050565b6103308161052f565b82525050565b600061034360208361051e565b91507f416d6f756e74206d7573742062652067726561746572207468616e207a65726f6000830152602082019050919050565b600061038360258361051e565b91507f496e73756666696369656e742062616c616e636520666f72206469736275727360008301527f656d656e740000000000000000000000000000000000000000000000000000006020830152604082019050919050565b60006103e960228361051e565b91507f4f6e6c79206f776e65722063616e20706572666f726d2074686973206163746960008301527f6f6e0000000000000000000000000000000000000000000000000000000000006020830152604082019050919050565b61044b81610573565b82525050565b60006020820190506104666000830184610327565b92915050565b60006060820190506104816000830186610327565b61048e6020830185610318565b61049b6040830184610442565b949350505050565b600060208201905081810360008301526104bc81610336565b9050919050565b600060208201905081810360008301526104dc81610376565b9050919050565b600060208201905081810360008301526104fc816103dc565b9050919050565b60006020820190506105186000830184610442565b92915050565b600082825260208201905092915050565b600061053a82610553565b9050919050565b600061054c82610553565b9050919050565b600073ffffffffffffffffffffffffffffffffffffffff82169050919050565b6000819050919050565b60006105888261058f565b9050919050565b600061059a826105a1565b9050919050565b60006105ac82610553565b9050919050565b6105bc8161052f565b81146105c757600080fd5b50565b6105d381610541565b81146105de57600080fd5b50565b6105ea81610573565b81146105f557600080fd5b5056fea2646970667358221220cac7a5293edc1c60f6110e0f9513541fb5312745e4a1d73a0be2252fe159b25064736f6c63430008000033",
  "immutableReferences": {},
  "source": "// SPDX-License-Identifier: MIT\r\npragma solidity ^0.8.0;\r\n\r\nimport \"./DonationContract.sol\";\r\nimport \"./ApplicationContract.sol\";\r\nimport \"./DisbursementContract.sol\";\r\n\r\ncontract ScholarshipFund {\r\n    address public owner;\r\n    DonationContract public donationContract;\r\n    ApplicationContract public applicationContract;\r\n    DisbursementContract public disbursementContract;\r\n\r\n    modifier onlyOwner() {\r\n        require(msg.sender == owner, \"Only owner can perform this action\");\r\n        _;\r\n    }\r\n\r\n    constructor() {\r\n        owner = msg.sender;\r\n        donationContract = new DonationContract();\r\n        applicationContract = new ApplicationContract();\r\n        disbursementContract = new DisbursementContract();\r\n    }\r\n\r\n    // Function to accept donations\r\n    function donate() external payable {\r\n        require(msg.value > 0, \"Donation must be greater than zero\");\r\n        donationContract.donate{ value: msg.value }();\r\n    }\r\n\r\n    // Function to get total donations\r\n    function getTotalDonations() external view returns (uint256) {\r\n        return donationContract.getTotalDonations();\r\n    }\r\n\r\n    // Functions to interact with ApplicationContract\r\n    function submitApplication( uint256 _requestedAmount, string memory _mongoDbHash) external {\r\n        applicationContract.submitApplication(_requestedAmount, _mongoDbHash);\r\n    }\r\n\r\n    function updateApplicationStatus(address applicantAddress, string memory _status) external onlyOwner {\r\n        applicationContract.updateApplicationStatus(applicantAddress, _status);\r\n    }\r\n\r\n    // Function to fund the Disbursement Contract\r\n    function fundDisbursementContract() external payable onlyOwner {\r\n        require(msg.value > 0, \"Amount must be greater than zero\");\r\n        payable(address(disbursementContract)).transfer(msg.value);\r\n    }\r\n\r\n    // Function to disburse funds to an approved applicant\r\n    function disburseFunds(address applicantAddress) external onlyOwner {\r\n        // Get application details from ApplicationContract\r\n        (, address applicant, uint256 requestedAmount, , string memory status) = applicationContract.applications(applicantAddress);\r\n\r\n        require(keccak256(bytes(status)) == keccak256(bytes(\"Approved\")), \"Application is not approved\");\r\n\r\n        // Call disburseFunds on DisbursementContract\r\n        disbursementContract.disburseFunds(applicantAddress, payable(applicant), requestedAmount);\r\n    }\r\n\r\n    function getOwner() external view returns (address) {\r\n        return owner;\r\n    }\r\n\r\n    // Function to get balance of DisbursementContract\r\n    function getDisbursementBalance() external view returns (uint256) {\r\n        return disbursementContract.getBalance();\r\n    }\r\n}\r\n",
  "sourcePath": "C:\\Users\\saritajoshi\\Documents\\559_Blockchain\\scholarship-proj\\contracts\\ScholarshipFund.sol",
  "compiler": {
    "name": "solc",
    "version": "0.8.0+commit.c7dfd78e.Emscripten.clang"
  },
  "schemaVersion": "3.4.16",
  "updatedAt": "2024-11-14T10:07:34.015Z",
  "networkType": "ethereum",
  "devdoc": {
    "kind": "dev",
    "methods": {},
    "version": 1
  },
  "userdoc": {
    "kind": "user",
    "methods": {},
    "version": 1
  }
}