{
  "contractName": "ScholarshipFund",
  "abi": [
    {
      "inputs": [],
      "stateMutability": "nonpayable",
      "type": "constructor"
    },
    {
      "anonymous": false,
      "inputs": [
        {
          "indexed": false,
          "internalType": "uint256",
          "name": "applicationId",
          "type": "uint256"
        },
        {
          "indexed": false,
          "internalType": "address",
          "name": "reviewer",
          "type": "address"
        },
        {
          "indexed": false,
          "internalType": "string",
          "name": "action",
          "type": "string"
        }
      ],
      "name": "ApplicationReviewed",
      "type": "event"
    },
    {
      "anonymous": false,
      "inputs": [
        {
          "indexed": false,
          "internalType": "uint256",
          "name": "id",
          "type": "uint256"
        },
        {
          "indexed": false,
          "internalType": "string",
          "name": "status",
          "type": "string"
        }
      ],
      "name": "ApplicationStatusUpdated",
      "type": "event"
    },
    {
      "anonymous": false,
      "inputs": [
        {
          "indexed": false,
          "internalType": "uint256",
          "name": "id",
          "type": "uint256"
        },
        {
          "indexed": false,
          "internalType": "string",
          "name": "mongoDbHash",
          "type": "string"
        }
      ],
      "name": "ApplicationSubmitted",
      "type": "event"
    },
    {
      "anonymous": false,
      "inputs": [
        {
          "indexed": false,
          "internalType": "address",
          "name": "donor",
          "type": "address"
        },
        {
          "indexed": false,
          "internalType": "uint256",
          "name": "fundId",
          "type": "uint256"
        },
        {
          "indexed": false,
          "internalType": "uint256",
          "name": "amount",
          "type": "uint256"
        }
      ],
      "name": "DonationReceived",
      "type": "event"
    },
    {
      "anonymous": false,
      "inputs": [
        {
          "indexed": false,
          "internalType": "uint256",
          "name": "fundId",
          "type": "uint256"
        },
        {
          "indexed": false,
          "internalType": "bool",
          "name": "approved",
          "type": "bool"
        }
      ],
      "name": "FundApproved",
      "type": "event"
    },
    {
      "anonymous": false,
      "inputs": [
        {
          "indexed": false,
          "internalType": "uint256",
          "name": "id",
          "type": "uint256"
        },
        {
          "indexed": false,
          "internalType": "address",
          "name": "fundOwner",
          "type": "address"
        },
        {
          "indexed": false,
          "internalType": "string",
          "name": "name",
          "type": "string"
        }
      ],
      "name": "FundCreated",
      "type": "event"
    },
    {
      "anonymous": false,
      "inputs": [
        {
          "indexed": false,
          "internalType": "uint256",
          "name": "applicationId",
          "type": "uint256"
        },
        {
          "indexed": false,
          "internalType": "uint256",
          "name": "amount",
          "type": "uint256"
        }
      ],
      "name": "FundsDisbursed",
      "type": "event"
    },
    {
      "inputs": [],
      "name": "applicationCount",
      "outputs": [
        {
          "internalType": "uint256",
          "name": "",
          "type": "uint256"
        }
      ],
      "stateMutability": "view",
      "type": "function",
      "constant": true
    },
    {
      "inputs": [
        {
          "internalType": "uint256",
          "name": "",
          "type": "uint256"
        }
      ],
      "name": "applications",
      "outputs": [
        {
          "internalType": "uint256",
          "name": "id",
          "type": "uint256"
        },
        {
          "internalType": "address",
          "name": "applicant",
          "type": "address"
        },
        {
          "internalType": "uint256",
          "name": "requestedAmount",
          "type": "uint256"
        },
        {
          "internalType": "string",
          "name": "mongoDbHash",
          "type": "string"
        },
        {
          "internalType": "string",
          "name": "status",
          "type": "string"
        },
        {
          "internalType": "uint256",
          "name": "fundId",
          "type": "uint256"
        },
        {
          "internalType": "uint256",
          "name": "approvals",
          "type": "uint256"
        }
      ],
      "stateMutability": "view",
      "type": "function",
      "constant": true
    },
    {
      "inputs": [],
      "name": "fundCount",
      "outputs": [
        {
          "internalType": "uint256",
          "name": "",
          "type": "uint256"
        }
      ],
      "stateMutability": "view",
      "type": "function",
      "constant": true
    },
    {
      "inputs": [
        {
          "internalType": "uint256",
          "name": "",
          "type": "uint256"
        }
      ],
      "name": "funds",
      "outputs": [
        {
          "internalType": "uint256",
          "name": "id",
          "type": "uint256"
        },
        {
          "internalType": "address",
          "name": "fundOwner",
          "type": "address"
        },
        {
          "internalType": "uint256",
          "name": "balance",
          "type": "uint256"
        },
        {
          "internalType": "uint256",
          "name": "minApprovals",
          "type": "uint256"
        },
        {
          "internalType": "string",
          "name": "name",
          "type": "string"
        },
        {
          "internalType": "bool",
          "name": "approved",
          "type": "bool"
        }
      ],
      "stateMutability": "view",
      "type": "function",
      "constant": true
    },
    {
      "inputs": [
        {
          "internalType": "uint256",
          "name": "",
          "type": "uint256"
        },
        {
          "internalType": "address",
          "name": "",
          "type": "address"
        }
      ],
      "name": "hasReviewed",
      "outputs": [
        {
          "internalType": "bool",
          "name": "",
          "type": "bool"
        }
      ],
      "stateMutability": "view",
      "type": "function",
      "constant": true
    },
    {
      "inputs": [],
      "name": "owner",
      "outputs": [
        {
          "internalType": "address",
          "name": "",
          "type": "address"
        }
      ],
      "stateMutability": "view",
      "type": "function",
      "constant": true
    },
    {
      "inputs": [
        {
          "internalType": "uint256",
          "name": "_requestedAmount",
          "type": "uint256"
        },
        {
          "internalType": "string",
          "name": "_mongoDbHash",
          "type": "string"
        },
        {
          "internalType": "uint256",
          "name": "_fundId",
          "type": "uint256"
        }
      ],
      "name": "submitApplication",
      "outputs": [
        {
          "internalType": "uint256",
          "name": "",
          "type": "uint256"
        }
      ],
      "stateMutability": "nonpayable",
      "type": "function"
    },
    {
      "inputs": [
        {
          "internalType": "uint256",
          "name": "_id",
          "type": "uint256"
        },
        {
          "internalType": "bool",
          "name": "approve",
          "type": "bool"
        }
      ],
      "name": "updateApplicationStatus",
      "outputs": [],
      "stateMutability": "nonpayable",
      "type": "function"
    },
    {
      "inputs": [
        {
          "internalType": "uint256",
          "name": "_applicationId",
          "type": "uint256"
        },
        {
          "internalType": "bool",
          "name": "approve",
          "type": "bool"
        }
      ],
      "name": "reviewApplication",
      "outputs": [],
      "stateMutability": "nonpayable",
      "type": "function"
    },
    {
      "inputs": [
        {
          "internalType": "uint256",
          "name": "_id",
          "type": "uint256"
        }
      ],
      "name": "getApplication",
      "outputs": [
        {
          "components": [
            {
              "internalType": "uint256",
              "name": "id",
              "type": "uint256"
            },
            {
              "internalType": "address",
              "name": "applicant",
              "type": "address"
            },
            {
              "internalType": "uint256",
              "name": "requestedAmount",
              "type": "uint256"
            },
            {
              "internalType": "string",
              "name": "mongoDbHash",
              "type": "string"
            },
            {
              "internalType": "string",
              "name": "status",
              "type": "string"
            },
            {
              "internalType": "uint256",
              "name": "fundId",
              "type": "uint256"
            },
            {
              "internalType": "uint256",
              "name": "approvals",
              "type": "uint256"
            },
            {
              "internalType": "address[]",
              "name": "approvers",
              "type": "address[]"
            },
            {
              "internalType": "address[]",
              "name": "rejectors",
              "type": "address[]"
            }
          ],
          "internalType": "struct ScholarshipFund.Application",
          "name": "",
          "type": "tuple"
        }
      ],
      "stateMutability": "view",
      "type": "function",
      "constant": true
    },
    {
      "inputs": [
        {
          "internalType": "string",
          "name": "_name",
          "type": "string"
        },
        {
          "internalType": "uint256",
          "name": "_minApprovals",
          "type": "uint256"
        },
        {
          "internalType": "address[]",
          "name": "_reviewers",
          "type": "address[]"
        }
      ],
      "name": "createFund",
      "outputs": [
        {
          "internalType": "uint256",
          "name": "",
          "type": "uint256"
        }
      ],
      "stateMutability": "payable",
      "type": "function",
      "payable": true
    },
    {
      "inputs": [
        {
          "internalType": "uint256",
          "name": "_fundId",
          "type": "uint256"
        }
      ],
      "name": "approveFund",
      "outputs": [],
      "stateMutability": "nonpayable",
      "type": "function"
    },
    {
      "inputs": [
        {
          "internalType": "uint256",
          "name": "_fundId",
          "type": "uint256"
        }
      ],
      "name": "donateToFund",
      "outputs": [],
      "stateMutability": "payable",
      "type": "function",
      "payable": true
    },
    {
      "inputs": [
        {
          "internalType": "uint256",
          "name": "_fundId",
          "type": "uint256"
        }
      ],
      "name": "getFund",
      "outputs": [
        {
          "components": [
            {
              "internalType": "uint256",
              "name": "id",
              "type": "uint256"
            },
            {
              "internalType": "address",
              "name": "fundOwner",
              "type": "address"
            },
            {
              "internalType": "uint256",
              "name": "balance",
              "type": "uint256"
            },
            {
              "internalType": "uint256",
              "name": "minApprovals",
              "type": "uint256"
            },
            {
              "internalType": "string",
              "name": "name",
              "type": "string"
            },
            {
              "internalType": "bool",
              "name": "approved",
              "type": "bool"
            },
            {
              "internalType": "address[]",
              "name": "reviewers",
              "type": "address[]"
            }
          ],
          "internalType": "struct ScholarshipFund.Fund",
          "name": "",
          "type": "tuple"
        }
      ],
      "stateMutability": "view",
      "type": "function",
      "constant": true
    },
    {
      "inputs": [
        {
          "internalType": "uint256",
          "name": "_applicationId",
          "type": "uint256"
        }
      ],
      "name": "disburseFunds",
      "outputs": [],
      "stateMutability": "nonpayable",
      "type": "function"
    },
    {
      "inputs": [
        {
          "internalType": "uint256",
          "name": "_fundId",
          "type": "uint256"
        },
        {
          "internalType": "address",
          "name": "_reviewer",
          "type": "address"
        }
      ],
      "name": "addReviewer",
      "outputs": [],
      "stateMutability": "nonpayable",
      "type": "function"
    }
  ],
  "bytecode": "0x608060405234801561001057600080fd5b50336000806101000a81548173ffffffffffffffffffffffffffffffffffffffff021916908373ffffffffffffffffffffffffffffffffffffffff160217905550613433806100606000396000f3fe6080604052600436106100f35760003560e01c80637c7198cc1161008a578063dfefadff11610059578063dfefadff14610344578063e2aad4a014610387578063e55118bd146103b2578063ee679732146103e2576100f3565b80637c7198cc146102765780638da5cb5b146102b35780639fcf0d1a146102de578063cc212a481461031b576100f3565b80633f936ff5116100c65780633f936ff5146101a357806352c8df64146101ce5780636d1b1de01461020b5780637b8e889514610234576100f3565b806311cd13ac146100f85780631f2f4bfd1461011457806323ec4262146101515780632af39d3c1461017a575b600080fd5b610112600480360381019061010d919061239d565b61040b565b005b34801561012057600080fd5b5061013b6004803603810190610136919061239d565b610504565b6040516101489190612dce565b60405180910390f35b34801561015d57600080fd5b5061017860048036038101906101739190612402565b61083b565b005b34801561018657600080fd5b506101a1600480360381019061019c919061239d565b6109f0565b005b3480156101af57600080fd5b506101b8610b35565b6040516101c59190612e12565b60405180910390f35b3480156101da57600080fd5b506101f560048036038101906101f0919061239d565b610b3b565b6040516102029190612df0565b60405180910390f35b34801561021757600080fd5b50610232600480360381019061022d91906123c6565b610d62565b005b34801561024057600080fd5b5061025b6004803603810190610256919061239d565b610e89565b60405161026d96959493929190612f60565b60405180910390f35b34801561028257600080fd5b5061029d600480360381019061029891906123c6565b610f7a565b6040516102aa9190612c53565b60405180910390f35b3480156102bf57600080fd5b506102c8610fa9565b6040516102d59190612c01565b60405180910390f35b3480156102ea57600080fd5b506103056004803603810190610300919061243e565b610fcd565b6040516103129190612e12565b60405180910390f35b34801561032757600080fd5b50610342600480360381019061033d919061239d565b6112db565b005b34801561035057600080fd5b5061036b6004803603810190610366919061239d565b61169e565b60405161037e9796959493929190612ee3565b60405180910390f35b34801561039357600080fd5b5061039c611810565b6040516103a99190612e12565b60405180910390f35b6103cc60048036038101906103c7919061231e565b611816565b6040516103d99190612e12565b60405180910390f35b3480156103ee57600080fd5b5061040960048036038101906104049190612402565b61199e565b005b600254811115610450576040517f08c379a000000000000000000000000000000000000000000000000000000000815260040161044790612c6e565b60405180910390fd5b60003411610493576040517f08c379a000000000000000000000000000000000000000000000000000000000815260040161048a90612cae565b60405180910390fd5b6000600460008381526020019081526020016000209050348160020160008282546104be919061318b565b925050819055507f4b0304ab2f313234b1cea012339c8f8c3bf2c8bb357d81a579cfdb35d2e3d0303383346040516104f893929190612c1c565b60405180910390a15050565b61050c611ffd565b600154821115610551576040517f08c379a000000000000000000000000000000000000000000000000000000000815260040161054890612cce565b60405180910390fd5b60006003600084815260200190815260200160002060405180610120016040529081600082015481526020016001820160009054906101000a900473ffffffffffffffffffffffffffffffffffffffff1673ffffffffffffffffffffffffffffffffffffffff1673ffffffffffffffffffffffffffffffffffffffff168152602001600282015481526020016003820180546105ec9061329f565b80601f01602080910402602001604051908101604052809291908181526020018280546106189061329f565b80156106655780601f1061063a57610100808354040283529160200191610665565b820191906000526020600020905b81548152906001019060200180831161064857829003601f168201915b5050505050815260200160048201805461067e9061329f565b80601f01602080910402602001604051908101604052809291908181526020018280546106aa9061329f565b80156106f75780601f106106cc576101008083540402835291602001916106f7565b820191906000526020600020905b8154815290600101906020018083116106da57829003601f168201915b5050505050815260200160058201548152602001600682015481526020016007820180548060200260200160405190810160405280929190818152602001828054801561079957602002820191906000526020600020905b8160009054906101000a900473ffffffffffffffffffffffffffffffffffffffff1673ffffffffffffffffffffffffffffffffffffffff168152602001906001019080831161074f575b505050505081526020016008820180548060200260200160405190810160405280929190818152602001828054801561082757602002820191906000526020600020905b8160009054906101000a900473ffffffffffffffffffffffffffffffffffffffff1673ffffffffffffffffffffffffffffffffffffffff16815260200190600101908083116107dd575b505050505081525050905080915050919050565b60008054906101000a900473ffffffffffffffffffffffffffffffffffffffff1673ffffffffffffffffffffffffffffffffffffffff163373ffffffffffffffffffffffffffffffffffffffff16146108c9576040517f08c379a00000000000000000000000000000000000000000000000000000000081526004016108c090612d8e565b60405180910390fd5b60015482111561090e576040517f08c379a000000000000000000000000000000000000000000000000000000000815260040161090590612cce565b60405180910390fd5b60006040518060400160405280600881526020017f52656a656374656400000000000000000000000000000000000000000000000081525090508115610987576040518060400160405280600881526020017f417070726f76656400000000000000000000000000000000000000000000000081525090505b806003600085815260200190815260200160002060040190805190602001906109b192919061205f565b507f982d2f50711b24245cf16c2aeb3f5f7b969553aa8d2b227e40edd3619f83fe5983826040516109e3929190612ff1565b60405180910390a1505050565b60008054906101000a900473ffffffffffffffffffffffffffffffffffffffff1673ffffffffffffffffffffffffffffffffffffffff163373ffffffffffffffffffffffffffffffffffffffff1614610a7e576040517f08c379a0000000000000000000000000000000000000000000000000000000008152600401610a7590612d8e565b60405180910390fd5b600254811115610ac3576040517f08c379a0000000000000000000000000000000000000000000000000000000008152600401610aba90612c6e565b60405180910390fd5b600060046000838152602001908152602001600020905060018160050160006101000a81548160ff0219169083151502179055507f371acc2d228b8d05aea02c324f5dd6b24d833fcc225f2973cc880c3aac8ab4b3826001604051610b29929190612fc8565b60405180910390a15050565b60025481565b610b436120e5565b600254821115610b88576040517f08c379a0000000000000000000000000000000000000000000000000000000008152600401610b7f90612c6e565b60405180910390fd5b6000600460008481526020019081526020016000206040518060e0016040529081600082015481526020016001820160009054906101000a900473ffffffffffffffffffffffffffffffffffffffff1673ffffffffffffffffffffffffffffffffffffffff1673ffffffffffffffffffffffffffffffffffffffff1681526020016002820154815260200160038201548152602001600482018054610c2c9061329f565b80601f0160208091040260200160405190810160405280929190818152602001828054610c589061329f565b8015610ca55780601f10610c7a57610100808354040283529160200191610ca5565b820191906000526020600020905b815481529060010190602001808311610c8857829003601f168201915b505050505081526020016005820160009054906101000a900460ff1615151515815260200160068201805480602002602001604051908101604052809291908181526020018280548015610d4e57602002820191906000526020600020905b8160009054906101000a900473ffffffffffffffffffffffffffffffffffffffff1673ffffffffffffffffffffffffffffffffffffffff1681526020019060010190808311610d04575b505050505081525050905080915050919050565b813373ffffffffffffffffffffffffffffffffffffffff166004600083815260200190815260200160002060010160009054906101000a900473ffffffffffffffffffffffffffffffffffffffff1673ffffffffffffffffffffffffffffffffffffffff1614610e07576040517f08c379a0000000000000000000000000000000000000000000000000000000008152600401610dfe90612d6e565b60405180910390fd5b600060046000858152602001908152602001600020905080600601839080600181540180825580915050600190039060005260206000200160009091909190916101000a81548173ffffffffffffffffffffffffffffffffffffffff021916908373ffffffffffffffffffffffffffffffffffffffff16021790555050505050565b60046020528060005260406000206000915090508060000154908060010160009054906101000a900473ffffffffffffffffffffffffffffffffffffffff1690806002015490806003015490806004018054610ee49061329f565b80601f0160208091040260200160405190810160405280929190818152602001828054610f109061329f565b8015610f5d5780601f10610f3257610100808354040283529160200191610f5d565b820191906000526020600020905b815481529060010190602001808311610f4057829003601f168201915b5050505050908060050160009054906101000a900460ff16905086565b60056020528160005260406000206020528060005260406000206000915091509054906101000a900460ff1681565b60008054906101000a900473ffffffffffffffffffffffffffffffffffffffff1681565b6000600254821115611014576040517f08c379a000000000000000000000000000000000000000000000000000000000815260040161100b90612c6e565b60405180910390fd5b60016000815480929190611027906132d1565b919050555060405180610120016040528060015481526020013373ffffffffffffffffffffffffffffffffffffffff1681526020018581526020018481526020016040518060400160405280600781526020017f50656e64696e6700000000000000000000000000000000000000000000000000815250815260200183815260200160008152602001600067ffffffffffffffff8111156110f1577f4e487b7100000000000000000000000000000000000000000000000000000000600052604160045260246000fd5b60405190808252806020026020018201604052801561111f5781602001602082028036833780820191505090505b508152602001600067ffffffffffffffff811115611166577f4e487b7100000000000000000000000000000000000000000000000000000000600052604160045260246000fd5b6040519080825280602002602001820160405280156111945781602001602082028036833780820191505090505b508152506003600060015481526020019081526020016000206000820151816000015560208201518160010160006101000a81548173ffffffffffffffffffffffffffffffffffffffff021916908373ffffffffffffffffffffffffffffffffffffffff16021790555060408201518160020155606082015181600301908051906020019061122492919061205f565b50608082015181600401908051906020019061124192919061205f565b5060a0820151816005015560c0820151816006015560e082015181600701908051906020019061127292919061213a565b5061010082015181600801908051906020019061129092919061213a565b509050507fafe27dbcbd1b0c000dd93f8e1a6a15bbd357294a060694dfdc80047e8c4abc68600154846040516112c7929190612ff1565b60405180910390a160015490509392505050565b60008054906101000a900473ffffffffffffffffffffffffffffffffffffffff1673ffffffffffffffffffffffffffffffffffffffff163373ffffffffffffffffffffffffffffffffffffffff1614611369576040517f08c379a000000000000000000000000000000000000000000000000000000000815260040161136090612d8e565b60405180910390fd5b6001548111156113ae576040517f08c379a00000000000000000000000000000000000000000000000000000000081526004016113a590612cce565b60405180910390fd5b60006003600083815260200190815260200160002090506002548160050154111561140e576040517f08c379a000000000000000000000000000000000000000000000000000000000815260040161140590612d2e565b60405180910390fd5b6040518060400160405280600881526020017f417070726f766564000000000000000000000000000000000000000000000000815250805190602001208160040160405161145c9190612bd5565b6040518091039020146114a4576040517f08c379a000000000000000000000000000000000000000000000000000000000815260040161149b90612d4e565b60405180910390fd5b60046000826005015481526020019081526020016000206002015481600201541115611505576040517f08c379a00000000000000000000000000000000000000000000000000000000081526004016114fc90612cee565b60405180910390fd5b6040518060400160405280600681526020017f46756e646564000000000000000000000000000000000000000000000000000081525081600401908051906020019061155292919061205f565b5080600201546004600083600501548152602001908152602001600020600201600082825461158191906131e1565b9250508190555060008160010160009054906101000a900473ffffffffffffffffffffffffffffffffffffffff1673ffffffffffffffffffffffffffffffffffffffff1682600201546040516115d690612bec565b60006040518083038185875af1925050503d8060008114611613576040519150601f19603f3d011682016040523d82523d6000602084013e611618565b606091505b505090508061165c576040517f08c379a000000000000000000000000000000000000000000000000000000000815260040161165390612dae565b60405180910390fd5b7f353824989cda192757c4489ea4d5d30fe1801a232ed47c3b79f663b5cbe2e47583836002015460405161169192919061304f565b60405180910390a1505050565b60036020528060005260406000206000915090508060000154908060010160009054906101000a900473ffffffffffffffffffffffffffffffffffffffff16908060020154908060030180546116f39061329f565b80601f016020809104026020016040519081016040528092919081815260200182805461171f9061329f565b801561176c5780601f106117415761010080835404028352916020019161176c565b820191906000526020600020905b81548152906001019060200180831161174f57829003601f168201915b5050505050908060040180546117819061329f565b80601f01602080910402602001604051908101604052809291908181526020018280546117ad9061329f565b80156117fa5780601f106117cf576101008083540402835291602001916117fa565b820191906000526020600020905b8154815290600101906020018083116117dd57829003601f168201915b5050505050908060050154908060060154905087565b60015481565b60006002600081548092919061182b906132d1565b91905055506040518060e0016040528060025481526020013373ffffffffffffffffffffffffffffffffffffffff168152602001348152602001848152602001858152602001600015158152602001838152506004600060025481526020019081526020016000206000820151816000015560208201518160010160006101000a81548173ffffffffffffffffffffffffffffffffffffffff021916908373ffffffffffffffffffffffffffffffffffffffff1602179055506040820151816002015560608201518160030155608082015181600401908051906020019061191492919061205f565b5060a08201518160050160006101000a81548160ff02191690831515021790555060c082015181600601908051906020019061195192919061213a565b509050507f42d1478728914aa7d2380be97ca0a8095b9ee82d43b68878da565b0a8f3e74c2600254338660405161198a93929190612e2d565b60405180910390a160025490509392505050565b6001548211156119e3576040517f08c379a00000000000000000000000000000000000000000000000000000000081526004016119da90612cce565b60405180910390fd5b6000600360008481526020019081526020016000209050600060046000836005015481526020019081526020016000209050600081600601805490501480611a355750611a34826005015433611d78565b5b611a74576040517f08c379a0000000000000000000000000000000000000000000000000000000008152600401611a6b90612c8e565b60405180910390fd5b6005600085815260200190815260200160002060003373ffffffffffffffffffffffffffffffffffffffff1673ffffffffffffffffffffffffffffffffffffffff16815260200190815260200160002060009054906101000a900460ff1615611b12576040517f08c379a0000000000000000000000000000000000000000000000000000000008152600401611b0990612d0e565b60405180910390fd5b60016005600086815260200190815260200160002060003373ffffffffffffffffffffffffffffffffffffffff1673ffffffffffffffffffffffffffffffffffffffff16815260200190815260200160002060006101000a81548160ff0219169083151502179055508215611c3e57816006016000815480929190611b96906132d1565b919050555081600701339080600181540180825580915050600190039060005260206000200160009091909190916101000a81548173ffffffffffffffffffffffffffffffffffffffff021916908373ffffffffffffffffffffffffffffffffffffffff1602179055507f442eda6b316f38e693830a96ed74b97144c2645cb800881294fd31c7603ddb198433604051611c31929190612ea7565b60405180910390a1611cdd565b81600801339080600181540180825580915050600190039060005260206000200160009091909190916101000a81548173ffffffffffffffffffffffffffffffffffffffff021916908373ffffffffffffffffffffffffffffffffffffffff1602179055507f442eda6b316f38e693830a96ed74b97144c2645cb800881294fd31c7603ddb198433604051611cd4929190612e6b565b60405180910390a15b8060030154826006015410611d72576040518060400160405280600881526020017f417070726f766564000000000000000000000000000000000000000000000000815250826004019080519060200190611d3992919061205f565b507f982d2f50711b24245cf16c2aeb3f5f7b969553aa8d2b227e40edd3619f83fe5984604051611d699190613021565b60405180910390a15b50505050565b600080600460008581526020019081526020016000206040518060e0016040529081600082015481526020016001820160009054906101000a900473ffffffffffffffffffffffffffffffffffffffff1673ffffffffffffffffffffffffffffffffffffffff1673ffffffffffffffffffffffffffffffffffffffff1681526020016002820154815260200160038201548152602001600482018054611e1d9061329f565b80601f0160208091040260200160405190810160405280929190818152602001828054611e499061329f565b8015611e965780601f10611e6b57610100808354040283529160200191611e96565b820191906000526020600020905b815481529060010190602001808311611e7957829003601f168201915b505050505081526020016005820160009054906101000a900460ff1615151515815260200160068201805480602002602001604051908101604052809291908181526020018280548015611f3f57602002820191906000526020600020905b8160009054906101000a900473ffffffffffffffffffffffffffffffffffffffff1673ffffffffffffffffffffffffffffffffffffffff1681526020019060010190808311611ef5575b505050505081525050905060005b8160c0015151811015611ff0578373ffffffffffffffffffffffffffffffffffffffff168260c001518281518110611fae577f4e487b7100000000000000000000000000000000000000000000000000000000600052603260045260246000fd5b602002602001015173ffffffffffffffffffffffffffffffffffffffff161415611fdd57600192505050611ff7565b8080611fe8906132d1565b915050611f4d565b5060009150505b92915050565b60405180610120016040528060008152602001600073ffffffffffffffffffffffffffffffffffffffff168152602001600081526020016060815260200160608152602001600081526020016000815260200160608152602001606081525090565b82805461206b9061329f565b90600052602060002090601f01602090048101928261208d57600085556120d4565b82601f106120a657805160ff19168380011785556120d4565b828001600101855582156120d4579182015b828111156120d35782518255916020019190600101906120b8565b5b5090506120e191906121c4565b5090565b6040518060e0016040528060008152602001600073ffffffffffffffffffffffffffffffffffffffff168152602001600081526020016000815260200160608152602001600015158152602001606081525090565b8280548282559060005260206000209081019282156121b3579160200282015b828111156121b25782518260006101000a81548173ffffffffffffffffffffffffffffffffffffffff021916908373ffffffffffffffffffffffffffffffffffffffff1602179055509160200191906001019061215a565b5b5090506121c091906121c4565b5090565b5b808211156121dd5760008160009055506001016121c5565b5090565b60006121f46121ef846130a9565b613078565b9050808382526020820190508285602086028201111561221357600080fd5b60005b858110156122435781612229888261228b565b845260208401935060208301925050600181019050612216565b5050509392505050565b600061226061225b846130d5565b613078565b90508281526020810184848401111561227857600080fd5b61228384828561325d565b509392505050565b60008135905061229a816133b8565b92915050565b600082601f8301126122b157600080fd5b81356122c18482602086016121e1565b91505092915050565b6000813590506122d9816133cf565b92915050565b600082601f8301126122f057600080fd5b813561230084826020860161224d565b91505092915050565b600081359050612318816133e6565b92915050565b60008060006060848603121561233357600080fd5b600084013567ffffffffffffffff81111561234d57600080fd5b612359868287016122df565b935050602061236a86828701612309565b925050604084013567ffffffffffffffff81111561238757600080fd5b612393868287016122a0565b9150509250925092565b6000602082840312156123af57600080fd5b60006123bd84828501612309565b91505092915050565b600080604083850312156123d957600080fd5b60006123e785828601612309565b92505060206123f88582860161228b565b9150509250929050565b6000806040838503121561241557600080fd5b600061242385828601612309565b9250506020612434858286016122ca565b9150509250929050565b60008060006060848603121561245357600080fd5b600061246186828701612309565b935050602084013567ffffffffffffffff81111561247e57600080fd5b61248a868287016122df565b925050604061249b86828701612309565b9150509250925092565b60006124b183836124bd565b60208301905092915050565b6124c681613215565b82525050565b6124d581613215565b82525050565b60006124e68261312a565b6124f0818561314d565b93506124fb83613105565b8060005b8381101561252c57815161251388826124a5565b975061251e83613140565b9250506001810190506124ff565b5085935050505092915050565b61254281613227565b82525050565b61255181613227565b82525050565b600081546125648161329f565b61256e818661315e565b94506001821660008114612589576001811461259a576125cd565b60ff198316865281860193506125cd565b6125a385613115565b60005b838110156125c5578154818901526001820191506020810190506125a6565b838801955050505b50505092915050565b60006125e182613135565b6125eb8185613169565b93506125fb81856020860161326c565b612604816133a7565b840191505092915050565b600061261a82613135565b612624818561317a565b935061263481856020860161326c565b61263d816133a7565b840191505092915050565b600061265560138361317a565b91507f46756e6420646f6573206e6f74206578697374000000000000000000000000006000830152602082019050919050565b600061269560318361317a565b91507f596f7520617265206e6f7420617574686f72697a656420746f2072657669657760008301527f2074686973206170706c69636174696f6e0000000000000000000000000000006020830152604082019050919050565b60006126fb601f8361317a565b91507f446f6e6174696f6e206d7573742062652067726561746572207468616e2030006000830152602082019050919050565b600061273b60088361317a565b91507f52656a65637465640000000000000000000000000000000000000000000000006000830152602082019050919050565b600061277b60088361317a565b91507f417070726f7665640000000000000000000000000000000000000000000000006000830152602082019050919050565b60006127bb601a8361317a565b91507f4170706c69636174696f6e20646f6573206e6f742065786973740000000000006000830152602082019050919050565b60006127fb601e8361317a565b91507f496e73756666696369656e742066756e647320696e207468652066756e6400006000830152602082019050919050565b600061283b60218361317a565b91507f416c72656164792072657669657765642074686973206170706c69636174696f60008301527f6e000000000000000000000000000000000000000000000000000000000000006020830152604082019050919050565b60006128a1600f8361317a565b91507f496e76616c69642066756e6420494400000000000000000000000000000000006000830152602082019050919050565b60006128e1601c8361317a565b91507f4170706c69636174696f6e206d75737420626520617070726f766564000000006000830152602082019050919050565b6000612921602b8361317a565b91507f4f6e6c79207468652066756e64206f776e65722063616e20706572666f726d2060008301527f7468697320616374696f6e0000000000000000000000000000000000000000006020830152604082019050919050565b600061298760008361315e565b9150600082019050919050565b60006129a160228361317a565b91507f4f6e6c79206f776e65722063616e20706572666f726d2074686973206163746960008301527f6f6e0000000000000000000000000000000000000000000000000000000000006020830152604082019050919050565b6000612a0760138361317a565b91507f44697362757273656d656e74206661696c6564000000000000000000000000006000830152602082019050919050565b600061012083016000830151612a536000860182612bb7565b506020830151612a6660208601826124bd565b506040830151612a796040860182612bb7565b5060608301518482036060860152612a9182826125d6565b91505060808301518482036080860152612aab82826125d6565b91505060a0830151612ac060a0860182612bb7565b5060c0830151612ad360c0860182612bb7565b5060e083015184820360e0860152612aeb82826124db565b915050610100830151848203610100860152612b0782826124db565b9150508091505092915050565b600060e083016000830151612b2c6000860182612bb7565b506020830151612b3f60208601826124bd565b506040830151612b526040860182612bb7565b506060830151612b656060860182612bb7565b5060808301518482036080860152612b7d82826125d6565b91505060a0830151612b9260a0860182612539565b5060c083015184820360c0860152612baa82826124db565b9150508091505092915050565b612bc081613253565b82525050565b612bcf81613253565b82525050565b6000612be18284612557565b915081905092915050565b6000612bf78261297a565b9150819050919050565b6000602082019050612c1660008301846124cc565b92915050565b6000606082019050612c3160008301866124cc565b612c3e6020830185612bc6565b612c4b6040830184612bc6565b949350505050565b6000602082019050612c686000830184612548565b92915050565b60006020820190508181036000830152612c8781612648565b9050919050565b60006020820190508181036000830152612ca781612688565b9050919050565b60006020820190508181036000830152612cc7816126ee565b9050919050565b60006020820190508181036000830152612ce7816127ae565b9050919050565b60006020820190508181036000830152612d07816127ee565b9050919050565b60006020820190508181036000830152612d278161282e565b9050919050565b60006020820190508181036000830152612d4781612894565b9050919050565b60006020820190508181036000830152612d67816128d4565b9050919050565b60006020820190508181036000830152612d8781612914565b9050919050565b60006020820190508181036000830152612da781612994565b9050919050565b60006020820190508181036000830152612dc7816129fa565b9050919050565b60006020820190508181036000830152612de88184612a3a565b905092915050565b60006020820190508181036000830152612e0a8184612b14565b905092915050565b6000602082019050612e276000830184612bc6565b92915050565b6000606082019050612e426000830186612bc6565b612e4f60208301856124cc565b8181036040830152612e61818461260f565b9050949350505050565b6000606082019050612e806000830185612bc6565b612e8d60208301846124cc565b8181036040830152612e9e8161272e565b90509392505050565b6000606082019050612ebc6000830185612bc6565b612ec960208301846124cc565b8181036040830152612eda8161276e565b90509392505050565b600060e082019050612ef8600083018a612bc6565b612f0560208301896124cc565b612f126040830188612bc6565b8181036060830152612f24818761260f565b90508181036080830152612f38818661260f565b9050612f4760a0830185612bc6565b612f5460c0830184612bc6565b98975050505050505050565b600060c082019050612f756000830189612bc6565b612f8260208301886124cc565b612f8f6040830187612bc6565b612f9c6060830186612bc6565b8181036080830152612fae818561260f565b9050612fbd60a0830184612548565b979650505050505050565b6000604082019050612fdd6000830185612bc6565b612fea6020830184612548565b9392505050565b60006040820190506130066000830185612bc6565b8181036020830152613018818461260f565b90509392505050565b60006040820190506130366000830184612bc6565b81810360208301526130478161276e565b905092915050565b60006040820190506130646000830185612bc6565b6130716020830184612bc6565b9392505050565b6000604051905081810181811067ffffffffffffffff8211171561309f5761309e613378565b5b8060405250919050565b600067ffffffffffffffff8211156130c4576130c3613378565b5b602082029050602081019050919050565b600067ffffffffffffffff8211156130f0576130ef613378565b5b601f19601f8301169050602081019050919050565b6000819050602082019050919050565b60008190508160005260206000209050919050565b600081519050919050565b600081519050919050565b6000602082019050919050565b600082825260208201905092915050565b600081905092915050565b600082825260208201905092915050565b600082825260208201905092915050565b600061319682613253565b91506131a183613253565b9250827fffffffffffffffffffffffffffffffffffffffffffffffffffffffffffffffff038211156131d6576131d561331a565b5b828201905092915050565b60006131ec82613253565b91506131f783613253565b92508282101561320a5761320961331a565b5b828203905092915050565b600061322082613233565b9050919050565b60008115159050919050565b600073ffffffffffffffffffffffffffffffffffffffff82169050919050565b6000819050919050565b82818337600083830152505050565b60005b8381101561328a57808201518184015260208101905061326f565b83811115613299576000848401525b50505050565b600060028204905060018216806132b757607f821691505b602082108114156132cb576132ca613349565b5b50919050565b60006132dc82613253565b91507fffffffffffffffffffffffffffffffffffffffffffffffffffffffffffffffff82141561330f5761330e61331a565b5b600182019050919050565b7f4e487b7100000000000000000000000000000000000000000000000000000000600052601160045260246000fd5b7f4e487b7100000000000000000000000000000000000000000000000000000000600052602260045260246000fd5b7f4e487b7100000000000000000000000000000000000000000000000000000000600052604160045260246000fd5b6000601f19601f8301169050919050565b6133c181613215565b81146133cc57600080fd5b50565b6133d881613227565b81146133e357600080fd5b50565b6133ef81613253565b81146133fa57600080fd5b5056fea26469706673582212200b31c5c67a822dc744895a1ff22c5a8f03a59000e53d8467986571a743c9713a64736f6c63430008000033",
  "immutableReferences": {},
  "source": "// SPDX-License-Identifier: MIT\r\npragma solidity ^0.8.0;\r\n\r\ncontract ScholarshipFund {\r\n    address public owner;\r\n    uint256 public applicationCount;\r\n    uint256 public fundCount;\r\n\r\n    struct Application {\r\n        uint256 id;\r\n        address applicant;\r\n        uint256 requestedAmount;\r\n        string mongoDbHash;\r\n        string status; // [Pending, Approved, Rejected, Funded]\r\n        uint256 fundId; // ID of the fund the application is tied to\r\n        uint256 approvals; // Number of approvals received\r\n        address[] approvers; // List of addresses who approved this application\r\n        address[] rejectors; // List of addresses who rejected this application\r\n    }\r\n\r\n    struct Fund {\r\n        uint256 id;\r\n        address fundOwner;\r\n        uint256 balance;\r\n        uint256 minApprovals;\r\n        string name;\r\n        bool approved; // Whether the fund is approved by the contract owner\r\n        address[] reviewers; // List of reviewer addresses for this fund (empty means open to all)\r\n    }\r\n\r\n    mapping(uint256 => Application) public applications;\r\n    mapping(uint256 => Fund) public funds;\r\n    mapping(uint256 => mapping(address => bool)) public hasReviewed; // Tracks if a reviewer has already reviewed an application\r\n\r\n    event ApplicationSubmitted(uint256 id, string mongoDbHash);\r\n    event ApplicationStatusUpdated(uint256 id, string status);\r\n    event FundsDisbursed(uint256 applicationId, uint256 amount);\r\n    event DonationReceived(address donor, uint256 fundId, uint256 amount);\r\n    event FundCreated(uint256 id, address fundOwner, string name);\r\n    event FundApproved(uint256 fundId, bool approved);\r\n    event ApplicationReviewed(\r\n        uint256 applicationId,\r\n        address reviewer,\r\n        string action\r\n    );\r\n\r\n    modifier onlyOwner() {\r\n        require(msg.sender == owner, \"Only owner can perform this action\");\r\n        _;\r\n    }\r\n\r\n    modifier onlyFundOwner(uint256 _fundId) {\r\n        require(\r\n            funds[_fundId].fundOwner == msg.sender,\r\n            \"Only the fund owner can perform this action\"\r\n        );\r\n        _;\r\n    }\r\n\r\n    constructor() {\r\n        owner = msg.sender;\r\n    }\r\n\r\n    // Application Functions\r\n    function submitApplication(\r\n        uint256 _requestedAmount,\r\n        string memory _mongoDbHash,\r\n        uint256 _fundId\r\n    ) external returns (uint256) {\r\n        require(_fundId <= fundCount, \"Fund does not exist\");\r\n\r\n        applicationCount++;\r\n        applications[applicationCount] = Application(\r\n            applicationCount,\r\n            msg.sender,\r\n            _requestedAmount,\r\n            _mongoDbHash,\r\n            \"Pending\",\r\n            _fundId,\r\n            0,\r\n            new address[](0),\r\n            new address[](0)\r\n        );\r\n        emit ApplicationSubmitted(applicationCount, _mongoDbHash);\r\n        return applicationCount;\r\n    }\r\n\r\n    function updateApplicationStatus(uint256 _id, bool approve) external onlyOwner {\r\n        require(_id <= applicationCount, \"Application does not exist\");\r\n        string memory _status = \"Rejected\";\r\n        if (approve) {\r\n            _status = \"Approved\";\r\n        } \r\n        applications[_id].status = _status;\r\n        emit ApplicationStatusUpdated(_id, _status);\r\n    }\r\n\r\n\r\n\r\n\r\n    function reviewApplication(uint256 _applicationId, bool approve) external {\r\n        require(\r\n            _applicationId <= applicationCount,\r\n            \"Application does not exist\"\r\n        );\r\n        Application storage app = applications[_applicationId];\r\n        Fund storage fund = funds[app.fundId];\r\n\r\n        // Check if the fund is open to all or the reviewer is specified\r\n        require(\r\n            fund.reviewers.length == 0 || isReviewer(app.fundId, msg.sender),\r\n            \"You are not authorized to review this application\"\r\n        );\r\n\r\n        require(\r\n            !hasReviewed[_applicationId][msg.sender],\r\n            \"Already reviewed this application\"\r\n        );\r\n\r\n        hasReviewed[_applicationId][msg.sender] = true;\r\n\r\n        if (approve) {\r\n            app.approvals++;\r\n            app.approvers.push(msg.sender);\r\n            emit ApplicationReviewed(_applicationId, msg.sender, \"Approved\");\r\n        } else {\r\n            app.rejectors.push(msg.sender);\r\n            emit ApplicationReviewed(_applicationId, msg.sender, \"Rejected\");\r\n        }\r\n\r\n        // Automatically set status to \"Approved\" if minimum approvals are met\r\n        if (app.approvals >= fund.minApprovals) {\r\n            app.status = \"Approved\";\r\n            emit ApplicationStatusUpdated(_applicationId, \"Approved\");\r\n        }\r\n    }\r\n\r\n    function getApplication(\r\n        uint256 _id\r\n    )\r\n        external\r\n        view\r\n        returns ( Application memory )\r\n    {\r\n        require(_id <= applicationCount, \"Application does not exist\");\r\n        Application memory app = applications[_id];\r\n        return app;\r\n    }\r\n\r\n    // Fund Functions\r\n    function createFund(\r\n        string memory _name,\r\n        uint256 _minApprovals,\r\n        address[] memory _reviewers\r\n    ) external payable returns (uint256) {\r\n        fundCount++;\r\n        funds[fundCount] = Fund(\r\n            fundCount,\r\n            msg.sender,\r\n            msg.value,\r\n            _minApprovals,\r\n            _name,\r\n            false,\r\n            _reviewers\r\n        );\r\n        emit FundCreated(fundCount, msg.sender, _name);\r\n        return fundCount;\r\n    }\r\n\r\n    function approveFund(uint256 _fundId) external onlyOwner {\r\n        require(_fundId <= fundCount, \"Fund does not exist\");\r\n        Fund storage fund = funds[_fundId];\r\n        fund.approved = true;\r\n        emit FundApproved(_fundId, true);\r\n    }\r\n\r\n    function donateToFund(uint256 _fundId) external payable {\r\n        require(_fundId <= fundCount, \"Fund does not exist\");\r\n        require(msg.value > 0, \"Donation must be greater than 0\");\r\n\r\n        Fund storage fund = funds[_fundId];\r\n        fund.balance += msg.value;\r\n\r\n        emit DonationReceived(msg.sender, _fundId, msg.value);\r\n    }\r\n\r\n    function getFund(\r\n        uint256 _fundId\r\n    )\r\n        external\r\n        view\r\n        returns (Fund memory)\r\n    {\r\n        require(_fundId <= fundCount, \"Fund does not exist\");\r\n        Fund memory fund = funds[_fundId];\r\n        return fund;\r\n    }\r\n\r\n    function disburseFunds(uint256 _applicationId) external onlyOwner {\r\n        require(\r\n            _applicationId <= applicationCount,\r\n            \"Application does not exist\"\r\n        );\r\n        Application storage app = applications[_applicationId];\r\n\r\n        require(app.fundId <= fundCount, \"Invalid fund ID\"); // Check that the fund exists\r\n\r\n        require(\r\n            keccak256(bytes(app.status)) == keccak256(bytes(\"Approved\")),\r\n            \"Application must be approved\"\r\n        );\r\n        require(\r\n            app.requestedAmount <= funds[app.fundId].balance,\r\n            \"Insufficient funds in the fund\"\r\n        );\r\n\r\n        app.status = \"Funded\";\r\n        funds[app.fundId].balance -= app.requestedAmount; // Deduct the amount from the specific fund\r\n\r\n        (bool success, ) = app.applicant.call{value: app.requestedAmount}(\"\");\r\n        require(success, \"Disbursement failed\");\r\n\r\n        emit FundsDisbursed(_applicationId, app.requestedAmount);\r\n    }\r\n\r\n    // Helper Functions\r\n    function isReviewer(\r\n        uint256 _fundId,\r\n        address _reviewer\r\n    ) internal view returns (bool) {\r\n        Fund memory fund = funds[_fundId];\r\n        for (uint256 i = 0; i < fund.reviewers.length; i++) {\r\n            if (fund.reviewers[i] == _reviewer) {\r\n                return true;\r\n            }\r\n        }\r\n        return false;\r\n    }\r\n\r\n    function addReviewer(uint256 _fundId, address _reviewer) external onlyFundOwner(_fundId) {\r\n    // Access the fund in storage\r\n    Fund storage fund = funds[_fundId];\r\n    fund.reviewers.push(_reviewer); // Add the reviewer to the reviewers array\r\n}\r\n}\r\n\r\n",
  "sourcePath": "C:\\Users\\saritajoshi\\Documents\\559_Blockchain\\scholarship-proj\\contracts\\ScholarshipFund.sol",
  "compiler": {
    "name": "solc",
    "version": "0.8.0+commit.c7dfd78e.Emscripten.clang"
  },
  "schemaVersion": "3.4.16",
  "updatedAt": "2024-11-24T00:57:40.091Z",
  "networkType": "ethereum",
  "devdoc": {
    "kind": "dev",
    "methods": {},
    "version": 1
  },
  "userdoc": {
    "kind": "user",
    "methods": {},
    "version": 1
  }
}