{
  "contractName": "ScholarshipFund",
  "abi": [
    {
      "inputs": [],
      "stateMutability": "nonpayable",
      "type": "constructor"
    },
    {
      "inputs": [],
      "name": "applicationContract",
      "outputs": [
        {
          "internalType": "contract ApplicationContract",
          "name": "",
          "type": "address"
        }
      ],
      "stateMutability": "view",
      "type": "function",
      "constant": true
    },
    {
      "inputs": [],
      "name": "disbursementContract",
      "outputs": [
        {
          "internalType": "contract DisbursementContract",
          "name": "",
          "type": "address"
        }
      ],
      "stateMutability": "view",
      "type": "function",
      "constant": true
    },
    {
      "inputs": [],
      "name": "donationContract",
      "outputs": [
        {
          "internalType": "contract DonationContract",
          "name": "",
          "type": "address"
        }
      ],
      "stateMutability": "view",
      "type": "function",
      "constant": true
    },
    {
      "inputs": [],
      "name": "owner",
      "outputs": [
        {
          "internalType": "address",
          "name": "",
          "type": "address"
        }
      ],
      "stateMutability": "view",
      "type": "function",
      "constant": true
    },
    {
      "inputs": [],
      "name": "donate",
      "outputs": [],
      "stateMutability": "payable",
      "type": "function",
      "payable": true
    },
    {
      "inputs": [],
      "name": "getTotalDonations",
      "outputs": [
        {
          "internalType": "uint256",
          "name": "",
          "type": "uint256"
        }
      ],
      "stateMutability": "view",
      "type": "function",
      "constant": true
    },
    {
      "inputs": [
        {
          "internalType": "uint256",
          "name": "_requestedAmount",
          "type": "uint256"
        },
        {
          "internalType": "string",
          "name": "_mongoDbHash",
          "type": "string"
        }
      ],
      "name": "submitApplication",
      "outputs": [],
      "stateMutability": "nonpayable",
      "type": "function"
    },
    {
      "inputs": [
        {
          "internalType": "uint256",
          "name": "_id",
          "type": "uint256"
        },
        {
          "internalType": "string",
          "name": "_status",
          "type": "string"
        }
      ],
      "name": "updateApplicationStatus",
      "outputs": [],
      "stateMutability": "nonpayable",
      "type": "function"
    },
    {
      "inputs": [],
      "name": "fundDisbursementContract",
      "outputs": [],
      "stateMutability": "payable",
      "type": "function",
      "payable": true
    },
    {
      "inputs": [
        {
          "internalType": "uint256",
          "name": "_applicationId",
          "type": "uint256"
        }
      ],
      "name": "disburseFunds",
      "outputs": [],
      "stateMutability": "nonpayable",
      "type": "function"
    },
    {
      "inputs": [],
      "name": "getOwner",
      "outputs": [
        {
          "internalType": "address",
          "name": "",
          "type": "address"
        }
      ],
      "stateMutability": "view",
      "type": "function",
      "constant": true
    },
    {
      "inputs": [],
      "name": "getDisbursementBalance",
      "outputs": [
        {
          "internalType": "uint256",
          "name": "",
          "type": "uint256"
        }
      ],
      "stateMutability": "view",
      "type": "function",
      "constant": true
    }
  ],
  "bytecode": "0x60806040523480156200001157600080fd5b50336000806101000a81548173ffffffffffffffffffffffffffffffffffffffff021916908373ffffffffffffffffffffffffffffffffffffffff16021790555060405162000060906200019c565b604051809103906000f0801580156200007d573d6000803e3d6000fd5b50600160006101000a81548173ffffffffffffffffffffffffffffffffffffffff021916908373ffffffffffffffffffffffffffffffffffffffff160217905550604051620000cc90620001aa565b604051809103906000f080158015620000e9573d6000803e3d6000fd5b50600260006101000a81548173ffffffffffffffffffffffffffffffffffffffff021916908373ffffffffffffffffffffffffffffffffffffffff1602179055506040516200013890620001b8565b604051809103906000f08015801562000155573d6000803e3d6000fd5b50600360006101000a81548173ffffffffffffffffffffffffffffffffffffffff021916908373ffffffffffffffffffffffffffffffffffffffff160217905550620001c6565b610405806200143083390190565b610c19806200183583390190565b610662806200244e83390190565b61125a80620001d66000396000f3fe6080604052600436106100a75760003560e01c80638ad9cbd1116100645780638ad9cbd11461018b5780638da5cb5b146101b4578063cc212a48146101df578063ecd4b7d614610208578063ed88c68e14610233578063fce85fd51461023d576100a7565b8063052db2ec146100ac57806309fd8d30146100d757806365027bf01461010057806375624cb91461010a578063777c658f14610135578063893d20e814610160575b600080fd5b3480156100b857600080fd5b506100c1610268565b6040516100ce9190610fbb565b60405180910390f35b3480156100e357600080fd5b506100fe60048036038101906100f99190610c9c565b61030f565b005b6101086103a2565b005b34801561011657600080fd5b5061011f6104de565b60405161012c9190610f20565b60405180910390f35b34801561014157600080fd5b5061014a610504565b6040516101579190610fbb565b60405180910390f35b34801561016c57600080fd5b506101756105ab565b6040516101829190610ecf565b60405180910390f35b34801561019757600080fd5b506101b260048036038101906101ad9190610c9c565b6105d4565b005b3480156101c057600080fd5b506101c96106f5565b6040516101d69190610ecf565b60405180910390f35b3480156101eb57600080fd5b5061020660048036038101906102019190610ba3565b610719565b005b34801561021457600080fd5b5061021d610980565b60405161022a9190610f05565b60405180910390f35b61023b6109a6565b005b34801561024957600080fd5b50610252610a6e565b60405161025f9190610eea565b60405180910390f35b6000600360009054906101000a900473ffffffffffffffffffffffffffffffffffffffff1673ffffffffffffffffffffffffffffffffffffffff166312065fe06040518163ffffffff1660e01b815260040160206040518083038186803b1580156102d257600080fd5b505afa1580156102e6573d6000803e3d6000fd5b505050506040513d601f19601f8201168201806040525081019061030a9190610bcc565b905090565b600260009054906101000a900473ffffffffffffffffffffffffffffffffffffffff1673ffffffffffffffffffffffffffffffffffffffff166309fd8d3083836040518363ffffffff1660e01b815260040161036c92919061100d565b600060405180830381600087803b15801561038657600080fd5b505af115801561039a573d6000803e3d6000fd5b505050505050565b60008054906101000a900473ffffffffffffffffffffffffffffffffffffffff1673ffffffffffffffffffffffffffffffffffffffff163373ffffffffffffffffffffffffffffffffffffffff1614610430576040517f08c379a000000000000000000000000000000000000000000000000000000000815260040161042790610f7b565b60405180910390fd5b60003411610473576040517f08c379a000000000000000000000000000000000000000000000000000000000815260040161046a90610f5b565b60405180910390fd5b600360009054906101000a900473ffffffffffffffffffffffffffffffffffffffff1673ffffffffffffffffffffffffffffffffffffffff166108fc349081150290604051600060405180830381858888f193505050501580156104db573d6000803e3d6000fd5b50565b600160009054906101000a900473ffffffffffffffffffffffffffffffffffffffff1681565b6000600160009054906101000a900473ffffffffffffffffffffffffffffffffffffffff1673ffffffffffffffffffffffffffffffffffffffff1663777c658f6040518163ffffffff1660e01b815260040160206040518083038186803b15801561056e57600080fd5b505afa158015610582573d6000803e3d6000fd5b505050506040513d601f19601f820116820180604052508101906105a69190610bcc565b905090565b60008060009054906101000a900473ffffffffffffffffffffffffffffffffffffffff16905090565b60008054906101000a900473ffffffffffffffffffffffffffffffffffffffff1673ffffffffffffffffffffffffffffffffffffffff163373ffffffffffffffffffffffffffffffffffffffff1614610662576040517f08c379a000000000000000000000000000000000000000000000000000000000815260040161065990610f7b565b60405180910390fd5b600260009054906101000a900473ffffffffffffffffffffffffffffffffffffffff1673ffffffffffffffffffffffffffffffffffffffff16638ad9cbd183836040518363ffffffff1660e01b81526004016106bf92919061100d565b600060405180830381600087803b1580156106d957600080fd5b505af11580156106ed573d6000803e3d6000fd5b505050505050565b60008054906101000a900473ffffffffffffffffffffffffffffffffffffffff1681565b60008054906101000a900473ffffffffffffffffffffffffffffffffffffffff1673ffffffffffffffffffffffffffffffffffffffff163373ffffffffffffffffffffffffffffffffffffffff16146107a7576040517f08c379a000000000000000000000000000000000000000000000000000000000815260040161079e90610f7b565b60405180910390fd5b6000806000600260009054906101000a900473ffffffffffffffffffffffffffffffffffffffff1673ffffffffffffffffffffffffffffffffffffffff1663dfefadff856040518263ffffffff1660e01b81526004016108079190610fbb565b60006040518083038186803b15801561081f57600080fd5b505afa158015610833573d6000803e3d6000fd5b505050506040513d6000823e3d601f19601f8201168201806040525081019061085c9190610bf5565b94505093509350506040518060400160405280600881526020017f417070726f766564000000000000000000000000000000000000000000000000815250805190602001208180519060200120146108e9576040517f08c379a00000000000000000000000000000000000000000000000000000000081526004016108e090610f9b565b60405180910390fd5b600360009054906101000a900473ffffffffffffffffffffffffffffffffffffffff1673ffffffffffffffffffffffffffffffffffffffff1663acf2c6118585856040518463ffffffff1660e01b815260040161094893929190610fd6565b600060405180830381600087803b15801561096257600080fd5b505af1158015610976573d6000803e3d6000fd5b5050505050505050565b600360009054906101000a900473ffffffffffffffffffffffffffffffffffffffff1681565b600034116109e9576040517f08c379a00000000000000000000000000000000000000000000000000000000081526004016109e090610f3b565b60405180910390fd5b600160009054906101000a900473ffffffffffffffffffffffffffffffffffffffff1673ffffffffffffffffffffffffffffffffffffffff1663ed88c68e346040518263ffffffff1660e01b81526004016000604051808303818588803b158015610a5357600080fd5b505af1158015610a67573d6000803e3d6000fd5b5050505050565b600260009054906101000a900473ffffffffffffffffffffffffffffffffffffffff1681565b6000610aa7610aa28461106e565b61103d565b905082815260208101848484011115610abf57600080fd5b610aca848285611174565b509392505050565b6000610ae5610ae08461106e565b61103d565b905082815260208101848484011115610afd57600080fd5b610b08848285611183565b509392505050565b600081519050610b1f816111f6565b92915050565b600082601f830112610b3657600080fd5b8135610b46848260208601610a94565b91505092915050565b600082601f830112610b6057600080fd5b8151610b70848260208601610ad2565b91505092915050565b600081359050610b888161120d565b92915050565b600081519050610b9d8161120d565b92915050565b600060208284031215610bb557600080fd5b6000610bc384828501610b79565b91505092915050565b600060208284031215610bde57600080fd5b6000610bec84828501610b8e565b91505092915050565b600080600080600060a08688031215610c0d57600080fd5b6000610c1b88828901610b8e565b9550506020610c2c88828901610b10565b9450506040610c3d88828901610b8e565b935050606086015167ffffffffffffffff811115610c5a57600080fd5b610c6688828901610b4f565b925050608086015167ffffffffffffffff811115610c8357600080fd5b610c8f88828901610b4f565b9150509295509295909350565b60008060408385031215610caf57600080fd5b6000610cbd85828601610b79565b925050602083013567ffffffffffffffff811115610cda57600080fd5b610ce685828601610b25565b9150509250929050565b610cf9816110cc565b82525050565b610d08816110ba565b82525050565b610d1781611108565b82525050565b610d268161112c565b82525050565b610d3581611150565b82525050565b6000610d468261109e565b610d5081856110a9565b9350610d60818560208601611183565b610d69816111e5565b840191505092915050565b6000610d816022836110a9565b91507f446f6e6174696f6e206d7573742062652067726561746572207468616e207a6560008301527f726f0000000000000000000000000000000000000000000000000000000000006020830152604082019050919050565b6000610de76020836110a9565b91507f416d6f756e74206d7573742062652067726561746572207468616e207a65726f6000830152602082019050919050565b6000610e276022836110a9565b91507f4f6e6c79206f776e65722063616e20706572666f726d2074686973206163746960008301527f6f6e0000000000000000000000000000000000000000000000000000000000006020830152604082019050919050565b6000610e8d601b836110a9565b91507f4170706c69636174696f6e206973206e6f7420617070726f76656400000000006000830152602082019050919050565b610ec9816110fe565b82525050565b6000602082019050610ee46000830184610cff565b92915050565b6000602082019050610eff6000830184610d0e565b92915050565b6000602082019050610f1a6000830184610d1d565b92915050565b6000602082019050610f356000830184610d2c565b92915050565b60006020820190508181036000830152610f5481610d74565b9050919050565b60006020820190508181036000830152610f7481610dda565b9050919050565b60006020820190508181036000830152610f9481610e1a565b9050919050565b60006020820190508181036000830152610fb481610e80565b9050919050565b6000602082019050610fd06000830184610ec0565b92915050565b6000606082019050610feb6000830186610ec0565b610ff86020830185610cf0565b6110056040830184610ec0565b949350505050565b60006040820190506110226000830185610ec0565b81810360208301526110348184610d3b565b90509392505050565b6000604051905081810181811067ffffffffffffffff82111715611064576110636111b6565b5b8060405250919050565b600067ffffffffffffffff821115611089576110886111b6565b5b601f19601f8301169050602081019050919050565b600081519050919050565b600082825260208201905092915050565b60006110c5826110de565b9050919050565b60006110d7826110de565b9050919050565b600073ffffffffffffffffffffffffffffffffffffffff82169050919050565b6000819050919050565b60006111138261111a565b9050919050565b6000611125826110de565b9050919050565b60006111378261113e565b9050919050565b6000611149826110de565b9050919050565b600061115b82611162565b9050919050565b600061116d826110de565b9050919050565b82818337600083830152505050565b60005b838110156111a1578082015181840152602081019050611186565b838111156111b0576000848401525b50505050565b7f4e487b7100000000000000000000000000000000000000000000000000000000600052604160045260246000fd5b6000601f19601f8301169050919050565b6111ff816110ba565b811461120a57600080fd5b50565b611216816110fe565b811461122157600080fd5b5056fea2646970667358221220fdeece4e5d264a203cc623ce0e3949c6a3158f4da8ed2d4f2884b90c317c5fe364736f6c63430008000033608060405234801561001057600080fd5b50336000806101000a81548173ffffffffffffffffffffffffffffffffffffffff021916908373ffffffffffffffffffffffffffffffffffffffff1602179055506103a5806100606000396000f3fe60806040526004361061003f5760003560e01c8063777c658f146100445780638da5cb5b1461006f578063de2ed8931461009a578063ed88c68e146100c5575b600080fd5b34801561005057600080fd5b506100596100cf565b6040516100669190610282565b60405180910390f35b34801561007b57600080fd5b506100846100d9565b604051610091919061021e565b60405180910390f35b3480156100a657600080fd5b506100af6100fd565b6040516100bc9190610282565b60405180910390f35b6100cd610103565b005b6000600154905090565b60008054906101000a900473ffffffffffffffffffffffffffffffffffffffff1681565b60015481565b60003411610146576040517f08c379a000000000000000000000000000000000000000000000000000000000815260040161013d90610262565b60405180910390fd5b346001600082825461015891906102ae565b925050819055507f264f630d9efa0d07053a31163641d9fcc0adafc9d9e76f1c37c2ce3a558d2c523334604051610190929190610239565b60405180910390a1565b6101a381610304565b82525050565b60006101b660228361029d565b91507f446f6e6174696f6e206d7573742062652067726561746572207468616e207a6560008301527f726f0000000000000000000000000000000000000000000000000000000000006020830152604082019050919050565b61021881610336565b82525050565b6000602082019050610233600083018461019a565b92915050565b600060408201905061024e600083018561019a565b61025b602083018461020f565b9392505050565b6000602082019050818103600083015261027b816101a9565b9050919050565b6000602082019050610297600083018461020f565b92915050565b600082825260208201905092915050565b60006102b982610336565b91506102c483610336565b9250827fffffffffffffffffffffffffffffffffffffffffffffffffffffffffffffffff038211156102f9576102f8610340565b5b828201905092915050565b600061030f82610316565b9050919050565b600073ffffffffffffffffffffffffffffffffffffffff82169050919050565b6000819050919050565b7f4e487b7100000000000000000000000000000000000000000000000000000000600052601160045260246000fdfea2646970667358221220b37bf5c8b56fc92df404663e0e27e384a93c3f5844e43d1be9d66fe7dc40049964736f6c63430008000033608060405234801561001057600080fd5b50336000806101000a81548173ffffffffffffffffffffffffffffffffffffffff021916908373ffffffffffffffffffffffffffffffffffffffff160217905550610bb9806100606000396000f3fe608060405234801561001057600080fd5b50600436106100575760003560e01c806309fd8d301461005c5780638ad9cbd1146100785780638da5cb5b14610094578063dfefadff146100b2578063e2aad4a0146100e6575b600080fd5b610076600480360381019061007191906106b4565b610104565b005b610092600480360381019061008d91906106b4565b610280565b005b61009c6103db565b6040516100a99190610805565b60405180910390f35b6100cc60048036038101906100c7919061068b565b6103ff565b6040516100dd9594939291906108c7565b60405180910390f35b6100ee610565565b6040516100fb9190610860565b60405180910390f35b6001600081548092919061011790610a85565b91905055506040518060a0016040528060015481526020013373ffffffffffffffffffffffffffffffffffffffff1681526020018381526020018281526020016040518060400160405280600781526020017f50656e64696e67000000000000000000000000000000000000000000000000008152508152506002600060015481526020019081526020016000206000820151816000015560208201518160010160006101000a81548173ffffffffffffffffffffffffffffffffffffffff021916908373ffffffffffffffffffffffffffffffffffffffff16021790555060408201518160020155606082015181600301908051906020019061021c92919061056b565b50608082015181600401908051906020019061023992919061056b565b509050507fe4b8e969be7436f10cc5e8d346f485fe6b6438e59bc9c0a22c1606572ef3b009600154338484604051610274949392919061087b565b60405180910390a15050565b60008054906101000a900473ffffffffffffffffffffffffffffffffffffffff1673ffffffffffffffffffffffffffffffffffffffff163373ffffffffffffffffffffffffffffffffffffffff161461030e576040517f08c379a000000000000000000000000000000000000000000000000000000000815260040161030590610840565b60405180910390fd5b600060026000848152602001908152602001600020600401805461033190610a53565b905011610373576040517f08c379a000000000000000000000000000000000000000000000000000000000815260040161036a90610820565b60405180910390fd5b8060026000848152602001908152602001600020600401908051906020019061039d92919061056b565b507f982d2f50711b24245cf16c2aeb3f5f7b969553aa8d2b227e40edd3619f83fe5982826040516103cf929190610928565b60405180910390a15050565b60008054906101000a900473ffffffffffffffffffffffffffffffffffffffff1681565b60026020528060005260406000206000915090508060000154908060010160009054906101000a900473ffffffffffffffffffffffffffffffffffffffff169080600201549080600301805461045490610a53565b80601f016020809104026020016040519081016040528092919081815260200182805461048090610a53565b80156104cd5780601f106104a2576101008083540402835291602001916104cd565b820191906000526020600020905b8154815290600101906020018083116104b057829003601f168201915b5050505050908060040180546104e290610a53565b80601f016020809104026020016040519081016040528092919081815260200182805461050e90610a53565b801561055b5780601f106105305761010080835404028352916020019161055b565b820191906000526020600020905b81548152906001019060200180831161053e57829003601f168201915b5050505050905085565b60015481565b82805461057790610a53565b90600052602060002090601f01602090048101928261059957600085556105e0565b82601f106105b257805160ff19168380011785556105e0565b828001600101855582156105e0579182015b828111156105df5782518255916020019190600101906105c4565b5b5090506105ed91906105f1565b5090565b5b8082111561060a5760008160009055506001016105f2565b5090565b600061062161061c84610989565b610958565b90508281526020810184848401111561063957600080fd5b610644848285610a11565b509392505050565b600082601f83011261065d57600080fd5b813561066d84826020860161060e565b91505092915050565b60008135905061068581610b6c565b92915050565b60006020828403121561069d57600080fd5b60006106ab84828501610676565b91505092915050565b600080604083850312156106c757600080fd5b60006106d585828601610676565b925050602083013567ffffffffffffffff8111156106f257600080fd5b6106fe8582860161064c565b9150509250929050565b610711816109d5565b82525050565b6000610722826109b9565b61072c81856109c4565b935061073c818560208601610a20565b61074581610b5b565b840191505092915050565b600061075d601a836109c4565b91507f4170706c69636174696f6e20646f6573206e6f742065786973740000000000006000830152602082019050919050565b600061079d6022836109c4565b91507f4f6e6c79206f776e65722063616e20706572666f726d2074686973206163746960008301527f6f6e0000000000000000000000000000000000000000000000000000000000006020830152604082019050919050565b6107ff81610a07565b82525050565b600060208201905061081a6000830184610708565b92915050565b6000602082019050818103600083015261083981610750565b9050919050565b6000602082019050818103600083015261085981610790565b9050919050565b600060208201905061087560008301846107f6565b92915050565b600060808201905061089060008301876107f6565b61089d6020830186610708565b6108aa60408301856107f6565b81810360608301526108bc8184610717565b905095945050505050565b600060a0820190506108dc60008301886107f6565b6108e96020830187610708565b6108f660408301866107f6565b81810360608301526109088185610717565b9050818103608083015261091c8184610717565b90509695505050505050565b600060408201905061093d60008301856107f6565b818103602083015261094f8184610717565b90509392505050565b6000604051905081810181811067ffffffffffffffff8211171561097f5761097e610b2c565b5b8060405250919050565b600067ffffffffffffffff8211156109a4576109a3610b2c565b5b601f19601f8301169050602081019050919050565b600081519050919050565b600082825260208201905092915050565b60006109e0826109e7565b9050919050565b600073ffffffffffffffffffffffffffffffffffffffff82169050919050565b6000819050919050565b82818337600083830152505050565b60005b83811015610a3e578082015181840152602081019050610a23565b83811115610a4d576000848401525b50505050565b60006002820490506001821680610a6b57607f821691505b60208210811415610a7f57610a7e610afd565b5b50919050565b6000610a9082610a07565b91507fffffffffffffffffffffffffffffffffffffffffffffffffffffffffffffffff821415610ac357610ac2610ace565b5b600182019050919050565b7f4e487b7100000000000000000000000000000000000000000000000000000000600052601160045260246000fd5b7f4e487b7100000000000000000000000000000000000000000000000000000000600052602260045260246000fd5b7f4e487b7100000000000000000000000000000000000000000000000000000000600052604160045260246000fd5b6000601f19601f8301169050919050565b610b7581610a07565b8114610b8057600080fd5b5056fea2646970667358221220fc8e19d82d884d6bba19f9cdb5ce336df753dc08543d143c9a2b722e3c2b0ae664736f6c63430008000033608060405234801561001057600080fd5b50336000806101000a81548173ffffffffffffffffffffffffffffffffffffffff021916908373ffffffffffffffffffffffffffffffffffffffff160217905550610602806100606000396000f3fe6080604052600436106100385760003560e01c806312065fe0146100445780638da5cb5b1461006f578063acf2c6111461009a5761003f565b3661003f57005b600080fd5b34801561005057600080fd5b506100596100c3565b60405161006691906104b7565b60405180910390f35b34801561007b57600080fd5b506100846100cb565b604051610091919061043c565b60405180910390f35b3480156100a657600080fd5b506100c160048036038101906100bc91906102b4565b6100ef565b005b600047905090565b60008054906101000a900473ffffffffffffffffffffffffffffffffffffffff1681565b60008054906101000a900473ffffffffffffffffffffffffffffffffffffffff1673ffffffffffffffffffffffffffffffffffffffff163373ffffffffffffffffffffffffffffffffffffffff161461017d576040517f08c379a000000000000000000000000000000000000000000000000000000000815260040161017490610497565b60405180910390fd5b804710156101c0576040517f08c379a00000000000000000000000000000000000000000000000000000000081526004016101b790610477565b60405180910390fd5b60008111610203576040517f08c379a00000000000000000000000000000000000000000000000000000000081526004016101fa90610457565b60405180910390fd5b8173ffffffffffffffffffffffffffffffffffffffff166108fc829081150290604051600060405180830381858888f19350505050158015610249573d6000803e3d6000fd5b507feb2cd132972ac2f1b1b2806265483bfbe1a6c39df51e7a855c258ecd12fd1c4483838360405161027d939291906104d2565b60405180910390a1505050565b6000813590506102998161059e565b92915050565b6000813590506102ae816105b5565b92915050565b6000806000606084860312156102c957600080fd5b60006102d78682870161029f565b93505060206102e88682870161028a565b92505060406102f98682870161029f565b9150509250925092565b61030c81610568565b82525050565b61031b8161051a565b82525050565b600061032e602083610509565b91507f416d6f756e74206d7573742062652067726561746572207468616e207a65726f6000830152602082019050919050565b600061036e602583610509565b91507f496e73756666696369656e742062616c616e636520666f72206469736275727360008301527f656d656e740000000000000000000000000000000000000000000000000000006020830152604082019050919050565b60006103d4602283610509565b91507f4f6e6c79206f776e65722063616e20706572666f726d2074686973206163746960008301527f6f6e0000000000000000000000000000000000000000000000000000000000006020830152604082019050919050565b6104368161055e565b82525050565b60006020820190506104516000830184610312565b92915050565b6000602082019050818103600083015261047081610321565b9050919050565b6000602082019050818103600083015261049081610361565b9050919050565b600060208201905081810360008301526104b0816103c7565b9050919050565b60006020820190506104cc600083018461042d565b92915050565b60006060820190506104e7600083018661042d565b6104f46020830185610303565b610501604083018461042d565b949350505050565b600082825260208201905092915050565b60006105258261053e565b9050919050565b60006105378261053e565b9050919050565b600073ffffffffffffffffffffffffffffffffffffffff82169050919050565b6000819050919050565b60006105738261057a565b9050919050565b60006105858261058c565b9050919050565b60006105978261053e565b9050919050565b6105a78161052c565b81146105b257600080fd5b50565b6105be8161055e565b81146105c957600080fd5b5056fea2646970667358221220dd90f4d5cd1ce683f94579cfacbd65769f2fe403814ec02914b2310703ebc0ff64736f6c63430008000033",
  "immutableReferences": {},
  "source": "// SPDX-License-Identifier: MIT\r\npragma solidity ^0.8.0;\r\n\r\nimport \"./DonationContract.sol\";\r\nimport \"./ApplicationContract.sol\";\r\nimport \"./DisbursementContract.sol\";\r\n\r\ncontract ScholarshipFund {\r\n    address public owner;\r\n    DonationContract public donationContract;\r\n    ApplicationContract public applicationContract;\r\n    DisbursementContract public disbursementContract;\r\n\r\n    modifier onlyOwner() {\r\n        require(msg.sender == owner, \"Only owner can perform this action\");\r\n        _;\r\n    }\r\n\r\n    constructor() {\r\n        owner = msg.sender;\r\n        donationContract = new DonationContract();\r\n        applicationContract = new ApplicationContract();\r\n        disbursementContract = new DisbursementContract();\r\n    }\r\n\r\n    // Function to accept donations\r\n    function donate() external payable {\r\n        require(msg.value > 0, \"Donation must be greater than zero\");\r\n        donationContract.donate{ value: msg.value }();\r\n    }\r\n\r\n    // Function to get total donations\r\n    function getTotalDonations() external view returns (uint256) {\r\n        return donationContract.getTotalDonations();\r\n    }\r\n\r\n    // Functions to interact with ApplicationContract\r\n    function submitApplication(uint256 _requestedAmount, string memory _mongoDbHash) external {\r\n        applicationContract.submitApplication(_requestedAmount, _mongoDbHash);\r\n    }\r\n\r\n    function updateApplicationStatus(uint256 _id, string memory _status) external onlyOwner {\r\n        applicationContract.updateApplicationStatus(_id, _status);\r\n    }\r\n\r\n    // Function to fund the Disbursement Contract\r\n    function fundDisbursementContract() external payable onlyOwner {\r\n        require(msg.value > 0, \"Amount must be greater than zero\");\r\n        payable(address(disbursementContract)).transfer(msg.value);\r\n    }\r\n\r\n    // Function to disburse funds to an approved applicant\r\n    function disburseFunds(uint256 _applicationId) external onlyOwner {\r\n        // Get application details from ApplicationContract\r\n        (, address applicant, uint256 requestedAmount, , string memory status) = applicationContract.applications(_applicationId);\r\n\r\n        require(keccak256(bytes(status)) == keccak256(bytes(\"Approved\")), \"Application is not approved\");\r\n\r\n        // Call disburseFunds on DisbursementContract\r\n        disbursementContract.disburseFunds(_applicationId, payable(applicant), requestedAmount);\r\n    }\r\n\r\n    function getOwner() external view returns (address) {\r\n        return owner;\r\n    }\r\n\r\n    // Function to get balance of DisbursementContract\r\n    function getDisbursementBalance() external view returns (uint256) {\r\n        return disbursementContract.getBalance();\r\n    }\r\n}\r\n",
  "sourcePath": "C:\\Users\\saritajoshi\\Documents\\559_Blockchain\\scholarship-proj\\contracts\\ScholarshipFund.sol",
  "compiler": {
    "name": "solc",
    "version": "0.8.0+commit.c7dfd78e.Emscripten.clang"
  },
  "schemaVersion": "3.4.16",
  "updatedAt": "2024-11-13T01:58:36.756Z",
  "networkType": "ethereum",
  "devdoc": {
    "kind": "dev",
    "methods": {},
    "version": 1
  },
  "userdoc": {
    "kind": "user",
    "methods": {},
    "version": 1
  }
}